
Vault Security.elf:     file format elf32-littlearm

Sections:
Idx Name          Size      VMA       LMA       File off  Algn
  0 .isr_vector   000001f8  08000000  08000000  00010000  2**0
                  CONTENTS, ALLOC, LOAD, READONLY, DATA
  1 .text         00006688  08000200  08000200  00010200  2**4
                  CONTENTS, ALLOC, LOAD, READONLY, CODE
  2 .rodata       0000045c  08006888  08006888  00016888  2**3
                  CONTENTS, ALLOC, LOAD, READONLY, DATA
  3 .ARM.extab    00000000  08006ce4  08006ce4  000201dc  2**0
                  CONTENTS
  4 .ARM          00000008  08006ce4  08006ce4  00016ce4  2**2
                  CONTENTS, ALLOC, LOAD, READONLY, DATA
  5 .preinit_array 00000000  08006cec  08006cec  000201dc  2**0
                  CONTENTS, ALLOC, LOAD, DATA
  6 .init_array   00000004  08006cec  08006cec  00016cec  2**2
                  CONTENTS, ALLOC, LOAD, DATA
  7 .fini_array   00000004  08006cf0  08006cf0  00016cf0  2**2
                  CONTENTS, ALLOC, LOAD, DATA
  8 .data         000001dc  20000000  08006cf4  00020000  2**2
                  CONTENTS, ALLOC, LOAD, DATA
  9 .bss          00000104  200001dc  08006ed0  000201dc  2**2
                  ALLOC
 10 ._user_heap_stack 00000600  200002e0  08006ed0  000202e0  2**0
                  ALLOC
 11 .ARM.attributes 0000002e  00000000  00000000  000201dc  2**0
                  CONTENTS, READONLY
 12 .debug_info   0000b2fb  00000000  00000000  0002020a  2**0
                  CONTENTS, READONLY, DEBUGGING, OCTETS
 13 .debug_abbrev 00001961  00000000  00000000  0002b505  2**0
                  CONTENTS, READONLY, DEBUGGING, OCTETS
 14 .debug_aranges 000008a8  00000000  00000000  0002ce68  2**3
                  CONTENTS, READONLY, DEBUGGING, OCTETS
 15 .debug_ranges 00000800  00000000  00000000  0002d710  2**3
                  CONTENTS, READONLY, DEBUGGING, OCTETS
 16 .debug_macro  00027eb0  00000000  00000000  0002df10  2**0
                  CONTENTS, READONLY, DEBUGGING, OCTETS
 17 .debug_line   0000bb6d  00000000  00000000  00055dc0  2**0
                  CONTENTS, READONLY, DEBUGGING, OCTETS
 18 .debug_str    000f80f7  00000000  00000000  0006192d  2**0
                  CONTENTS, READONLY, DEBUGGING, OCTETS
 19 .comment      00000050  00000000  00000000  00159a24  2**0
                  CONTENTS, READONLY
 20 .debug_frame  00003218  00000000  00000000  00159a74  2**2
                  CONTENTS, READONLY, DEBUGGING, OCTETS

Disassembly of section .text:

08000200 <__do_global_dtors_aux>:
 8000200:	b510      	push	{r4, lr}
 8000202:	4c05      	ldr	r4, [pc, #20]	; (8000218 <__do_global_dtors_aux+0x18>)
 8000204:	7823      	ldrb	r3, [r4, #0]
 8000206:	b933      	cbnz	r3, 8000216 <__do_global_dtors_aux+0x16>
 8000208:	4b04      	ldr	r3, [pc, #16]	; (800021c <__do_global_dtors_aux+0x1c>)
 800020a:	b113      	cbz	r3, 8000212 <__do_global_dtors_aux+0x12>
 800020c:	4804      	ldr	r0, [pc, #16]	; (8000220 <__do_global_dtors_aux+0x20>)
 800020e:	f3af 8000 	nop.w
 8000212:	2301      	movs	r3, #1
 8000214:	7023      	strb	r3, [r4, #0]
 8000216:	bd10      	pop	{r4, pc}
 8000218:	200001dc 	.word	0x200001dc
 800021c:	00000000 	.word	0x00000000
 8000220:	08006870 	.word	0x08006870

08000224 <frame_dummy>:
 8000224:	b508      	push	{r3, lr}
 8000226:	4b03      	ldr	r3, [pc, #12]	; (8000234 <frame_dummy+0x10>)
 8000228:	b11b      	cbz	r3, 8000232 <frame_dummy+0xe>
 800022a:	4903      	ldr	r1, [pc, #12]	; (8000238 <frame_dummy+0x14>)
 800022c:	4803      	ldr	r0, [pc, #12]	; (800023c <frame_dummy+0x18>)
 800022e:	f3af 8000 	nop.w
 8000232:	bd08      	pop	{r3, pc}
 8000234:	00000000 	.word	0x00000000
 8000238:	200001e0 	.word	0x200001e0
 800023c:	08006870 	.word	0x08006870

08000240 <strlen>:
 8000240:	4603      	mov	r3, r0
 8000242:	f813 2b01 	ldrb.w	r2, [r3], #1
 8000246:	2a00      	cmp	r2, #0
 8000248:	d1fb      	bne.n	8000242 <strlen+0x2>
 800024a:	1a18      	subs	r0, r3, r0
 800024c:	3801      	subs	r0, #1
 800024e:	4770      	bx	lr

08000250 <memchr>:
 8000250:	f001 01ff 	and.w	r1, r1, #255	; 0xff
 8000254:	2a10      	cmp	r2, #16
 8000256:	db2b      	blt.n	80002b0 <memchr+0x60>
 8000258:	f010 0f07 	tst.w	r0, #7
 800025c:	d008      	beq.n	8000270 <memchr+0x20>
 800025e:	f810 3b01 	ldrb.w	r3, [r0], #1
 8000262:	3a01      	subs	r2, #1
 8000264:	428b      	cmp	r3, r1
 8000266:	d02d      	beq.n	80002c4 <memchr+0x74>
 8000268:	f010 0f07 	tst.w	r0, #7
 800026c:	b342      	cbz	r2, 80002c0 <memchr+0x70>
 800026e:	d1f6      	bne.n	800025e <memchr+0xe>
 8000270:	b4f0      	push	{r4, r5, r6, r7}
 8000272:	ea41 2101 	orr.w	r1, r1, r1, lsl #8
 8000276:	ea41 4101 	orr.w	r1, r1, r1, lsl #16
 800027a:	f022 0407 	bic.w	r4, r2, #7
 800027e:	f07f 0700 	mvns.w	r7, #0
 8000282:	2300      	movs	r3, #0
 8000284:	e8f0 5602 	ldrd	r5, r6, [r0], #8
 8000288:	3c08      	subs	r4, #8
 800028a:	ea85 0501 	eor.w	r5, r5, r1
 800028e:	ea86 0601 	eor.w	r6, r6, r1
 8000292:	fa85 f547 	uadd8	r5, r5, r7
 8000296:	faa3 f587 	sel	r5, r3, r7
 800029a:	fa86 f647 	uadd8	r6, r6, r7
 800029e:	faa5 f687 	sel	r6, r5, r7
 80002a2:	b98e      	cbnz	r6, 80002c8 <memchr+0x78>
 80002a4:	d1ee      	bne.n	8000284 <memchr+0x34>
 80002a6:	bcf0      	pop	{r4, r5, r6, r7}
 80002a8:	f001 01ff 	and.w	r1, r1, #255	; 0xff
 80002ac:	f002 0207 	and.w	r2, r2, #7
 80002b0:	b132      	cbz	r2, 80002c0 <memchr+0x70>
 80002b2:	f810 3b01 	ldrb.w	r3, [r0], #1
 80002b6:	3a01      	subs	r2, #1
 80002b8:	ea83 0301 	eor.w	r3, r3, r1
 80002bc:	b113      	cbz	r3, 80002c4 <memchr+0x74>
 80002be:	d1f8      	bne.n	80002b2 <memchr+0x62>
 80002c0:	2000      	movs	r0, #0
 80002c2:	4770      	bx	lr
 80002c4:	3801      	subs	r0, #1
 80002c6:	4770      	bx	lr
 80002c8:	2d00      	cmp	r5, #0
 80002ca:	bf06      	itte	eq
 80002cc:	4635      	moveq	r5, r6
 80002ce:	3803      	subeq	r0, #3
 80002d0:	3807      	subne	r0, #7
 80002d2:	f015 0f01 	tst.w	r5, #1
 80002d6:	d107      	bne.n	80002e8 <memchr+0x98>
 80002d8:	3001      	adds	r0, #1
 80002da:	f415 7f80 	tst.w	r5, #256	; 0x100
 80002de:	bf02      	ittt	eq
 80002e0:	3001      	addeq	r0, #1
 80002e2:	f415 3fc0 	tsteq.w	r5, #98304	; 0x18000
 80002e6:	3001      	addeq	r0, #1
 80002e8:	bcf0      	pop	{r4, r5, r6, r7}
 80002ea:	3801      	subs	r0, #1
 80002ec:	4770      	bx	lr
 80002ee:	bf00      	nop

080002f0 <__aeabi_uldivmod>:
 80002f0:	b953      	cbnz	r3, 8000308 <__aeabi_uldivmod+0x18>
 80002f2:	b94a      	cbnz	r2, 8000308 <__aeabi_uldivmod+0x18>
 80002f4:	2900      	cmp	r1, #0
 80002f6:	bf08      	it	eq
 80002f8:	2800      	cmpeq	r0, #0
 80002fa:	bf1c      	itt	ne
 80002fc:	f04f 31ff 	movne.w	r1, #4294967295
 8000300:	f04f 30ff 	movne.w	r0, #4294967295
 8000304:	f000 b974 	b.w	80005f0 <__aeabi_idiv0>
 8000308:	f1ad 0c08 	sub.w	ip, sp, #8
 800030c:	e96d ce04 	strd	ip, lr, [sp, #-16]!
 8000310:	f000 f806 	bl	8000320 <__udivmoddi4>
 8000314:	f8dd e004 	ldr.w	lr, [sp, #4]
 8000318:	e9dd 2302 	ldrd	r2, r3, [sp, #8]
 800031c:	b004      	add	sp, #16
 800031e:	4770      	bx	lr

08000320 <__udivmoddi4>:
 8000320:	e92d 47f0 	stmdb	sp!, {r4, r5, r6, r7, r8, r9, sl, lr}
 8000324:	9d08      	ldr	r5, [sp, #32]
 8000326:	4604      	mov	r4, r0
 8000328:	468e      	mov	lr, r1
 800032a:	2b00      	cmp	r3, #0
 800032c:	d14d      	bne.n	80003ca <__udivmoddi4+0xaa>
 800032e:	428a      	cmp	r2, r1
 8000330:	4694      	mov	ip, r2
 8000332:	d969      	bls.n	8000408 <__udivmoddi4+0xe8>
 8000334:	fab2 f282 	clz	r2, r2
 8000338:	b152      	cbz	r2, 8000350 <__udivmoddi4+0x30>
 800033a:	fa01 f302 	lsl.w	r3, r1, r2
 800033e:	f1c2 0120 	rsb	r1, r2, #32
 8000342:	fa20 f101 	lsr.w	r1, r0, r1
 8000346:	fa0c fc02 	lsl.w	ip, ip, r2
 800034a:	ea41 0e03 	orr.w	lr, r1, r3
 800034e:	4094      	lsls	r4, r2
 8000350:	ea4f 481c 	mov.w	r8, ip, lsr #16
 8000354:	0c21      	lsrs	r1, r4, #16
 8000356:	fbbe f6f8 	udiv	r6, lr, r8
 800035a:	fa1f f78c 	uxth.w	r7, ip
 800035e:	fb08 e316 	mls	r3, r8, r6, lr
 8000362:	ea41 4303 	orr.w	r3, r1, r3, lsl #16
 8000366:	fb06 f107 	mul.w	r1, r6, r7
 800036a:	4299      	cmp	r1, r3
 800036c:	d90a      	bls.n	8000384 <__udivmoddi4+0x64>
 800036e:	eb1c 0303 	adds.w	r3, ip, r3
 8000372:	f106 30ff 	add.w	r0, r6, #4294967295
 8000376:	f080 811f 	bcs.w	80005b8 <__udivmoddi4+0x298>
 800037a:	4299      	cmp	r1, r3
 800037c:	f240 811c 	bls.w	80005b8 <__udivmoddi4+0x298>
 8000380:	3e02      	subs	r6, #2
 8000382:	4463      	add	r3, ip
 8000384:	1a5b      	subs	r3, r3, r1
 8000386:	b2a4      	uxth	r4, r4
 8000388:	fbb3 f0f8 	udiv	r0, r3, r8
 800038c:	fb08 3310 	mls	r3, r8, r0, r3
 8000390:	ea44 4403 	orr.w	r4, r4, r3, lsl #16
 8000394:	fb00 f707 	mul.w	r7, r0, r7
 8000398:	42a7      	cmp	r7, r4
 800039a:	d90a      	bls.n	80003b2 <__udivmoddi4+0x92>
 800039c:	eb1c 0404 	adds.w	r4, ip, r4
 80003a0:	f100 33ff 	add.w	r3, r0, #4294967295
 80003a4:	f080 810a 	bcs.w	80005bc <__udivmoddi4+0x29c>
 80003a8:	42a7      	cmp	r7, r4
 80003aa:	f240 8107 	bls.w	80005bc <__udivmoddi4+0x29c>
 80003ae:	4464      	add	r4, ip
 80003b0:	3802      	subs	r0, #2
 80003b2:	ea40 4006 	orr.w	r0, r0, r6, lsl #16
 80003b6:	1be4      	subs	r4, r4, r7
 80003b8:	2600      	movs	r6, #0
 80003ba:	b11d      	cbz	r5, 80003c4 <__udivmoddi4+0xa4>
 80003bc:	40d4      	lsrs	r4, r2
 80003be:	2300      	movs	r3, #0
 80003c0:	e9c5 4300 	strd	r4, r3, [r5]
 80003c4:	4631      	mov	r1, r6
 80003c6:	e8bd 87f0 	ldmia.w	sp!, {r4, r5, r6, r7, r8, r9, sl, pc}
 80003ca:	428b      	cmp	r3, r1
 80003cc:	d909      	bls.n	80003e2 <__udivmoddi4+0xc2>
 80003ce:	2d00      	cmp	r5, #0
 80003d0:	f000 80ef 	beq.w	80005b2 <__udivmoddi4+0x292>
 80003d4:	2600      	movs	r6, #0
 80003d6:	e9c5 0100 	strd	r0, r1, [r5]
 80003da:	4630      	mov	r0, r6
 80003dc:	4631      	mov	r1, r6
 80003de:	e8bd 87f0 	ldmia.w	sp!, {r4, r5, r6, r7, r8, r9, sl, pc}
 80003e2:	fab3 f683 	clz	r6, r3
 80003e6:	2e00      	cmp	r6, #0
 80003e8:	d14a      	bne.n	8000480 <__udivmoddi4+0x160>
 80003ea:	428b      	cmp	r3, r1
 80003ec:	d302      	bcc.n	80003f4 <__udivmoddi4+0xd4>
 80003ee:	4282      	cmp	r2, r0
 80003f0:	f200 80f9 	bhi.w	80005e6 <__udivmoddi4+0x2c6>
 80003f4:	1a84      	subs	r4, r0, r2
 80003f6:	eb61 0303 	sbc.w	r3, r1, r3
 80003fa:	2001      	movs	r0, #1
 80003fc:	469e      	mov	lr, r3
 80003fe:	2d00      	cmp	r5, #0
 8000400:	d0e0      	beq.n	80003c4 <__udivmoddi4+0xa4>
 8000402:	e9c5 4e00 	strd	r4, lr, [r5]
 8000406:	e7dd      	b.n	80003c4 <__udivmoddi4+0xa4>
 8000408:	b902      	cbnz	r2, 800040c <__udivmoddi4+0xec>
 800040a:	deff      	udf	#255	; 0xff
 800040c:	fab2 f282 	clz	r2, r2
 8000410:	2a00      	cmp	r2, #0
 8000412:	f040 8092 	bne.w	800053a <__udivmoddi4+0x21a>
 8000416:	eba1 010c 	sub.w	r1, r1, ip
 800041a:	ea4f 471c 	mov.w	r7, ip, lsr #16
 800041e:	fa1f fe8c 	uxth.w	lr, ip
 8000422:	2601      	movs	r6, #1
 8000424:	0c20      	lsrs	r0, r4, #16
 8000426:	fbb1 f3f7 	udiv	r3, r1, r7
 800042a:	fb07 1113 	mls	r1, r7, r3, r1
 800042e:	ea40 4101 	orr.w	r1, r0, r1, lsl #16
 8000432:	fb0e f003 	mul.w	r0, lr, r3
 8000436:	4288      	cmp	r0, r1
 8000438:	d908      	bls.n	800044c <__udivmoddi4+0x12c>
 800043a:	eb1c 0101 	adds.w	r1, ip, r1
 800043e:	f103 38ff 	add.w	r8, r3, #4294967295
 8000442:	d202      	bcs.n	800044a <__udivmoddi4+0x12a>
 8000444:	4288      	cmp	r0, r1
 8000446:	f200 80cb 	bhi.w	80005e0 <__udivmoddi4+0x2c0>
 800044a:	4643      	mov	r3, r8
 800044c:	1a09      	subs	r1, r1, r0
 800044e:	b2a4      	uxth	r4, r4
 8000450:	fbb1 f0f7 	udiv	r0, r1, r7
 8000454:	fb07 1110 	mls	r1, r7, r0, r1
 8000458:	ea44 4401 	orr.w	r4, r4, r1, lsl #16
 800045c:	fb0e fe00 	mul.w	lr, lr, r0
 8000460:	45a6      	cmp	lr, r4
 8000462:	d908      	bls.n	8000476 <__udivmoddi4+0x156>
 8000464:	eb1c 0404 	adds.w	r4, ip, r4
 8000468:	f100 31ff 	add.w	r1, r0, #4294967295
 800046c:	d202      	bcs.n	8000474 <__udivmoddi4+0x154>
 800046e:	45a6      	cmp	lr, r4
 8000470:	f200 80bb 	bhi.w	80005ea <__udivmoddi4+0x2ca>
 8000474:	4608      	mov	r0, r1
 8000476:	eba4 040e 	sub.w	r4, r4, lr
 800047a:	ea40 4003 	orr.w	r0, r0, r3, lsl #16
 800047e:	e79c      	b.n	80003ba <__udivmoddi4+0x9a>
 8000480:	f1c6 0720 	rsb	r7, r6, #32
 8000484:	40b3      	lsls	r3, r6
 8000486:	fa22 fc07 	lsr.w	ip, r2, r7
 800048a:	ea4c 0c03 	orr.w	ip, ip, r3
 800048e:	fa20 f407 	lsr.w	r4, r0, r7
 8000492:	fa01 f306 	lsl.w	r3, r1, r6
 8000496:	431c      	orrs	r4, r3
 8000498:	40f9      	lsrs	r1, r7
 800049a:	ea4f 491c 	mov.w	r9, ip, lsr #16
 800049e:	fa00 f306 	lsl.w	r3, r0, r6
 80004a2:	fbb1 f8f9 	udiv	r8, r1, r9
 80004a6:	0c20      	lsrs	r0, r4, #16
 80004a8:	fa1f fe8c 	uxth.w	lr, ip
 80004ac:	fb09 1118 	mls	r1, r9, r8, r1
 80004b0:	ea40 4101 	orr.w	r1, r0, r1, lsl #16
 80004b4:	fb08 f00e 	mul.w	r0, r8, lr
 80004b8:	4288      	cmp	r0, r1
 80004ba:	fa02 f206 	lsl.w	r2, r2, r6
 80004be:	d90b      	bls.n	80004d8 <__udivmoddi4+0x1b8>
 80004c0:	eb1c 0101 	adds.w	r1, ip, r1
 80004c4:	f108 3aff 	add.w	sl, r8, #4294967295
 80004c8:	f080 8088 	bcs.w	80005dc <__udivmoddi4+0x2bc>
 80004cc:	4288      	cmp	r0, r1
 80004ce:	f240 8085 	bls.w	80005dc <__udivmoddi4+0x2bc>
 80004d2:	f1a8 0802 	sub.w	r8, r8, #2
 80004d6:	4461      	add	r1, ip
 80004d8:	1a09      	subs	r1, r1, r0
 80004da:	b2a4      	uxth	r4, r4
 80004dc:	fbb1 f0f9 	udiv	r0, r1, r9
 80004e0:	fb09 1110 	mls	r1, r9, r0, r1
 80004e4:	ea44 4101 	orr.w	r1, r4, r1, lsl #16
 80004e8:	fb00 fe0e 	mul.w	lr, r0, lr
 80004ec:	458e      	cmp	lr, r1
 80004ee:	d908      	bls.n	8000502 <__udivmoddi4+0x1e2>
 80004f0:	eb1c 0101 	adds.w	r1, ip, r1
 80004f4:	f100 34ff 	add.w	r4, r0, #4294967295
 80004f8:	d26c      	bcs.n	80005d4 <__udivmoddi4+0x2b4>
 80004fa:	458e      	cmp	lr, r1
 80004fc:	d96a      	bls.n	80005d4 <__udivmoddi4+0x2b4>
 80004fe:	3802      	subs	r0, #2
 8000500:	4461      	add	r1, ip
 8000502:	ea40 4008 	orr.w	r0, r0, r8, lsl #16
 8000506:	fba0 9402 	umull	r9, r4, r0, r2
 800050a:	eba1 010e 	sub.w	r1, r1, lr
 800050e:	42a1      	cmp	r1, r4
 8000510:	46c8      	mov	r8, r9
 8000512:	46a6      	mov	lr, r4
 8000514:	d356      	bcc.n	80005c4 <__udivmoddi4+0x2a4>
 8000516:	d053      	beq.n	80005c0 <__udivmoddi4+0x2a0>
 8000518:	b15d      	cbz	r5, 8000532 <__udivmoddi4+0x212>
 800051a:	ebb3 0208 	subs.w	r2, r3, r8
 800051e:	eb61 010e 	sbc.w	r1, r1, lr
 8000522:	fa01 f707 	lsl.w	r7, r1, r7
 8000526:	fa22 f306 	lsr.w	r3, r2, r6
 800052a:	40f1      	lsrs	r1, r6
 800052c:	431f      	orrs	r7, r3
 800052e:	e9c5 7100 	strd	r7, r1, [r5]
 8000532:	2600      	movs	r6, #0
 8000534:	4631      	mov	r1, r6
 8000536:	e8bd 87f0 	ldmia.w	sp!, {r4, r5, r6, r7, r8, r9, sl, pc}
 800053a:	f1c2 0320 	rsb	r3, r2, #32
 800053e:	40d8      	lsrs	r0, r3
 8000540:	fa0c fc02 	lsl.w	ip, ip, r2
 8000544:	fa21 f303 	lsr.w	r3, r1, r3
 8000548:	4091      	lsls	r1, r2
 800054a:	4301      	orrs	r1, r0
 800054c:	ea4f 471c 	mov.w	r7, ip, lsr #16
 8000550:	fa1f fe8c 	uxth.w	lr, ip
 8000554:	fbb3 f0f7 	udiv	r0, r3, r7
 8000558:	fb07 3610 	mls	r6, r7, r0, r3
 800055c:	0c0b      	lsrs	r3, r1, #16
 800055e:	ea43 4306 	orr.w	r3, r3, r6, lsl #16
 8000562:	fb00 f60e 	mul.w	r6, r0, lr
 8000566:	429e      	cmp	r6, r3
 8000568:	fa04 f402 	lsl.w	r4, r4, r2
 800056c:	d908      	bls.n	8000580 <__udivmoddi4+0x260>
 800056e:	eb1c 0303 	adds.w	r3, ip, r3
 8000572:	f100 38ff 	add.w	r8, r0, #4294967295
 8000576:	d22f      	bcs.n	80005d8 <__udivmoddi4+0x2b8>
 8000578:	429e      	cmp	r6, r3
 800057a:	d92d      	bls.n	80005d8 <__udivmoddi4+0x2b8>
 800057c:	3802      	subs	r0, #2
 800057e:	4463      	add	r3, ip
 8000580:	1b9b      	subs	r3, r3, r6
 8000582:	b289      	uxth	r1, r1
 8000584:	fbb3 f6f7 	udiv	r6, r3, r7
 8000588:	fb07 3316 	mls	r3, r7, r6, r3
 800058c:	ea41 4103 	orr.w	r1, r1, r3, lsl #16
 8000590:	fb06 f30e 	mul.w	r3, r6, lr
 8000594:	428b      	cmp	r3, r1
 8000596:	d908      	bls.n	80005aa <__udivmoddi4+0x28a>
 8000598:	eb1c 0101 	adds.w	r1, ip, r1
 800059c:	f106 38ff 	add.w	r8, r6, #4294967295
 80005a0:	d216      	bcs.n	80005d0 <__udivmoddi4+0x2b0>
 80005a2:	428b      	cmp	r3, r1
 80005a4:	d914      	bls.n	80005d0 <__udivmoddi4+0x2b0>
 80005a6:	3e02      	subs	r6, #2
 80005a8:	4461      	add	r1, ip
 80005aa:	1ac9      	subs	r1, r1, r3
 80005ac:	ea46 4600 	orr.w	r6, r6, r0, lsl #16
 80005b0:	e738      	b.n	8000424 <__udivmoddi4+0x104>
 80005b2:	462e      	mov	r6, r5
 80005b4:	4628      	mov	r0, r5
 80005b6:	e705      	b.n	80003c4 <__udivmoddi4+0xa4>
 80005b8:	4606      	mov	r6, r0
 80005ba:	e6e3      	b.n	8000384 <__udivmoddi4+0x64>
 80005bc:	4618      	mov	r0, r3
 80005be:	e6f8      	b.n	80003b2 <__udivmoddi4+0x92>
 80005c0:	454b      	cmp	r3, r9
 80005c2:	d2a9      	bcs.n	8000518 <__udivmoddi4+0x1f8>
 80005c4:	ebb9 0802 	subs.w	r8, r9, r2
 80005c8:	eb64 0e0c 	sbc.w	lr, r4, ip
 80005cc:	3801      	subs	r0, #1
 80005ce:	e7a3      	b.n	8000518 <__udivmoddi4+0x1f8>
 80005d0:	4646      	mov	r6, r8
 80005d2:	e7ea      	b.n	80005aa <__udivmoddi4+0x28a>
 80005d4:	4620      	mov	r0, r4
 80005d6:	e794      	b.n	8000502 <__udivmoddi4+0x1e2>
 80005d8:	4640      	mov	r0, r8
 80005da:	e7d1      	b.n	8000580 <__udivmoddi4+0x260>
 80005dc:	46d0      	mov	r8, sl
 80005de:	e77b      	b.n	80004d8 <__udivmoddi4+0x1b8>
 80005e0:	3b02      	subs	r3, #2
 80005e2:	4461      	add	r1, ip
 80005e4:	e732      	b.n	800044c <__udivmoddi4+0x12c>
 80005e6:	4630      	mov	r0, r6
 80005e8:	e709      	b.n	80003fe <__udivmoddi4+0xde>
 80005ea:	4464      	add	r4, ip
 80005ec:	3802      	subs	r0, #2
 80005ee:	e742      	b.n	8000476 <__udivmoddi4+0x156>

080005f0 <__aeabi_idiv0>:
 80005f0:	4770      	bx	lr
 80005f2:	bf00      	nop

080005f4 <setupHandler>:
	blueLightState,
	redLightState,
	logState,
	sleepState
} eSystemState;
void setupHandler (float* fTemp) {
 80005f4:	b480      	push	{r7}
 80005f6:	b083      	sub	sp, #12
 80005f8:	af00      	add	r7, sp, #0
 80005fa:	6078      	str	r0, [r7, #4]
	*fTemp = 0.0;
 80005fc:	687b      	ldr	r3, [r7, #4]
 80005fe:	f04f 0200 	mov.w	r2, #0
 8000602:	601a      	str	r2, [r3, #0]
}
 8000604:	bf00      	nop
 8000606:	370c      	adds	r7, #12
 8000608:	46bd      	mov	sp, r7
 800060a:	f85d 7b04 	ldr.w	r7, [sp], #4
 800060e:	4770      	bx	lr

08000610 <TempCapture>:
eSystemState TempCapture(float* fTemp) {
 8000610:	b580      	push	{r7, lr}
 8000612:	b084      	sub	sp, #16
 8000614:	af00      	add	r7, sp, #0
 8000616:	6078      	str	r0, [r7, #4]
	uint16_t rawValue;
	float voltage;
	HAL_ADC_PollForConversion(&hadc1, HAL_MAX_DELAY);
 8000618:	f04f 31ff 	mov.w	r1, #4294967295
 800061c:	482e      	ldr	r0, [pc, #184]	; (80006d8 <TempCapture+0xc8>)
 800061e:	f000 ff3d 	bl	800149c <HAL_ADC_PollForConversion>
	rawValue = HAL_ADC_GetValue(&hadc1);
 8000622:	482d      	ldr	r0, [pc, #180]	; (80006d8 <TempCapture+0xc8>)
 8000624:	f000 ffc5 	bl	80015b2 <HAL_ADC_GetValue>
 8000628:	4603      	mov	r3, r0
 800062a:	81fb      	strh	r3, [r7, #14]
	voltage = (((float)rawValue)/(4095)) * 3.3;
 800062c:	89fb      	ldrh	r3, [r7, #14]
 800062e:	ee07 3a90 	vmov	s15, r3
 8000632:	eeb8 7a67 	vcvt.f32.u32	s14, s15
 8000636:	eddf 6a29 	vldr	s13, [pc, #164]	; 80006dc <TempCapture+0xcc>
 800063a:	eec7 7a26 	vdiv.f32	s15, s14, s13
 800063e:	eeb7 7ae7 	vcvt.f64.f32	d7, s15
 8000642:	ed9f 6b21 	vldr	d6, [pc, #132]	; 80006c8 <TempCapture+0xb8>
 8000646:	ee27 7b06 	vmul.f64	d7, d7, d6
 800064a:	eef7 7bc7 	vcvt.f32.f64	s15, d7
 800064e:	edc7 7a02 	vstr	s15, [r7, #8]
	*fTemp = 100 * voltage - 50;
 8000652:	edd7 7a02 	vldr	s15, [r7, #8]
 8000656:	ed9f 7a22 	vldr	s14, [pc, #136]	; 80006e0 <TempCapture+0xd0>
 800065a:	ee67 7a87 	vmul.f32	s15, s15, s14
 800065e:	ed9f 7a21 	vldr	s14, [pc, #132]	; 80006e4 <TempCapture+0xd4>
 8000662:	ee77 7ac7 	vsub.f32	s15, s15, s14
 8000666:	687b      	ldr	r3, [r7, #4]
 8000668:	edc3 7a00 	vstr	s15, [r3]
	*fTemp = -1 * *fTemp;
 800066c:	687b      	ldr	r3, [r7, #4]
 800066e:	edd3 7a00 	vldr	s15, [r3]
 8000672:	eef1 7a67 	vneg.f32	s15, s15
 8000676:	687b      	ldr	r3, [r7, #4]
 8000678:	edc3 7a00 	vstr	s15, [r3]
	*fTemp = *fTemp * 9.0/5.0 + 32.0;
 800067c:	687b      	ldr	r3, [r7, #4]
 800067e:	edd3 7a00 	vldr	s15, [r3]
 8000682:	eeb7 7ae7 	vcvt.f64.f32	d7, s15
 8000686:	eeb2 6b02 	vmov.f64	d6, #34	; 0x41100000  9.0
 800068a:	ee27 6b06 	vmul.f64	d6, d7, d6
 800068e:	eeb1 5b04 	vmov.f64	d5, #20	; 0x40a00000  5.0
 8000692:	ee86 7b05 	vdiv.f64	d7, d6, d5
 8000696:	ed9f 6b0e 	vldr	d6, [pc, #56]	; 80006d0 <TempCapture+0xc0>
 800069a:	ee37 7b06 	vadd.f64	d7, d7, d6
 800069e:	eef7 7bc7 	vcvt.f32.f64	s15, d7
 80006a2:	687b      	ldr	r3, [r7, #4]
 80006a4:	edc3 7a00 	vstr	s15, [r3]
	HAL_GPIO_WritePin(GPIOA, whiteLed_Pin, GPIO_PIN_SET);
 80006a8:	2201      	movs	r2, #1
 80006aa:	2140      	movs	r1, #64	; 0x40
 80006ac:	480e      	ldr	r0, [pc, #56]	; (80006e8 <TempCapture+0xd8>)
 80006ae:	f001 fc6f 	bl	8001f90 <HAL_GPIO_WritePin>
	HAL_Delay(2000);
 80006b2:	f44f 60fa 	mov.w	r0, #2000	; 0x7d0
 80006b6:	f000 fdbb 	bl	8001230 <HAL_Delay>
}
 80006ba:	bf00      	nop
 80006bc:	4618      	mov	r0, r3
 80006be:	3710      	adds	r7, #16
 80006c0:	46bd      	mov	sp, r7
 80006c2:	bd80      	pop	{r7, pc}
 80006c4:	f3af 8000 	nop.w
 80006c8:	66666666 	.word	0x66666666
 80006cc:	400a6666 	.word	0x400a6666
 80006d0:	00000000 	.word	0x00000000
 80006d4:	40400000 	.word	0x40400000
 80006d8:	200001f8 	.word	0x200001f8
 80006dc:	457ff000 	.word	0x457ff000
 80006e0:	42c80000 	.word	0x42c80000
 80006e4:	42480000 	.word	0x42480000
 80006e8:	40020000 	.word	0x40020000

080006ec <yellowLightHandler>:
eSystemState yellowLightHandler(void) {
 80006ec:	b580      	push	{r7, lr}
 80006ee:	af00      	add	r7, sp, #0
	HAL_GPIO_WritePin(GPIOA, whiteLed_Pin, GPIO_PIN_RESET);
 80006f0:	2200      	movs	r2, #0
 80006f2:	2140      	movs	r1, #64	; 0x40
 80006f4:	4809      	ldr	r0, [pc, #36]	; (800071c <yellowLightHandler+0x30>)
 80006f6:	f001 fc4b 	bl	8001f90 <HAL_GPIO_WritePin>
	HAL_GPIO_WritePin(GPIOA, yellowLed_Pin, GPIO_PIN_SET);
 80006fa:	2201      	movs	r2, #1
 80006fc:	2120      	movs	r1, #32
 80006fe:	4807      	ldr	r0, [pc, #28]	; (800071c <yellowLightHandler+0x30>)
 8000700:	f001 fc46 	bl	8001f90 <HAL_GPIO_WritePin>
	HAL_Delay(3000);
 8000704:	f640 30b8 	movw	r0, #3000	; 0xbb8
 8000708:	f000 fd92 	bl	8001230 <HAL_Delay>
	HAL_GPIO_WritePin(GPIOA, yellowLed_Pin, GPIO_PIN_RESET);
 800070c:	2200      	movs	r2, #0
 800070e:	2120      	movs	r1, #32
 8000710:	4802      	ldr	r0, [pc, #8]	; (800071c <yellowLightHandler+0x30>)
 8000712:	f001 fc3d 	bl	8001f90 <HAL_GPIO_WritePin>
	return blueLightState;
 8000716:	2303      	movs	r3, #3
}
 8000718:	4618      	mov	r0, r3
 800071a:	bd80      	pop	{r7, pc}
 800071c:	40020000 	.word	0x40020000

08000720 <blueLightHandler>:
eSystemState blueLightHandler(void) {
 8000720:	b580      	push	{r7, lr}
 8000722:	af00      	add	r7, sp, #0
	HAL_GPIO_WritePin(GPIOB, blueLed_Pin, GPIO_PIN_SET);
 8000724:	2201      	movs	r2, #1
 8000726:	f44f 7100 	mov.w	r1, #512	; 0x200
 800072a:	4808      	ldr	r0, [pc, #32]	; (800074c <blueLightHandler+0x2c>)
 800072c:	f001 fc30 	bl	8001f90 <HAL_GPIO_WritePin>
	HAL_Delay(3000);
 8000730:	f640 30b8 	movw	r0, #3000	; 0xbb8
 8000734:	f000 fd7c 	bl	8001230 <HAL_Delay>
	HAL_GPIO_WritePin(GPIOB, blueLed_Pin, GPIO_PIN_RESET);
 8000738:	2200      	movs	r2, #0
 800073a:	f44f 7100 	mov.w	r1, #512	; 0x200
 800073e:	4803      	ldr	r0, [pc, #12]	; (800074c <blueLightHandler+0x2c>)
 8000740:	f001 fc26 	bl	8001f90 <HAL_GPIO_WritePin>
	return redLightState;
 8000744:	2304      	movs	r3, #4
}
 8000746:	4618      	mov	r0, r3
 8000748:	bd80      	pop	{r7, pc}
 800074a:	bf00      	nop
 800074c:	40020400 	.word	0x40020400

08000750 <redLightHandler>:
eSystemState redLightHandler(void) {
 8000750:	b580      	push	{r7, lr}
 8000752:	af00      	add	r7, sp, #0
	HAL_GPIO_WritePin(GPIOB, redLed_Pin, GPIO_PIN_SET);
 8000754:	2201      	movs	r2, #1
 8000756:	f44f 7180 	mov.w	r1, #256	; 0x100
 800075a:	4808      	ldr	r0, [pc, #32]	; (800077c <redLightHandler+0x2c>)
 800075c:	f001 fc18 	bl	8001f90 <HAL_GPIO_WritePin>
	HAL_Delay(3000);
 8000760:	f640 30b8 	movw	r0, #3000	; 0xbb8
 8000764:	f000 fd64 	bl	8001230 <HAL_Delay>
	HAL_GPIO_WritePin(GPIOB, redLed_Pin, GPIO_PIN_RESET);
 8000768:	2200      	movs	r2, #0
 800076a:	f44f 7180 	mov.w	r1, #256	; 0x100
 800076e:	4803      	ldr	r0, [pc, #12]	; (800077c <redLightHandler+0x2c>)
 8000770:	f001 fc0e 	bl	8001f90 <HAL_GPIO_WritePin>
	return sleepState;
 8000774:	2306      	movs	r3, #6
}
 8000776:	4618      	mov	r0, r3
 8000778:	bd80      	pop	{r7, pc}
 800077a:	bf00      	nop
 800077c:	40020400 	.word	0x40020400

08000780 <dataLogHandler>:
void dataLogHandler(float* fTemp) {
 8000780:	b580      	push	{r7, lr}
 8000782:	b0c2      	sub	sp, #264	; 0x108
 8000784:	af00      	add	r7, sp, #0
 8000786:	f507 7384 	add.w	r3, r7, #264	; 0x108
 800078a:	f5a3 7382 	sub.w	r3, r3, #260	; 0x104
 800078e:	6018      	str	r0, [r3, #0]
	HAL_GPIO_WritePin(GPIOA, whiteLed_Pin, GPIO_PIN_RESET);
 8000790:	2200      	movs	r2, #0
 8000792:	2140      	movs	r1, #64	; 0x40
 8000794:	483f      	ldr	r0, [pc, #252]	; (8000894 <dataLogHandler+0x114>)
 8000796:	f001 fbfb 	bl	8001f90 <HAL_GPIO_WritePin>
	char msg[250];
	if (*fTemp <= 73) {
 800079a:	f507 7384 	add.w	r3, r7, #264	; 0x108
 800079e:	f5a3 7382 	sub.w	r3, r3, #260	; 0x104
 80007a2:	681b      	ldr	r3, [r3, #0]
 80007a4:	edd3 7a00 	vldr	s15, [r3]
 80007a8:	ed9f 7a3b 	vldr	s14, [pc, #236]	; 8000898 <dataLogHandler+0x118>
 80007ac:	eef4 7ac7 	vcmpe.f32	s15, s14
 80007b0:	eef1 fa10 	vmrs	APSR_nzcv, fpscr
 80007b4:	d81e      	bhi.n	80007f4 <dataLogHandler+0x74>
		sprintf(msg, "Temperature in vault to cold: %f\r\n", *fTemp);
 80007b6:	f507 7384 	add.w	r3, r7, #264	; 0x108
 80007ba:	f5a3 7382 	sub.w	r3, r3, #260	; 0x104
 80007be:	681b      	ldr	r3, [r3, #0]
 80007c0:	edd3 7a00 	vldr	s15, [r3]
 80007c4:	eeb7 7ae7 	vcvt.f64.f32	d7, s15
 80007c8:	f107 000c 	add.w	r0, r7, #12
 80007cc:	ec53 2b17 	vmov	r2, r3, d7
 80007d0:	4932      	ldr	r1, [pc, #200]	; (800089c <dataLogHandler+0x11c>)
 80007d2:	f003 fe53 	bl	800447c <siprintf>
		HAL_UART_Transmit(&huart3, (uint8_t*) msg, strlen(msg), HAL_MAX_DELAY);
 80007d6:	f107 030c 	add.w	r3, r7, #12
 80007da:	4618      	mov	r0, r3
 80007dc:	f7ff fd30 	bl	8000240 <strlen>
 80007e0:	4603      	mov	r3, r0
 80007e2:	b29a      	uxth	r2, r3
 80007e4:	f107 010c 	add.w	r1, r7, #12
 80007e8:	f04f 33ff 	mov.w	r3, #4294967295
 80007ec:	482c      	ldr	r0, [pc, #176]	; (80008a0 <dataLogHandler+0x120>)
 80007ee:	f002 fd31 	bl	8003254 <HAL_UART_Transmit>
		HAL_UART_Transmit(&huart3, (uint8_t*) msg, strlen(msg), HAL_MAX_DELAY);
	} else {
		sprintf(msg, "Temperature in vault is good: %f\r\n", *fTemp);
		HAL_UART_Transmit(&huart3, (uint8_t*) msg, strlen(msg), HAL_MAX_DELAY);
	}
}
 80007f2:	e04a      	b.n	800088a <dataLogHandler+0x10a>
	} else if (*fTemp >= 78) {
 80007f4:	f507 7384 	add.w	r3, r7, #264	; 0x108
 80007f8:	f5a3 7382 	sub.w	r3, r3, #260	; 0x104
 80007fc:	681b      	ldr	r3, [r3, #0]
 80007fe:	edd3 7a00 	vldr	s15, [r3]
 8000802:	ed9f 7a28 	vldr	s14, [pc, #160]	; 80008a4 <dataLogHandler+0x124>
 8000806:	eef4 7ac7 	vcmpe.f32	s15, s14
 800080a:	eef1 fa10 	vmrs	APSR_nzcv, fpscr
 800080e:	db1e      	blt.n	800084e <dataLogHandler+0xce>
		sprintf(msg, "Temperature in vault to hot: %f\r\n", *fTemp);
 8000810:	f507 7384 	add.w	r3, r7, #264	; 0x108
 8000814:	f5a3 7382 	sub.w	r3, r3, #260	; 0x104
 8000818:	681b      	ldr	r3, [r3, #0]
 800081a:	edd3 7a00 	vldr	s15, [r3]
 800081e:	eeb7 7ae7 	vcvt.f64.f32	d7, s15
 8000822:	f107 000c 	add.w	r0, r7, #12
 8000826:	ec53 2b17 	vmov	r2, r3, d7
 800082a:	491f      	ldr	r1, [pc, #124]	; (80008a8 <dataLogHandler+0x128>)
 800082c:	f003 fe26 	bl	800447c <siprintf>
		HAL_UART_Transmit(&huart3, (uint8_t*) msg, strlen(msg), HAL_MAX_DELAY);
 8000830:	f107 030c 	add.w	r3, r7, #12
 8000834:	4618      	mov	r0, r3
 8000836:	f7ff fd03 	bl	8000240 <strlen>
 800083a:	4603      	mov	r3, r0
 800083c:	b29a      	uxth	r2, r3
 800083e:	f107 010c 	add.w	r1, r7, #12
 8000842:	f04f 33ff 	mov.w	r3, #4294967295
 8000846:	4816      	ldr	r0, [pc, #88]	; (80008a0 <dataLogHandler+0x120>)
 8000848:	f002 fd04 	bl	8003254 <HAL_UART_Transmit>
}
 800084c:	e01d      	b.n	800088a <dataLogHandler+0x10a>
		sprintf(msg, "Temperature in vault is good: %f\r\n", *fTemp);
 800084e:	f507 7384 	add.w	r3, r7, #264	; 0x108
 8000852:	f5a3 7382 	sub.w	r3, r3, #260	; 0x104
 8000856:	681b      	ldr	r3, [r3, #0]
 8000858:	edd3 7a00 	vldr	s15, [r3]
 800085c:	eeb7 7ae7 	vcvt.f64.f32	d7, s15
 8000860:	f107 000c 	add.w	r0, r7, #12
 8000864:	ec53 2b17 	vmov	r2, r3, d7
 8000868:	4910      	ldr	r1, [pc, #64]	; (80008ac <dataLogHandler+0x12c>)
 800086a:	f003 fe07 	bl	800447c <siprintf>
		HAL_UART_Transmit(&huart3, (uint8_t*) msg, strlen(msg), HAL_MAX_DELAY);
 800086e:	f107 030c 	add.w	r3, r7, #12
 8000872:	4618      	mov	r0, r3
 8000874:	f7ff fce4 	bl	8000240 <strlen>
 8000878:	4603      	mov	r3, r0
 800087a:	b29a      	uxth	r2, r3
 800087c:	f107 010c 	add.w	r1, r7, #12
 8000880:	f04f 33ff 	mov.w	r3, #4294967295
 8000884:	4806      	ldr	r0, [pc, #24]	; (80008a0 <dataLogHandler+0x120>)
 8000886:	f002 fce5 	bl	8003254 <HAL_UART_Transmit>
}
 800088a:	bf00      	nop
 800088c:	f507 7784 	add.w	r7, r7, #264	; 0x108
 8000890:	46bd      	mov	sp, r7
 8000892:	bd80      	pop	{r7, pc}
 8000894:	40020000 	.word	0x40020000
 8000898:	42920000 	.word	0x42920000
 800089c:	08006888 	.word	0x08006888
 80008a0:	20000240 	.word	0x20000240
 80008a4:	429c0000 	.word	0x429c0000
 80008a8:	080068ac 	.word	0x080068ac
 80008ac:	080068d0 	.word	0x080068d0

080008b0 <sleepHandler>:
eSystemState sleepHandler(void) {
 80008b0:	b580      	push	{r7, lr}
 80008b2:	af00      	add	r7, sp, #0
	HAL_Delay(4000);
 80008b4:	f44f 607a 	mov.w	r0, #4000	; 0xfa0
 80008b8:	f000 fcba 	bl	8001230 <HAL_Delay>
}
 80008bc:	bf00      	nop
 80008be:	4618      	mov	r0, r3
 80008c0:	bd80      	pop	{r7, pc}
	...

080008c4 <main>:
/**
  * @brief  The application entry point.
  * @retval int
  */
int main(void)
{
 80008c4:	b580      	push	{r7, lr}
 80008c6:	b082      	sub	sp, #8
 80008c8:	af00      	add	r7, sp, #0
  /* USER CODE BEGIN 1 */
	eSystemState eNextState = setupState;
 80008ca:	2300      	movs	r3, #0
 80008cc:	71fb      	strb	r3, [r7, #7]
  /* USER CODE END 1 */

  /* MCU Configuration--------------------------------------------------------*/

  /* Reset of all peripherals, Initializes the Flash interface and the Systick. */
  HAL_Init();
 80008ce:	f000 fc52 	bl	8001176 <HAL_Init>
  /* USER CODE BEGIN Init */

  /* USER CODE END Init */

  /* Configure the system clock */
  SystemClock_Config();
 80008d2:	f000 f867 	bl	80009a4 <SystemClock_Config>
  /* USER CODE BEGIN SysInit */

  /* USER CODE END SysInit */

  /* Initialize all configured peripherals */
  MX_GPIO_Init();
 80008d6:	f000 f943 	bl	8000b60 <MX_GPIO_Init>
  MX_ADC1_Init();
 80008da:	f000 f8bf 	bl	8000a5c <MX_ADC1_Init>
  MX_USART3_UART_Init();
 80008de:	f000 f90f 	bl	8000b00 <MX_USART3_UART_Init>
  /* USER CODE BEGIN 2 */
  HAL_ADC_Start(&hadc1);
 80008e2:	482d      	ldr	r0, [pc, #180]	; (8000998 <main+0xd4>)
 80008e4:	f000 fd0c 	bl	8001300 <HAL_ADC_Start>
  while (1)
  {
    /* USER CODE END WHILE */

    /* USER CODE BEGIN 3 */
	  switch(eNextState) {
 80008e8:	79fb      	ldrb	r3, [r7, #7]
 80008ea:	2b06      	cmp	r3, #6
 80008ec:	d84e      	bhi.n	800098c <main+0xc8>
 80008ee:	a201      	add	r2, pc, #4	; (adr r2, 80008f4 <main+0x30>)
 80008f0:	f852 f023 	ldr.w	pc, [r2, r3, lsl #2]
 80008f4:	08000911 	.word	0x08000911
 80008f8:	0800091f 	.word	0x0800091f
 80008fc:	08000957 	.word	0x08000957
 8000900:	08000961 	.word	0x08000961
 8000904:	0800096b 	.word	0x0800096b
 8000908:	08000975 	.word	0x08000975
 800090c:	08000983 	.word	0x08000983
	  		case setupState:
	  			setupHandler (&fTemperature);
 8000910:	463b      	mov	r3, r7
 8000912:	4618      	mov	r0, r3
 8000914:	f7ff fe6e 	bl	80005f4 <setupHandler>
	  			eNextState = temperatureCaptureState;
 8000918:	2301      	movs	r3, #1
 800091a:	71fb      	strb	r3, [r7, #7]
	  		break;
 800091c:	e03b      	b.n	8000996 <main+0xd2>
	  		case temperatureCaptureState:
	  			TempCapture(&fTemperature);
 800091e:	463b      	mov	r3, r7
 8000920:	4618      	mov	r0, r3
 8000922:	f7ff fe75 	bl	8000610 <TempCapture>
	  			if (fTemperature <= 73 || fTemperature >= 78) {
 8000926:	edd7 7a00 	vldr	s15, [r7]
 800092a:	ed9f 7a1c 	vldr	s14, [pc, #112]	; 800099c <main+0xd8>
 800092e:	eef4 7ac7 	vcmpe.f32	s15, s14
 8000932:	eef1 fa10 	vmrs	APSR_nzcv, fpscr
 8000936:	d908      	bls.n	800094a <main+0x86>
 8000938:	edd7 7a00 	vldr	s15, [r7]
 800093c:	ed9f 7a18 	vldr	s14, [pc, #96]	; 80009a0 <main+0xdc>
 8000940:	eef4 7ac7 	vcmpe.f32	s15, s14
 8000944:	eef1 fa10 	vmrs	APSR_nzcv, fpscr
 8000948:	db02      	blt.n	8000950 <main+0x8c>
	  				eNextState = yellowLightState;
 800094a:	2302      	movs	r3, #2
 800094c:	71fb      	strb	r3, [r7, #7]
	  	  	 	 }
	  			else
	  				eNextState = logState;
	  		break;
 800094e:	e022      	b.n	8000996 <main+0xd2>
	  				eNextState = logState;
 8000950:	2305      	movs	r3, #5
 8000952:	71fb      	strb	r3, [r7, #7]
	  		break;
 8000954:	e01f      	b.n	8000996 <main+0xd2>
	  		case yellowLightState:
	  			yellowLightHandler();
 8000956:	f7ff fec9 	bl	80006ec <yellowLightHandler>
	  			eNextState = blueLightState;
 800095a:	2303      	movs	r3, #3
 800095c:	71fb      	strb	r3, [r7, #7]
	  		break;
 800095e:	e01a      	b.n	8000996 <main+0xd2>
	  		case blueLightState:
	  			blueLightHandler();
 8000960:	f7ff fede 	bl	8000720 <blueLightHandler>
	  			eNextState = redLightState;
 8000964:	2304      	movs	r3, #4
 8000966:	71fb      	strb	r3, [r7, #7]
	  		break;
 8000968:	e015      	b.n	8000996 <main+0xd2>
	  		case redLightState:
	  			redLightHandler();
 800096a:	f7ff fef1 	bl	8000750 <redLightHandler>
	  			eNextState = logState;
 800096e:	2305      	movs	r3, #5
 8000970:	71fb      	strb	r3, [r7, #7]
	  		break;
 8000972:	e010      	b.n	8000996 <main+0xd2>
	  		case logState:
	  			dataLogHandler(&fTemperature);
 8000974:	463b      	mov	r3, r7
 8000976:	4618      	mov	r0, r3
 8000978:	f7ff ff02 	bl	8000780 <dataLogHandler>
	  			eNextState = sleepState;
 800097c:	2306      	movs	r3, #6
 800097e:	71fb      	strb	r3, [r7, #7]
	  		break;
 8000980:	e009      	b.n	8000996 <main+0xd2>
	  		case sleepState:
	  			sleepHandler();
 8000982:	f7ff ff95 	bl	80008b0 <sleepHandler>
	  			eNextState = setupState;
 8000986:	2300      	movs	r3, #0
 8000988:	71fb      	strb	r3, [r7, #7]
	  		break;
 800098a:	e004      	b.n	8000996 <main+0xd2>
	  		default:
	  			setupHandler (&fTemperature);
 800098c:	463b      	mov	r3, r7
 800098e:	4618      	mov	r0, r3
 8000990:	f7ff fe30 	bl	80005f4 <setupHandler>
	  		break;
 8000994:	bf00      	nop
	  switch(eNextState) {
 8000996:	e7a7      	b.n	80008e8 <main+0x24>
 8000998:	200001f8 	.word	0x200001f8
 800099c:	42920000 	.word	0x42920000
 80009a0:	429c0000 	.word	0x429c0000

080009a4 <SystemClock_Config>:
/**
  * @brief System Clock Configuration
  * @retval None
  */
void SystemClock_Config(void)
{
 80009a4:	b580      	push	{r7, lr}
 80009a6:	b094      	sub	sp, #80	; 0x50
 80009a8:	af00      	add	r7, sp, #0
  RCC_OscInitTypeDef RCC_OscInitStruct = {0};
 80009aa:	f107 031c 	add.w	r3, r7, #28
 80009ae:	2234      	movs	r2, #52	; 0x34
 80009b0:	2100      	movs	r1, #0
 80009b2:	4618      	mov	r0, r3
 80009b4:	f003 f916 	bl	8003be4 <memset>
  RCC_ClkInitTypeDef RCC_ClkInitStruct = {0};
 80009b8:	f107 0308 	add.w	r3, r7, #8
 80009bc:	2200      	movs	r2, #0
 80009be:	601a      	str	r2, [r3, #0]
 80009c0:	605a      	str	r2, [r3, #4]
 80009c2:	609a      	str	r2, [r3, #8]
 80009c4:	60da      	str	r2, [r3, #12]
 80009c6:	611a      	str	r2, [r3, #16]

  /** Configure the main internal regulator output voltage
  */
  __HAL_RCC_PWR_CLK_ENABLE();
 80009c8:	4b22      	ldr	r3, [pc, #136]	; (8000a54 <SystemClock_Config+0xb0>)
 80009ca:	6c1b      	ldr	r3, [r3, #64]	; 0x40
 80009cc:	4a21      	ldr	r2, [pc, #132]	; (8000a54 <SystemClock_Config+0xb0>)
 80009ce:	f043 5380 	orr.w	r3, r3, #268435456	; 0x10000000
 80009d2:	6413      	str	r3, [r2, #64]	; 0x40
 80009d4:	4b1f      	ldr	r3, [pc, #124]	; (8000a54 <SystemClock_Config+0xb0>)
 80009d6:	6c1b      	ldr	r3, [r3, #64]	; 0x40
 80009d8:	f003 5380 	and.w	r3, r3, #268435456	; 0x10000000
 80009dc:	607b      	str	r3, [r7, #4]
 80009de:	687b      	ldr	r3, [r7, #4]
  __HAL_PWR_VOLTAGESCALING_CONFIG(PWR_REGULATOR_VOLTAGE_SCALE3);
 80009e0:	4b1d      	ldr	r3, [pc, #116]	; (8000a58 <SystemClock_Config+0xb4>)
 80009e2:	681b      	ldr	r3, [r3, #0]
 80009e4:	f423 4340 	bic.w	r3, r3, #49152	; 0xc000
 80009e8:	4a1b      	ldr	r2, [pc, #108]	; (8000a58 <SystemClock_Config+0xb4>)
 80009ea:	f443 4380 	orr.w	r3, r3, #16384	; 0x4000
 80009ee:	6013      	str	r3, [r2, #0]
 80009f0:	4b19      	ldr	r3, [pc, #100]	; (8000a58 <SystemClock_Config+0xb4>)
 80009f2:	681b      	ldr	r3, [r3, #0]
 80009f4:	f403 4340 	and.w	r3, r3, #49152	; 0xc000
 80009f8:	603b      	str	r3, [r7, #0]
 80009fa:	683b      	ldr	r3, [r7, #0]

  /** Initializes the RCC Oscillators according to the specified parameters
  * in the RCC_OscInitTypeDef structure.
  */
  RCC_OscInitStruct.OscillatorType = RCC_OSCILLATORTYPE_HSI;
 80009fc:	2302      	movs	r3, #2
 80009fe:	61fb      	str	r3, [r7, #28]
  RCC_OscInitStruct.HSIState = RCC_HSI_ON;
 8000a00:	2301      	movs	r3, #1
 8000a02:	62bb      	str	r3, [r7, #40]	; 0x28
  RCC_OscInitStruct.HSICalibrationValue = RCC_HSICALIBRATION_DEFAULT;
 8000a04:	2310      	movs	r3, #16
 8000a06:	62fb      	str	r3, [r7, #44]	; 0x2c
  RCC_OscInitStruct.PLL.PLLState = RCC_PLL_NONE;
 8000a08:	2300      	movs	r3, #0
 8000a0a:	637b      	str	r3, [r7, #52]	; 0x34
  if (HAL_RCC_OscConfig(&RCC_OscInitStruct) != HAL_OK)
 8000a0c:	f107 031c 	add.w	r3, r7, #28
 8000a10:	4618      	mov	r0, r3
 8000a12:	f001 fad7 	bl	8001fc4 <HAL_RCC_OscConfig>
 8000a16:	4603      	mov	r3, r0
 8000a18:	2b00      	cmp	r3, #0
 8000a1a:	d001      	beq.n	8000a20 <SystemClock_Config+0x7c>
  {
    Error_Handler();
 8000a1c:	f000 f9b6 	bl	8000d8c <Error_Handler>
  }

  /** Initializes the CPU, AHB and APB buses clocks
  */
  RCC_ClkInitStruct.ClockType = RCC_CLOCKTYPE_HCLK|RCC_CLOCKTYPE_SYSCLK
 8000a20:	230f      	movs	r3, #15
 8000a22:	60bb      	str	r3, [r7, #8]
                              |RCC_CLOCKTYPE_PCLK1|RCC_CLOCKTYPE_PCLK2;
  RCC_ClkInitStruct.SYSCLKSource = RCC_SYSCLKSOURCE_HSI;
 8000a24:	2300      	movs	r3, #0
 8000a26:	60fb      	str	r3, [r7, #12]
  RCC_ClkInitStruct.AHBCLKDivider = RCC_SYSCLK_DIV1;
 8000a28:	2300      	movs	r3, #0
 8000a2a:	613b      	str	r3, [r7, #16]
  RCC_ClkInitStruct.APB1CLKDivider = RCC_HCLK_DIV2;
 8000a2c:	f44f 5380 	mov.w	r3, #4096	; 0x1000
 8000a30:	617b      	str	r3, [r7, #20]
  RCC_ClkInitStruct.APB2CLKDivider = RCC_HCLK_DIV1;
 8000a32:	2300      	movs	r3, #0
 8000a34:	61bb      	str	r3, [r7, #24]

  if (HAL_RCC_ClockConfig(&RCC_ClkInitStruct, FLASH_LATENCY_0) != HAL_OK)
 8000a36:	f107 0308 	add.w	r3, r7, #8
 8000a3a:	2100      	movs	r1, #0
 8000a3c:	4618      	mov	r0, r3
 8000a3e:	f001 fd6f 	bl	8002520 <HAL_RCC_ClockConfig>
 8000a42:	4603      	mov	r3, r0
 8000a44:	2b00      	cmp	r3, #0
 8000a46:	d001      	beq.n	8000a4c <SystemClock_Config+0xa8>
  {
    Error_Handler();
 8000a48:	f000 f9a0 	bl	8000d8c <Error_Handler>
  }
}
 8000a4c:	bf00      	nop
 8000a4e:	3750      	adds	r7, #80	; 0x50
 8000a50:	46bd      	mov	sp, r7
 8000a52:	bd80      	pop	{r7, pc}
 8000a54:	40023800 	.word	0x40023800
 8000a58:	40007000 	.word	0x40007000

08000a5c <MX_ADC1_Init>:
  * @brief ADC1 Initialization Function
  * @param None
  * @retval None
  */
static void MX_ADC1_Init(void)
{
 8000a5c:	b580      	push	{r7, lr}
 8000a5e:	b084      	sub	sp, #16
 8000a60:	af00      	add	r7, sp, #0

  /* USER CODE BEGIN ADC1_Init 0 */

  /* USER CODE END ADC1_Init 0 */

  ADC_ChannelConfTypeDef sConfig = {0};
 8000a62:	463b      	mov	r3, r7
 8000a64:	2200      	movs	r2, #0
 8000a66:	601a      	str	r2, [r3, #0]
 8000a68:	605a      	str	r2, [r3, #4]
 8000a6a:	609a      	str	r2, [r3, #8]
 8000a6c:	60da      	str	r2, [r3, #12]

  /* USER CODE END ADC1_Init 1 */

  /** Configure the global features of the ADC (Clock, Resolution, Data Alignment and number of conversion)
  */
  hadc1.Instance = ADC1;
 8000a6e:	4b21      	ldr	r3, [pc, #132]	; (8000af4 <MX_ADC1_Init+0x98>)
 8000a70:	4a21      	ldr	r2, [pc, #132]	; (8000af8 <MX_ADC1_Init+0x9c>)
 8000a72:	601a      	str	r2, [r3, #0]
  hadc1.Init.ClockPrescaler = ADC_CLOCK_SYNC_PCLK_DIV2;
 8000a74:	4b1f      	ldr	r3, [pc, #124]	; (8000af4 <MX_ADC1_Init+0x98>)
 8000a76:	2200      	movs	r2, #0
 8000a78:	605a      	str	r2, [r3, #4]
  hadc1.Init.Resolution = ADC_RESOLUTION_12B;
 8000a7a:	4b1e      	ldr	r3, [pc, #120]	; (8000af4 <MX_ADC1_Init+0x98>)
 8000a7c:	2200      	movs	r2, #0
 8000a7e:	609a      	str	r2, [r3, #8]
  hadc1.Init.ScanConvMode = ADC_SCAN_DISABLE;
 8000a80:	4b1c      	ldr	r3, [pc, #112]	; (8000af4 <MX_ADC1_Init+0x98>)
 8000a82:	2200      	movs	r2, #0
 8000a84:	611a      	str	r2, [r3, #16]
  hadc1.Init.ContinuousConvMode = ENABLE;
 8000a86:	4b1b      	ldr	r3, [pc, #108]	; (8000af4 <MX_ADC1_Init+0x98>)
 8000a88:	2201      	movs	r2, #1
 8000a8a:	619a      	str	r2, [r3, #24]
  hadc1.Init.DiscontinuousConvMode = DISABLE;
 8000a8c:	4b19      	ldr	r3, [pc, #100]	; (8000af4 <MX_ADC1_Init+0x98>)
 8000a8e:	2200      	movs	r2, #0
 8000a90:	f883 2020 	strb.w	r2, [r3, #32]
  hadc1.Init.ExternalTrigConvEdge = ADC_EXTERNALTRIGCONVEDGE_NONE;
 8000a94:	4b17      	ldr	r3, [pc, #92]	; (8000af4 <MX_ADC1_Init+0x98>)
 8000a96:	2200      	movs	r2, #0
 8000a98:	62da      	str	r2, [r3, #44]	; 0x2c
  hadc1.Init.ExternalTrigConv = ADC_SOFTWARE_START;
 8000a9a:	4b16      	ldr	r3, [pc, #88]	; (8000af4 <MX_ADC1_Init+0x98>)
 8000a9c:	4a17      	ldr	r2, [pc, #92]	; (8000afc <MX_ADC1_Init+0xa0>)
 8000a9e:	629a      	str	r2, [r3, #40]	; 0x28
  hadc1.Init.DataAlign = ADC_DATAALIGN_RIGHT;
 8000aa0:	4b14      	ldr	r3, [pc, #80]	; (8000af4 <MX_ADC1_Init+0x98>)
 8000aa2:	2200      	movs	r2, #0
 8000aa4:	60da      	str	r2, [r3, #12]
  hadc1.Init.NbrOfConversion = 1;
 8000aa6:	4b13      	ldr	r3, [pc, #76]	; (8000af4 <MX_ADC1_Init+0x98>)
 8000aa8:	2201      	movs	r2, #1
 8000aaa:	61da      	str	r2, [r3, #28]
  hadc1.Init.DMAContinuousRequests = DISABLE;
 8000aac:	4b11      	ldr	r3, [pc, #68]	; (8000af4 <MX_ADC1_Init+0x98>)
 8000aae:	2200      	movs	r2, #0
 8000ab0:	f883 2030 	strb.w	r2, [r3, #48]	; 0x30
  hadc1.Init.EOCSelection = ADC_EOC_SEQ_CONV;
 8000ab4:	4b0f      	ldr	r3, [pc, #60]	; (8000af4 <MX_ADC1_Init+0x98>)
 8000ab6:	2200      	movs	r2, #0
 8000ab8:	615a      	str	r2, [r3, #20]
  if (HAL_ADC_Init(&hadc1) != HAL_OK)
 8000aba:	480e      	ldr	r0, [pc, #56]	; (8000af4 <MX_ADC1_Init+0x98>)
 8000abc:	f000 fbdc 	bl	8001278 <HAL_ADC_Init>
 8000ac0:	4603      	mov	r3, r0
 8000ac2:	2b00      	cmp	r3, #0
 8000ac4:	d001      	beq.n	8000aca <MX_ADC1_Init+0x6e>
  {
    Error_Handler();
 8000ac6:	f000 f961 	bl	8000d8c <Error_Handler>
  }

  /** Configure for the selected ADC regular channel its corresponding rank in the sequencer and its sample time.
  */
  sConfig.Channel = ADC_CHANNEL_0;
 8000aca:	2300      	movs	r3, #0
 8000acc:	603b      	str	r3, [r7, #0]
  sConfig.Rank = ADC_REGULAR_RANK_1;
 8000ace:	2301      	movs	r3, #1
 8000ad0:	607b      	str	r3, [r7, #4]
  sConfig.SamplingTime = ADC_SAMPLETIME_3CYCLES;
 8000ad2:	2300      	movs	r3, #0
 8000ad4:	60bb      	str	r3, [r7, #8]
  if (HAL_ADC_ConfigChannel(&hadc1, &sConfig) != HAL_OK)
 8000ad6:	463b      	mov	r3, r7
 8000ad8:	4619      	mov	r1, r3
 8000ada:	4806      	ldr	r0, [pc, #24]	; (8000af4 <MX_ADC1_Init+0x98>)
 8000adc:	f000 fd76 	bl	80015cc <HAL_ADC_ConfigChannel>
 8000ae0:	4603      	mov	r3, r0
 8000ae2:	2b00      	cmp	r3, #0
 8000ae4:	d001      	beq.n	8000aea <MX_ADC1_Init+0x8e>
  {
    Error_Handler();
 8000ae6:	f000 f951 	bl	8000d8c <Error_Handler>
  }
  /* USER CODE BEGIN ADC1_Init 2 */

  /* USER CODE END ADC1_Init 2 */

}
 8000aea:	bf00      	nop
 8000aec:	3710      	adds	r7, #16
 8000aee:	46bd      	mov	sp, r7
 8000af0:	bd80      	pop	{r7, pc}
 8000af2:	bf00      	nop
 8000af4:	200001f8 	.word	0x200001f8
 8000af8:	40012000 	.word	0x40012000
 8000afc:	0f000001 	.word	0x0f000001

08000b00 <MX_USART3_UART_Init>:
  * @brief USART3 Initialization Function
  * @param None
  * @retval None
  */
static void MX_USART3_UART_Init(void)
{
 8000b00:	b580      	push	{r7, lr}
 8000b02:	af00      	add	r7, sp, #0
  /* USER CODE END USART3_Init 0 */

  /* USER CODE BEGIN USART3_Init 1 */

  /* USER CODE END USART3_Init 1 */
  huart3.Instance = USART3;
 8000b04:	4b14      	ldr	r3, [pc, #80]	; (8000b58 <MX_USART3_UART_Init+0x58>)
 8000b06:	4a15      	ldr	r2, [pc, #84]	; (8000b5c <MX_USART3_UART_Init+0x5c>)
 8000b08:	601a      	str	r2, [r3, #0]
  huart3.Init.BaudRate = 115200;
 8000b0a:	4b13      	ldr	r3, [pc, #76]	; (8000b58 <MX_USART3_UART_Init+0x58>)
 8000b0c:	f44f 32e1 	mov.w	r2, #115200	; 0x1c200
 8000b10:	605a      	str	r2, [r3, #4]
  huart3.Init.WordLength = UART_WORDLENGTH_8B;
 8000b12:	4b11      	ldr	r3, [pc, #68]	; (8000b58 <MX_USART3_UART_Init+0x58>)
 8000b14:	2200      	movs	r2, #0
 8000b16:	609a      	str	r2, [r3, #8]
  huart3.Init.StopBits = UART_STOPBITS_1;
 8000b18:	4b0f      	ldr	r3, [pc, #60]	; (8000b58 <MX_USART3_UART_Init+0x58>)
 8000b1a:	2200      	movs	r2, #0
 8000b1c:	60da      	str	r2, [r3, #12]
  huart3.Init.Parity = UART_PARITY_NONE;
 8000b1e:	4b0e      	ldr	r3, [pc, #56]	; (8000b58 <MX_USART3_UART_Init+0x58>)
 8000b20:	2200      	movs	r2, #0
 8000b22:	611a      	str	r2, [r3, #16]
  huart3.Init.Mode = UART_MODE_TX_RX;
 8000b24:	4b0c      	ldr	r3, [pc, #48]	; (8000b58 <MX_USART3_UART_Init+0x58>)
 8000b26:	220c      	movs	r2, #12
 8000b28:	615a      	str	r2, [r3, #20]
  huart3.Init.HwFlowCtl = UART_HWCONTROL_NONE;
 8000b2a:	4b0b      	ldr	r3, [pc, #44]	; (8000b58 <MX_USART3_UART_Init+0x58>)
 8000b2c:	2200      	movs	r2, #0
 8000b2e:	619a      	str	r2, [r3, #24]
  huart3.Init.OverSampling = UART_OVERSAMPLING_16;
 8000b30:	4b09      	ldr	r3, [pc, #36]	; (8000b58 <MX_USART3_UART_Init+0x58>)
 8000b32:	2200      	movs	r2, #0
 8000b34:	61da      	str	r2, [r3, #28]
  huart3.Init.OneBitSampling = UART_ONE_BIT_SAMPLE_DISABLE;
 8000b36:	4b08      	ldr	r3, [pc, #32]	; (8000b58 <MX_USART3_UART_Init+0x58>)
 8000b38:	2200      	movs	r2, #0
 8000b3a:	621a      	str	r2, [r3, #32]
  huart3.AdvancedInit.AdvFeatureInit = UART_ADVFEATURE_NO_INIT;
 8000b3c:	4b06      	ldr	r3, [pc, #24]	; (8000b58 <MX_USART3_UART_Init+0x58>)
 8000b3e:	2200      	movs	r2, #0
 8000b40:	625a      	str	r2, [r3, #36]	; 0x24
  if (HAL_UART_Init(&huart3) != HAL_OK)
 8000b42:	4805      	ldr	r0, [pc, #20]	; (8000b58 <MX_USART3_UART_Init+0x58>)
 8000b44:	f002 fb38 	bl	80031b8 <HAL_UART_Init>
 8000b48:	4603      	mov	r3, r0
 8000b4a:	2b00      	cmp	r3, #0
 8000b4c:	d001      	beq.n	8000b52 <MX_USART3_UART_Init+0x52>
  {
    Error_Handler();
 8000b4e:	f000 f91d 	bl	8000d8c <Error_Handler>
  }
  /* USER CODE BEGIN USART3_Init 2 */

  /* USER CODE END USART3_Init 2 */

}
 8000b52:	bf00      	nop
 8000b54:	bd80      	pop	{r7, pc}
 8000b56:	bf00      	nop
 8000b58:	20000240 	.word	0x20000240
 8000b5c:	40004800 	.word	0x40004800

08000b60 <MX_GPIO_Init>:
  * @brief GPIO Initialization Function
  * @param None
  * @retval None
  */
static void MX_GPIO_Init(void)
{
 8000b60:	b580      	push	{r7, lr}
 8000b62:	b08c      	sub	sp, #48	; 0x30
 8000b64:	af00      	add	r7, sp, #0
  GPIO_InitTypeDef GPIO_InitStruct = {0};
 8000b66:	f107 031c 	add.w	r3, r7, #28
 8000b6a:	2200      	movs	r2, #0
 8000b6c:	601a      	str	r2, [r3, #0]
 8000b6e:	605a      	str	r2, [r3, #4]
 8000b70:	609a      	str	r2, [r3, #8]
 8000b72:	60da      	str	r2, [r3, #12]
 8000b74:	611a      	str	r2, [r3, #16]

  /* GPIO Ports Clock Enable */
  __HAL_RCC_GPIOC_CLK_ENABLE();
 8000b76:	4b80      	ldr	r3, [pc, #512]	; (8000d78 <MX_GPIO_Init+0x218>)
 8000b78:	6b1b      	ldr	r3, [r3, #48]	; 0x30
 8000b7a:	4a7f      	ldr	r2, [pc, #508]	; (8000d78 <MX_GPIO_Init+0x218>)
 8000b7c:	f043 0304 	orr.w	r3, r3, #4
 8000b80:	6313      	str	r3, [r2, #48]	; 0x30
 8000b82:	4b7d      	ldr	r3, [pc, #500]	; (8000d78 <MX_GPIO_Init+0x218>)
 8000b84:	6b1b      	ldr	r3, [r3, #48]	; 0x30
 8000b86:	f003 0304 	and.w	r3, r3, #4
 8000b8a:	61bb      	str	r3, [r7, #24]
 8000b8c:	69bb      	ldr	r3, [r7, #24]
  __HAL_RCC_GPIOH_CLK_ENABLE();
 8000b8e:	4b7a      	ldr	r3, [pc, #488]	; (8000d78 <MX_GPIO_Init+0x218>)
 8000b90:	6b1b      	ldr	r3, [r3, #48]	; 0x30
 8000b92:	4a79      	ldr	r2, [pc, #484]	; (8000d78 <MX_GPIO_Init+0x218>)
 8000b94:	f043 0380 	orr.w	r3, r3, #128	; 0x80
 8000b98:	6313      	str	r3, [r2, #48]	; 0x30
 8000b9a:	4b77      	ldr	r3, [pc, #476]	; (8000d78 <MX_GPIO_Init+0x218>)
 8000b9c:	6b1b      	ldr	r3, [r3, #48]	; 0x30
 8000b9e:	f003 0380 	and.w	r3, r3, #128	; 0x80
 8000ba2:	617b      	str	r3, [r7, #20]
 8000ba4:	697b      	ldr	r3, [r7, #20]
  __HAL_RCC_GPIOA_CLK_ENABLE();
 8000ba6:	4b74      	ldr	r3, [pc, #464]	; (8000d78 <MX_GPIO_Init+0x218>)
 8000ba8:	6b1b      	ldr	r3, [r3, #48]	; 0x30
 8000baa:	4a73      	ldr	r2, [pc, #460]	; (8000d78 <MX_GPIO_Init+0x218>)
 8000bac:	f043 0301 	orr.w	r3, r3, #1
 8000bb0:	6313      	str	r3, [r2, #48]	; 0x30
 8000bb2:	4b71      	ldr	r3, [pc, #452]	; (8000d78 <MX_GPIO_Init+0x218>)
 8000bb4:	6b1b      	ldr	r3, [r3, #48]	; 0x30
 8000bb6:	f003 0301 	and.w	r3, r3, #1
 8000bba:	613b      	str	r3, [r7, #16]
 8000bbc:	693b      	ldr	r3, [r7, #16]
  __HAL_RCC_GPIOB_CLK_ENABLE();
 8000bbe:	4b6e      	ldr	r3, [pc, #440]	; (8000d78 <MX_GPIO_Init+0x218>)
 8000bc0:	6b1b      	ldr	r3, [r3, #48]	; 0x30
 8000bc2:	4a6d      	ldr	r2, [pc, #436]	; (8000d78 <MX_GPIO_Init+0x218>)
 8000bc4:	f043 0302 	orr.w	r3, r3, #2
 8000bc8:	6313      	str	r3, [r2, #48]	; 0x30
 8000bca:	4b6b      	ldr	r3, [pc, #428]	; (8000d78 <MX_GPIO_Init+0x218>)
 8000bcc:	6b1b      	ldr	r3, [r3, #48]	; 0x30
 8000bce:	f003 0302 	and.w	r3, r3, #2
 8000bd2:	60fb      	str	r3, [r7, #12]
 8000bd4:	68fb      	ldr	r3, [r7, #12]
  __HAL_RCC_GPIOD_CLK_ENABLE();
 8000bd6:	4b68      	ldr	r3, [pc, #416]	; (8000d78 <MX_GPIO_Init+0x218>)
 8000bd8:	6b1b      	ldr	r3, [r3, #48]	; 0x30
 8000bda:	4a67      	ldr	r2, [pc, #412]	; (8000d78 <MX_GPIO_Init+0x218>)
 8000bdc:	f043 0308 	orr.w	r3, r3, #8
 8000be0:	6313      	str	r3, [r2, #48]	; 0x30
 8000be2:	4b65      	ldr	r3, [pc, #404]	; (8000d78 <MX_GPIO_Init+0x218>)
 8000be4:	6b1b      	ldr	r3, [r3, #48]	; 0x30
 8000be6:	f003 0308 	and.w	r3, r3, #8
 8000bea:	60bb      	str	r3, [r7, #8]
 8000bec:	68bb      	ldr	r3, [r7, #8]
  __HAL_RCC_GPIOG_CLK_ENABLE();
 8000bee:	4b62      	ldr	r3, [pc, #392]	; (8000d78 <MX_GPIO_Init+0x218>)
 8000bf0:	6b1b      	ldr	r3, [r3, #48]	; 0x30
 8000bf2:	4a61      	ldr	r2, [pc, #388]	; (8000d78 <MX_GPIO_Init+0x218>)
 8000bf4:	f043 0340 	orr.w	r3, r3, #64	; 0x40
 8000bf8:	6313      	str	r3, [r2, #48]	; 0x30
 8000bfa:	4b5f      	ldr	r3, [pc, #380]	; (8000d78 <MX_GPIO_Init+0x218>)
 8000bfc:	6b1b      	ldr	r3, [r3, #48]	; 0x30
 8000bfe:	f003 0340 	and.w	r3, r3, #64	; 0x40
 8000c02:	607b      	str	r3, [r7, #4]
 8000c04:	687b      	ldr	r3, [r7, #4]

  /*Configure GPIO pin Output Level */
  HAL_GPIO_WritePin(GPIOA, yellowLed_Pin|whiteLed_Pin, GPIO_PIN_RESET);
 8000c06:	2200      	movs	r2, #0
 8000c08:	2160      	movs	r1, #96	; 0x60
 8000c0a:	485c      	ldr	r0, [pc, #368]	; (8000d7c <MX_GPIO_Init+0x21c>)
 8000c0c:	f001 f9c0 	bl	8001f90 <HAL_GPIO_WritePin>

  /*Configure GPIO pin Output Level */
  HAL_GPIO_WritePin(GPIOB, LD1_Pin|LD3_Pin|LD2_Pin|redLed_Pin
 8000c10:	2200      	movs	r2, #0
 8000c12:	f244 3181 	movw	r1, #17281	; 0x4381
 8000c16:	485a      	ldr	r0, [pc, #360]	; (8000d80 <MX_GPIO_Init+0x220>)
 8000c18:	f001 f9ba 	bl	8001f90 <HAL_GPIO_WritePin>
                          |blueLed_Pin, GPIO_PIN_RESET);

  /*Configure GPIO pin Output Level */
  HAL_GPIO_WritePin(USB_PowerSwitchOn_GPIO_Port, USB_PowerSwitchOn_Pin, GPIO_PIN_RESET);
 8000c1c:	2200      	movs	r2, #0
 8000c1e:	2140      	movs	r1, #64	; 0x40
 8000c20:	4858      	ldr	r0, [pc, #352]	; (8000d84 <MX_GPIO_Init+0x224>)
 8000c22:	f001 f9b5 	bl	8001f90 <HAL_GPIO_WritePin>

  /*Configure GPIO pin : USER_Btn_Pin */
  GPIO_InitStruct.Pin = USER_Btn_Pin;
 8000c26:	f44f 5300 	mov.w	r3, #8192	; 0x2000
 8000c2a:	61fb      	str	r3, [r7, #28]
  GPIO_InitStruct.Mode = GPIO_MODE_IT_RISING;
 8000c2c:	f44f 1388 	mov.w	r3, #1114112	; 0x110000
 8000c30:	623b      	str	r3, [r7, #32]
  GPIO_InitStruct.Pull = GPIO_NOPULL;
 8000c32:	2300      	movs	r3, #0
 8000c34:	627b      	str	r3, [r7, #36]	; 0x24
  HAL_GPIO_Init(USER_Btn_GPIO_Port, &GPIO_InitStruct);
 8000c36:	f107 031c 	add.w	r3, r7, #28
 8000c3a:	4619      	mov	r1, r3
 8000c3c:	4852      	ldr	r0, [pc, #328]	; (8000d88 <MX_GPIO_Init+0x228>)
 8000c3e:	f000 fffb 	bl	8001c38 <HAL_GPIO_Init>

  /*Configure GPIO pins : RMII_MDC_Pin RMII_RXD0_Pin RMII_RXD1_Pin */
  GPIO_InitStruct.Pin = RMII_MDC_Pin|RMII_RXD0_Pin|RMII_RXD1_Pin;
 8000c42:	2332      	movs	r3, #50	; 0x32
 8000c44:	61fb      	str	r3, [r7, #28]
  GPIO_InitStruct.Mode = GPIO_MODE_AF_PP;
 8000c46:	2302      	movs	r3, #2
 8000c48:	623b      	str	r3, [r7, #32]
  GPIO_InitStruct.Pull = GPIO_NOPULL;
 8000c4a:	2300      	movs	r3, #0
 8000c4c:	627b      	str	r3, [r7, #36]	; 0x24
  GPIO_InitStruct.Speed = GPIO_SPEED_FREQ_VERY_HIGH;
 8000c4e:	2303      	movs	r3, #3
 8000c50:	62bb      	str	r3, [r7, #40]	; 0x28
  GPIO_InitStruct.Alternate = GPIO_AF11_ETH;
 8000c52:	230b      	movs	r3, #11
 8000c54:	62fb      	str	r3, [r7, #44]	; 0x2c
  HAL_GPIO_Init(GPIOC, &GPIO_InitStruct);
 8000c56:	f107 031c 	add.w	r3, r7, #28
 8000c5a:	4619      	mov	r1, r3
 8000c5c:	484a      	ldr	r0, [pc, #296]	; (8000d88 <MX_GPIO_Init+0x228>)
 8000c5e:	f000 ffeb 	bl	8001c38 <HAL_GPIO_Init>

  /*Configure GPIO pins : RMII_REF_CLK_Pin RMII_MDIO_Pin RMII_CRS_DV_Pin */
  GPIO_InitStruct.Pin = RMII_REF_CLK_Pin|RMII_MDIO_Pin|RMII_CRS_DV_Pin;
 8000c62:	2386      	movs	r3, #134	; 0x86
 8000c64:	61fb      	str	r3, [r7, #28]
  GPIO_InitStruct.Mode = GPIO_MODE_AF_PP;
 8000c66:	2302      	movs	r3, #2
 8000c68:	623b      	str	r3, [r7, #32]
  GPIO_InitStruct.Pull = GPIO_NOPULL;
 8000c6a:	2300      	movs	r3, #0
 8000c6c:	627b      	str	r3, [r7, #36]	; 0x24
  GPIO_InitStruct.Speed = GPIO_SPEED_FREQ_VERY_HIGH;
 8000c6e:	2303      	movs	r3, #3
 8000c70:	62bb      	str	r3, [r7, #40]	; 0x28
  GPIO_InitStruct.Alternate = GPIO_AF11_ETH;
 8000c72:	230b      	movs	r3, #11
 8000c74:	62fb      	str	r3, [r7, #44]	; 0x2c
  HAL_GPIO_Init(GPIOA, &GPIO_InitStruct);
 8000c76:	f107 031c 	add.w	r3, r7, #28
 8000c7a:	4619      	mov	r1, r3
 8000c7c:	483f      	ldr	r0, [pc, #252]	; (8000d7c <MX_GPIO_Init+0x21c>)
 8000c7e:	f000 ffdb 	bl	8001c38 <HAL_GPIO_Init>

  /*Configure GPIO pins : yellowLed_Pin whiteLed_Pin */
  GPIO_InitStruct.Pin = yellowLed_Pin|whiteLed_Pin;
 8000c82:	2360      	movs	r3, #96	; 0x60
 8000c84:	61fb      	str	r3, [r7, #28]
  GPIO_InitStruct.Mode = GPIO_MODE_OUTPUT_PP;
 8000c86:	2301      	movs	r3, #1
 8000c88:	623b      	str	r3, [r7, #32]
  GPIO_InitStruct.Pull = GPIO_NOPULL;
 8000c8a:	2300      	movs	r3, #0
 8000c8c:	627b      	str	r3, [r7, #36]	; 0x24
  GPIO_InitStruct.Speed = GPIO_SPEED_FREQ_LOW;
 8000c8e:	2300      	movs	r3, #0
 8000c90:	62bb      	str	r3, [r7, #40]	; 0x28
  HAL_GPIO_Init(GPIOA, &GPIO_InitStruct);
 8000c92:	f107 031c 	add.w	r3, r7, #28
 8000c96:	4619      	mov	r1, r3
 8000c98:	4838      	ldr	r0, [pc, #224]	; (8000d7c <MX_GPIO_Init+0x21c>)
 8000c9a:	f000 ffcd 	bl	8001c38 <HAL_GPIO_Init>

  /*Configure GPIO pins : LD1_Pin LD3_Pin LD2_Pin redLed_Pin
                           blueLed_Pin */
  GPIO_InitStruct.Pin = LD1_Pin|LD3_Pin|LD2_Pin|redLed_Pin
 8000c9e:	f244 3381 	movw	r3, #17281	; 0x4381
 8000ca2:	61fb      	str	r3, [r7, #28]
                          |blueLed_Pin;
  GPIO_InitStruct.Mode = GPIO_MODE_OUTPUT_PP;
 8000ca4:	2301      	movs	r3, #1
 8000ca6:	623b      	str	r3, [r7, #32]
  GPIO_InitStruct.Pull = GPIO_NOPULL;
 8000ca8:	2300      	movs	r3, #0
 8000caa:	627b      	str	r3, [r7, #36]	; 0x24
  GPIO_InitStruct.Speed = GPIO_SPEED_FREQ_LOW;
 8000cac:	2300      	movs	r3, #0
 8000cae:	62bb      	str	r3, [r7, #40]	; 0x28
  HAL_GPIO_Init(GPIOB, &GPIO_InitStruct);
 8000cb0:	f107 031c 	add.w	r3, r7, #28
 8000cb4:	4619      	mov	r1, r3
 8000cb6:	4832      	ldr	r0, [pc, #200]	; (8000d80 <MX_GPIO_Init+0x220>)
 8000cb8:	f000 ffbe 	bl	8001c38 <HAL_GPIO_Init>

  /*Configure GPIO pin : RMII_TXD1_Pin */
  GPIO_InitStruct.Pin = RMII_TXD1_Pin;
 8000cbc:	f44f 5300 	mov.w	r3, #8192	; 0x2000
 8000cc0:	61fb      	str	r3, [r7, #28]
  GPIO_InitStruct.Mode = GPIO_MODE_AF_PP;
 8000cc2:	2302      	movs	r3, #2
 8000cc4:	623b      	str	r3, [r7, #32]
  GPIO_InitStruct.Pull = GPIO_NOPULL;
 8000cc6:	2300      	movs	r3, #0
 8000cc8:	627b      	str	r3, [r7, #36]	; 0x24
  GPIO_InitStruct.Speed = GPIO_SPEED_FREQ_VERY_HIGH;
 8000cca:	2303      	movs	r3, #3
 8000ccc:	62bb      	str	r3, [r7, #40]	; 0x28
  GPIO_InitStruct.Alternate = GPIO_AF11_ETH;
 8000cce:	230b      	movs	r3, #11
 8000cd0:	62fb      	str	r3, [r7, #44]	; 0x2c
  HAL_GPIO_Init(RMII_TXD1_GPIO_Port, &GPIO_InitStruct);
 8000cd2:	f107 031c 	add.w	r3, r7, #28
 8000cd6:	4619      	mov	r1, r3
 8000cd8:	4829      	ldr	r0, [pc, #164]	; (8000d80 <MX_GPIO_Init+0x220>)
 8000cda:	f000 ffad 	bl	8001c38 <HAL_GPIO_Init>

  /*Configure GPIO pin : USB_PowerSwitchOn_Pin */
  GPIO_InitStruct.Pin = USB_PowerSwitchOn_Pin;
 8000cde:	2340      	movs	r3, #64	; 0x40
 8000ce0:	61fb      	str	r3, [r7, #28]
  GPIO_InitStruct.Mode = GPIO_MODE_OUTPUT_PP;
 8000ce2:	2301      	movs	r3, #1
 8000ce4:	623b      	str	r3, [r7, #32]
  GPIO_InitStruct.Pull = GPIO_NOPULL;
 8000ce6:	2300      	movs	r3, #0
 8000ce8:	627b      	str	r3, [r7, #36]	; 0x24
  GPIO_InitStruct.Speed = GPIO_SPEED_FREQ_LOW;
 8000cea:	2300      	movs	r3, #0
 8000cec:	62bb      	str	r3, [r7, #40]	; 0x28
  HAL_GPIO_Init(USB_PowerSwitchOn_GPIO_Port, &GPIO_InitStruct);
 8000cee:	f107 031c 	add.w	r3, r7, #28
 8000cf2:	4619      	mov	r1, r3
 8000cf4:	4823      	ldr	r0, [pc, #140]	; (8000d84 <MX_GPIO_Init+0x224>)
 8000cf6:	f000 ff9f 	bl	8001c38 <HAL_GPIO_Init>

  /*Configure GPIO pin : USB_OverCurrent_Pin */
  GPIO_InitStruct.Pin = USB_OverCurrent_Pin;
 8000cfa:	2380      	movs	r3, #128	; 0x80
 8000cfc:	61fb      	str	r3, [r7, #28]
  GPIO_InitStruct.Mode = GPIO_MODE_INPUT;
 8000cfe:	2300      	movs	r3, #0
 8000d00:	623b      	str	r3, [r7, #32]
  GPIO_InitStruct.Pull = GPIO_NOPULL;
 8000d02:	2300      	movs	r3, #0
 8000d04:	627b      	str	r3, [r7, #36]	; 0x24
  HAL_GPIO_Init(USB_OverCurrent_GPIO_Port, &GPIO_InitStruct);
 8000d06:	f107 031c 	add.w	r3, r7, #28
 8000d0a:	4619      	mov	r1, r3
 8000d0c:	481d      	ldr	r0, [pc, #116]	; (8000d84 <MX_GPIO_Init+0x224>)
 8000d0e:	f000 ff93 	bl	8001c38 <HAL_GPIO_Init>

  /*Configure GPIO pins : USB_SOF_Pin USB_ID_Pin USB_DM_Pin USB_DP_Pin */
  GPIO_InitStruct.Pin = USB_SOF_Pin|USB_ID_Pin|USB_DM_Pin|USB_DP_Pin;
 8000d12:	f44f 53e8 	mov.w	r3, #7424	; 0x1d00
 8000d16:	61fb      	str	r3, [r7, #28]
  GPIO_InitStruct.Mode = GPIO_MODE_AF_PP;
 8000d18:	2302      	movs	r3, #2
 8000d1a:	623b      	str	r3, [r7, #32]
  GPIO_InitStruct.Pull = GPIO_NOPULL;
 8000d1c:	2300      	movs	r3, #0
 8000d1e:	627b      	str	r3, [r7, #36]	; 0x24
  GPIO_InitStruct.Speed = GPIO_SPEED_FREQ_VERY_HIGH;
 8000d20:	2303      	movs	r3, #3
 8000d22:	62bb      	str	r3, [r7, #40]	; 0x28
  GPIO_InitStruct.Alternate = GPIO_AF10_OTG_FS;
 8000d24:	230a      	movs	r3, #10
 8000d26:	62fb      	str	r3, [r7, #44]	; 0x2c
  HAL_GPIO_Init(GPIOA, &GPIO_InitStruct);
 8000d28:	f107 031c 	add.w	r3, r7, #28
 8000d2c:	4619      	mov	r1, r3
 8000d2e:	4813      	ldr	r0, [pc, #76]	; (8000d7c <MX_GPIO_Init+0x21c>)
 8000d30:	f000 ff82 	bl	8001c38 <HAL_GPIO_Init>

  /*Configure GPIO pin : USB_VBUS_Pin */
  GPIO_InitStruct.Pin = USB_VBUS_Pin;
 8000d34:	f44f 7300 	mov.w	r3, #512	; 0x200
 8000d38:	61fb      	str	r3, [r7, #28]
  GPIO_InitStruct.Mode = GPIO_MODE_INPUT;
 8000d3a:	2300      	movs	r3, #0
 8000d3c:	623b      	str	r3, [r7, #32]
  GPIO_InitStruct.Pull = GPIO_NOPULL;
 8000d3e:	2300      	movs	r3, #0
 8000d40:	627b      	str	r3, [r7, #36]	; 0x24
  HAL_GPIO_Init(USB_VBUS_GPIO_Port, &GPIO_InitStruct);
 8000d42:	f107 031c 	add.w	r3, r7, #28
 8000d46:	4619      	mov	r1, r3
 8000d48:	480c      	ldr	r0, [pc, #48]	; (8000d7c <MX_GPIO_Init+0x21c>)
 8000d4a:	f000 ff75 	bl	8001c38 <HAL_GPIO_Init>

  /*Configure GPIO pins : RMII_TX_EN_Pin RMII_TXD0_Pin */
  GPIO_InitStruct.Pin = RMII_TX_EN_Pin|RMII_TXD0_Pin;
 8000d4e:	f44f 5320 	mov.w	r3, #10240	; 0x2800
 8000d52:	61fb      	str	r3, [r7, #28]
  GPIO_InitStruct.Mode = GPIO_MODE_AF_PP;
 8000d54:	2302      	movs	r3, #2
 8000d56:	623b      	str	r3, [r7, #32]
  GPIO_InitStruct.Pull = GPIO_NOPULL;
 8000d58:	2300      	movs	r3, #0
 8000d5a:	627b      	str	r3, [r7, #36]	; 0x24
  GPIO_InitStruct.Speed = GPIO_SPEED_FREQ_VERY_HIGH;
 8000d5c:	2303      	movs	r3, #3
 8000d5e:	62bb      	str	r3, [r7, #40]	; 0x28
  GPIO_InitStruct.Alternate = GPIO_AF11_ETH;
 8000d60:	230b      	movs	r3, #11
 8000d62:	62fb      	str	r3, [r7, #44]	; 0x2c
  HAL_GPIO_Init(GPIOG, &GPIO_InitStruct);
 8000d64:	f107 031c 	add.w	r3, r7, #28
 8000d68:	4619      	mov	r1, r3
 8000d6a:	4806      	ldr	r0, [pc, #24]	; (8000d84 <MX_GPIO_Init+0x224>)
 8000d6c:	f000 ff64 	bl	8001c38 <HAL_GPIO_Init>

}
 8000d70:	bf00      	nop
 8000d72:	3730      	adds	r7, #48	; 0x30
 8000d74:	46bd      	mov	sp, r7
 8000d76:	bd80      	pop	{r7, pc}
 8000d78:	40023800 	.word	0x40023800
 8000d7c:	40020000 	.word	0x40020000
 8000d80:	40020400 	.word	0x40020400
 8000d84:	40021800 	.word	0x40021800
 8000d88:	40020800 	.word	0x40020800

08000d8c <Error_Handler>:
/**
  * @brief  This function is executed in case of error occurrence.
  * @retval None
  */
void Error_Handler(void)
{
 8000d8c:	b480      	push	{r7}
 8000d8e:	af00      	add	r7, sp, #0
  \details Disables IRQ interrupts by setting the I-bit in the CPSR.
           Can only be executed in Privileged modes.
 */
__STATIC_FORCEINLINE void __disable_irq(void)
{
  __ASM volatile ("cpsid i" : : : "memory");
 8000d90:	b672      	cpsid	i
}
 8000d92:	bf00      	nop
  /* USER CODE BEGIN Error_Handler_Debug */
  /* User can add his own implementation to report the HAL error return state */
  __disable_irq();
  while (1)
 8000d94:	e7fe      	b.n	8000d94 <Error_Handler+0x8>
	...

08000d98 <HAL_MspInit>:
/* USER CODE END 0 */
/**
  * Initializes the Global MSP.
  */
void HAL_MspInit(void)
{
 8000d98:	b480      	push	{r7}
 8000d9a:	b083      	sub	sp, #12
 8000d9c:	af00      	add	r7, sp, #0
  /* USER CODE BEGIN MspInit 0 */

  /* USER CODE END MspInit 0 */

  __HAL_RCC_PWR_CLK_ENABLE();
 8000d9e:	4b0f      	ldr	r3, [pc, #60]	; (8000ddc <HAL_MspInit+0x44>)
 8000da0:	6c1b      	ldr	r3, [r3, #64]	; 0x40
 8000da2:	4a0e      	ldr	r2, [pc, #56]	; (8000ddc <HAL_MspInit+0x44>)
 8000da4:	f043 5380 	orr.w	r3, r3, #268435456	; 0x10000000
 8000da8:	6413      	str	r3, [r2, #64]	; 0x40
 8000daa:	4b0c      	ldr	r3, [pc, #48]	; (8000ddc <HAL_MspInit+0x44>)
 8000dac:	6c1b      	ldr	r3, [r3, #64]	; 0x40
 8000dae:	f003 5380 	and.w	r3, r3, #268435456	; 0x10000000
 8000db2:	607b      	str	r3, [r7, #4]
 8000db4:	687b      	ldr	r3, [r7, #4]
  __HAL_RCC_SYSCFG_CLK_ENABLE();
 8000db6:	4b09      	ldr	r3, [pc, #36]	; (8000ddc <HAL_MspInit+0x44>)
 8000db8:	6c5b      	ldr	r3, [r3, #68]	; 0x44
 8000dba:	4a08      	ldr	r2, [pc, #32]	; (8000ddc <HAL_MspInit+0x44>)
 8000dbc:	f443 4380 	orr.w	r3, r3, #16384	; 0x4000
 8000dc0:	6453      	str	r3, [r2, #68]	; 0x44
 8000dc2:	4b06      	ldr	r3, [pc, #24]	; (8000ddc <HAL_MspInit+0x44>)
 8000dc4:	6c5b      	ldr	r3, [r3, #68]	; 0x44
 8000dc6:	f403 4380 	and.w	r3, r3, #16384	; 0x4000
 8000dca:	603b      	str	r3, [r7, #0]
 8000dcc:	683b      	ldr	r3, [r7, #0]
  /* System interrupt init*/

  /* USER CODE BEGIN MspInit 1 */

  /* USER CODE END MspInit 1 */
}
 8000dce:	bf00      	nop
 8000dd0:	370c      	adds	r7, #12
 8000dd2:	46bd      	mov	sp, r7
 8000dd4:	f85d 7b04 	ldr.w	r7, [sp], #4
 8000dd8:	4770      	bx	lr
 8000dda:	bf00      	nop
 8000ddc:	40023800 	.word	0x40023800

08000de0 <HAL_ADC_MspInit>:
* This function configures the hardware resources used in this example
* @param hadc: ADC handle pointer
* @retval None
*/
void HAL_ADC_MspInit(ADC_HandleTypeDef* hadc)
{
 8000de0:	b580      	push	{r7, lr}
 8000de2:	b08a      	sub	sp, #40	; 0x28
 8000de4:	af00      	add	r7, sp, #0
 8000de6:	6078      	str	r0, [r7, #4]
  GPIO_InitTypeDef GPIO_InitStruct = {0};
 8000de8:	f107 0314 	add.w	r3, r7, #20
 8000dec:	2200      	movs	r2, #0
 8000dee:	601a      	str	r2, [r3, #0]
 8000df0:	605a      	str	r2, [r3, #4]
 8000df2:	609a      	str	r2, [r3, #8]
 8000df4:	60da      	str	r2, [r3, #12]
 8000df6:	611a      	str	r2, [r3, #16]
  if(hadc->Instance==ADC1)
 8000df8:	687b      	ldr	r3, [r7, #4]
 8000dfa:	681b      	ldr	r3, [r3, #0]
 8000dfc:	4a15      	ldr	r2, [pc, #84]	; (8000e54 <HAL_ADC_MspInit+0x74>)
 8000dfe:	4293      	cmp	r3, r2
 8000e00:	d123      	bne.n	8000e4a <HAL_ADC_MspInit+0x6a>
  {
  /* USER CODE BEGIN ADC1_MspInit 0 */

  /* USER CODE END ADC1_MspInit 0 */
    /* Peripheral clock enable */
    __HAL_RCC_ADC1_CLK_ENABLE();
 8000e02:	4b15      	ldr	r3, [pc, #84]	; (8000e58 <HAL_ADC_MspInit+0x78>)
 8000e04:	6c5b      	ldr	r3, [r3, #68]	; 0x44
 8000e06:	4a14      	ldr	r2, [pc, #80]	; (8000e58 <HAL_ADC_MspInit+0x78>)
 8000e08:	f443 7380 	orr.w	r3, r3, #256	; 0x100
 8000e0c:	6453      	str	r3, [r2, #68]	; 0x44
 8000e0e:	4b12      	ldr	r3, [pc, #72]	; (8000e58 <HAL_ADC_MspInit+0x78>)
 8000e10:	6c5b      	ldr	r3, [r3, #68]	; 0x44
 8000e12:	f403 7380 	and.w	r3, r3, #256	; 0x100
 8000e16:	613b      	str	r3, [r7, #16]
 8000e18:	693b      	ldr	r3, [r7, #16]

    __HAL_RCC_GPIOA_CLK_ENABLE();
 8000e1a:	4b0f      	ldr	r3, [pc, #60]	; (8000e58 <HAL_ADC_MspInit+0x78>)
 8000e1c:	6b1b      	ldr	r3, [r3, #48]	; 0x30
 8000e1e:	4a0e      	ldr	r2, [pc, #56]	; (8000e58 <HAL_ADC_MspInit+0x78>)
 8000e20:	f043 0301 	orr.w	r3, r3, #1
 8000e24:	6313      	str	r3, [r2, #48]	; 0x30
 8000e26:	4b0c      	ldr	r3, [pc, #48]	; (8000e58 <HAL_ADC_MspInit+0x78>)
 8000e28:	6b1b      	ldr	r3, [r3, #48]	; 0x30
 8000e2a:	f003 0301 	and.w	r3, r3, #1
 8000e2e:	60fb      	str	r3, [r7, #12]
 8000e30:	68fb      	ldr	r3, [r7, #12]
    /**ADC1 GPIO Configuration
    PA0/WKUP     ------> ADC1_IN0
    */
    GPIO_InitStruct.Pin = GPIO_PIN_0;
 8000e32:	2301      	movs	r3, #1
 8000e34:	617b      	str	r3, [r7, #20]
    GPIO_InitStruct.Mode = GPIO_MODE_ANALOG;
 8000e36:	2303      	movs	r3, #3
 8000e38:	61bb      	str	r3, [r7, #24]
    GPIO_InitStruct.Pull = GPIO_NOPULL;
 8000e3a:	2300      	movs	r3, #0
 8000e3c:	61fb      	str	r3, [r7, #28]
    HAL_GPIO_Init(GPIOA, &GPIO_InitStruct);
 8000e3e:	f107 0314 	add.w	r3, r7, #20
 8000e42:	4619      	mov	r1, r3
 8000e44:	4805      	ldr	r0, [pc, #20]	; (8000e5c <HAL_ADC_MspInit+0x7c>)
 8000e46:	f000 fef7 	bl	8001c38 <HAL_GPIO_Init>
  /* USER CODE BEGIN ADC1_MspInit 1 */

  /* USER CODE END ADC1_MspInit 1 */
  }

}
 8000e4a:	bf00      	nop
 8000e4c:	3728      	adds	r7, #40	; 0x28
 8000e4e:	46bd      	mov	sp, r7
 8000e50:	bd80      	pop	{r7, pc}
 8000e52:	bf00      	nop
 8000e54:	40012000 	.word	0x40012000
 8000e58:	40023800 	.word	0x40023800
 8000e5c:	40020000 	.word	0x40020000

08000e60 <HAL_UART_MspInit>:
* This function configures the hardware resources used in this example
* @param huart: UART handle pointer
* @retval None
*/
void HAL_UART_MspInit(UART_HandleTypeDef* huart)
{
 8000e60:	b580      	push	{r7, lr}
 8000e62:	b0ae      	sub	sp, #184	; 0xb8
 8000e64:	af00      	add	r7, sp, #0
 8000e66:	6078      	str	r0, [r7, #4]
  GPIO_InitTypeDef GPIO_InitStruct = {0};
 8000e68:	f107 03a4 	add.w	r3, r7, #164	; 0xa4
 8000e6c:	2200      	movs	r2, #0
 8000e6e:	601a      	str	r2, [r3, #0]
 8000e70:	605a      	str	r2, [r3, #4]
 8000e72:	609a      	str	r2, [r3, #8]
 8000e74:	60da      	str	r2, [r3, #12]
 8000e76:	611a      	str	r2, [r3, #16]
  RCC_PeriphCLKInitTypeDef PeriphClkInitStruct = {0};
 8000e78:	f107 0314 	add.w	r3, r7, #20
 8000e7c:	2290      	movs	r2, #144	; 0x90
 8000e7e:	2100      	movs	r1, #0
 8000e80:	4618      	mov	r0, r3
 8000e82:	f002 feaf 	bl	8003be4 <memset>
  if(huart->Instance==USART3)
 8000e86:	687b      	ldr	r3, [r7, #4]
 8000e88:	681b      	ldr	r3, [r3, #0]
 8000e8a:	4a22      	ldr	r2, [pc, #136]	; (8000f14 <HAL_UART_MspInit+0xb4>)
 8000e8c:	4293      	cmp	r3, r2
 8000e8e:	d13c      	bne.n	8000f0a <HAL_UART_MspInit+0xaa>

  /* USER CODE END USART3_MspInit 0 */

  /** Initializes the peripherals clock
  */
    PeriphClkInitStruct.PeriphClockSelection = RCC_PERIPHCLK_USART3;
 8000e90:	f44f 7380 	mov.w	r3, #256	; 0x100
 8000e94:	617b      	str	r3, [r7, #20]
    PeriphClkInitStruct.Usart3ClockSelection = RCC_USART3CLKSOURCE_PCLK1;
 8000e96:	2300      	movs	r3, #0
 8000e98:	663b      	str	r3, [r7, #96]	; 0x60
    if (HAL_RCCEx_PeriphCLKConfig(&PeriphClkInitStruct) != HAL_OK)
 8000e9a:	f107 0314 	add.w	r3, r7, #20
 8000e9e:	4618      	mov	r0, r3
 8000ea0:	f001 fd62 	bl	8002968 <HAL_RCCEx_PeriphCLKConfig>
 8000ea4:	4603      	mov	r3, r0
 8000ea6:	2b00      	cmp	r3, #0
 8000ea8:	d001      	beq.n	8000eae <HAL_UART_MspInit+0x4e>
    {
      Error_Handler();
 8000eaa:	f7ff ff6f 	bl	8000d8c <Error_Handler>
    }

    /* Peripheral clock enable */
    __HAL_RCC_USART3_CLK_ENABLE();
 8000eae:	4b1a      	ldr	r3, [pc, #104]	; (8000f18 <HAL_UART_MspInit+0xb8>)
 8000eb0:	6c1b      	ldr	r3, [r3, #64]	; 0x40
 8000eb2:	4a19      	ldr	r2, [pc, #100]	; (8000f18 <HAL_UART_MspInit+0xb8>)
 8000eb4:	f443 2380 	orr.w	r3, r3, #262144	; 0x40000
 8000eb8:	6413      	str	r3, [r2, #64]	; 0x40
 8000eba:	4b17      	ldr	r3, [pc, #92]	; (8000f18 <HAL_UART_MspInit+0xb8>)
 8000ebc:	6c1b      	ldr	r3, [r3, #64]	; 0x40
 8000ebe:	f403 2380 	and.w	r3, r3, #262144	; 0x40000
 8000ec2:	613b      	str	r3, [r7, #16]
 8000ec4:	693b      	ldr	r3, [r7, #16]

    __HAL_RCC_GPIOD_CLK_ENABLE();
 8000ec6:	4b14      	ldr	r3, [pc, #80]	; (8000f18 <HAL_UART_MspInit+0xb8>)
 8000ec8:	6b1b      	ldr	r3, [r3, #48]	; 0x30
 8000eca:	4a13      	ldr	r2, [pc, #76]	; (8000f18 <HAL_UART_MspInit+0xb8>)
 8000ecc:	f043 0308 	orr.w	r3, r3, #8
 8000ed0:	6313      	str	r3, [r2, #48]	; 0x30
 8000ed2:	4b11      	ldr	r3, [pc, #68]	; (8000f18 <HAL_UART_MspInit+0xb8>)
 8000ed4:	6b1b      	ldr	r3, [r3, #48]	; 0x30
 8000ed6:	f003 0308 	and.w	r3, r3, #8
 8000eda:	60fb      	str	r3, [r7, #12]
 8000edc:	68fb      	ldr	r3, [r7, #12]
    /**USART3 GPIO Configuration
    PD8     ------> USART3_TX
    PD9     ------> USART3_RX
    */
    GPIO_InitStruct.Pin = STLK_RX_Pin|STLK_TX_Pin;
 8000ede:	f44f 7340 	mov.w	r3, #768	; 0x300
 8000ee2:	f8c7 30a4 	str.w	r3, [r7, #164]	; 0xa4
    GPIO_InitStruct.Mode = GPIO_MODE_AF_PP;
 8000ee6:	2302      	movs	r3, #2
 8000ee8:	f8c7 30a8 	str.w	r3, [r7, #168]	; 0xa8
    GPIO_InitStruct.Pull = GPIO_NOPULL;
 8000eec:	2300      	movs	r3, #0
 8000eee:	f8c7 30ac 	str.w	r3, [r7, #172]	; 0xac
    GPIO_InitStruct.Speed = GPIO_SPEED_FREQ_VERY_HIGH;
 8000ef2:	2303      	movs	r3, #3
 8000ef4:	f8c7 30b0 	str.w	r3, [r7, #176]	; 0xb0
    GPIO_InitStruct.Alternate = GPIO_AF7_USART3;
 8000ef8:	2307      	movs	r3, #7
 8000efa:	f8c7 30b4 	str.w	r3, [r7, #180]	; 0xb4
    HAL_GPIO_Init(GPIOD, &GPIO_InitStruct);
 8000efe:	f107 03a4 	add.w	r3, r7, #164	; 0xa4
 8000f02:	4619      	mov	r1, r3
 8000f04:	4805      	ldr	r0, [pc, #20]	; (8000f1c <HAL_UART_MspInit+0xbc>)
 8000f06:	f000 fe97 	bl	8001c38 <HAL_GPIO_Init>
  /* USER CODE BEGIN USART3_MspInit 1 */

  /* USER CODE END USART3_MspInit 1 */
  }

}
 8000f0a:	bf00      	nop
 8000f0c:	37b8      	adds	r7, #184	; 0xb8
 8000f0e:	46bd      	mov	sp, r7
 8000f10:	bd80      	pop	{r7, pc}
 8000f12:	bf00      	nop
 8000f14:	40004800 	.word	0x40004800
 8000f18:	40023800 	.word	0x40023800
 8000f1c:	40020c00 	.word	0x40020c00

08000f20 <NMI_Handler>:
/******************************************************************************/
/**
  * @brief This function handles Non maskable interrupt.
  */
void NMI_Handler(void)
{
 8000f20:	b480      	push	{r7}
 8000f22:	af00      	add	r7, sp, #0
  /* USER CODE BEGIN NonMaskableInt_IRQn 0 */

  /* USER CODE END NonMaskableInt_IRQn 0 */
  /* USER CODE BEGIN NonMaskableInt_IRQn 1 */
  while (1)
 8000f24:	e7fe      	b.n	8000f24 <NMI_Handler+0x4>

08000f26 <HardFault_Handler>:

/**
  * @brief This function handles Hard fault interrupt.
  */
void HardFault_Handler(void)
{
 8000f26:	b480      	push	{r7}
 8000f28:	af00      	add	r7, sp, #0
  /* USER CODE BEGIN HardFault_IRQn 0 */

  /* USER CODE END HardFault_IRQn 0 */
  while (1)
 8000f2a:	e7fe      	b.n	8000f2a <HardFault_Handler+0x4>

08000f2c <MemManage_Handler>:

/**
  * @brief This function handles Memory management fault.
  */
void MemManage_Handler(void)
{
 8000f2c:	b480      	push	{r7}
 8000f2e:	af00      	add	r7, sp, #0
  /* USER CODE BEGIN MemoryManagement_IRQn 0 */

  /* USER CODE END MemoryManagement_IRQn 0 */
  while (1)
 8000f30:	e7fe      	b.n	8000f30 <MemManage_Handler+0x4>

08000f32 <BusFault_Handler>:

/**
  * @brief This function handles Pre-fetch fault, memory access fault.
  */
void BusFault_Handler(void)
{
 8000f32:	b480      	push	{r7}
 8000f34:	af00      	add	r7, sp, #0
  /* USER CODE BEGIN BusFault_IRQn 0 */

  /* USER CODE END BusFault_IRQn 0 */
  while (1)
 8000f36:	e7fe      	b.n	8000f36 <BusFault_Handler+0x4>

08000f38 <UsageFault_Handler>:

/**
  * @brief This function handles Undefined instruction or illegal state.
  */
void UsageFault_Handler(void)
{
 8000f38:	b480      	push	{r7}
 8000f3a:	af00      	add	r7, sp, #0
  /* USER CODE BEGIN UsageFault_IRQn 0 */

  /* USER CODE END UsageFault_IRQn 0 */
  while (1)
 8000f3c:	e7fe      	b.n	8000f3c <UsageFault_Handler+0x4>

08000f3e <SVC_Handler>:

/**
  * @brief This function handles System service call via SWI instruction.
  */
void SVC_Handler(void)
{
 8000f3e:	b480      	push	{r7}
 8000f40:	af00      	add	r7, sp, #0

  /* USER CODE END SVCall_IRQn 0 */
  /* USER CODE BEGIN SVCall_IRQn 1 */

  /* USER CODE END SVCall_IRQn 1 */
}
 8000f42:	bf00      	nop
 8000f44:	46bd      	mov	sp, r7
 8000f46:	f85d 7b04 	ldr.w	r7, [sp], #4
 8000f4a:	4770      	bx	lr

08000f4c <DebugMon_Handler>:

/**
  * @brief This function handles Debug monitor.
  */
void DebugMon_Handler(void)
{
 8000f4c:	b480      	push	{r7}
 8000f4e:	af00      	add	r7, sp, #0

  /* USER CODE END DebugMonitor_IRQn 0 */
  /* USER CODE BEGIN DebugMonitor_IRQn 1 */

  /* USER CODE END DebugMonitor_IRQn 1 */
}
 8000f50:	bf00      	nop
 8000f52:	46bd      	mov	sp, r7
 8000f54:	f85d 7b04 	ldr.w	r7, [sp], #4
 8000f58:	4770      	bx	lr

08000f5a <PendSV_Handler>:

/**
  * @brief This function handles Pendable request for system service.
  */
void PendSV_Handler(void)
{
 8000f5a:	b480      	push	{r7}
 8000f5c:	af00      	add	r7, sp, #0

  /* USER CODE END PendSV_IRQn 0 */
  /* USER CODE BEGIN PendSV_IRQn 1 */

  /* USER CODE END PendSV_IRQn 1 */
}
 8000f5e:	bf00      	nop
 8000f60:	46bd      	mov	sp, r7
 8000f62:	f85d 7b04 	ldr.w	r7, [sp], #4
 8000f66:	4770      	bx	lr

08000f68 <SysTick_Handler>:

/**
  * @brief This function handles System tick timer.
  */
void SysTick_Handler(void)
{
 8000f68:	b580      	push	{r7, lr}
 8000f6a:	af00      	add	r7, sp, #0
  /* USER CODE BEGIN SysTick_IRQn 0 */

  /* USER CODE END SysTick_IRQn 0 */
  HAL_IncTick();
 8000f6c:	f000 f940 	bl	80011f0 <HAL_IncTick>
  /* USER CODE BEGIN SysTick_IRQn 1 */

  /* USER CODE END SysTick_IRQn 1 */
}
 8000f70:	bf00      	nop
 8000f72:	bd80      	pop	{r7, pc}

08000f74 <_getpid>:
void initialise_monitor_handles()
{
}

int _getpid(void)
{
 8000f74:	b480      	push	{r7}
 8000f76:	af00      	add	r7, sp, #0
	return 1;
 8000f78:	2301      	movs	r3, #1
}
 8000f7a:	4618      	mov	r0, r3
 8000f7c:	46bd      	mov	sp, r7
 8000f7e:	f85d 7b04 	ldr.w	r7, [sp], #4
 8000f82:	4770      	bx	lr

08000f84 <_kill>:

int _kill(int pid, int sig)
{
 8000f84:	b580      	push	{r7, lr}
 8000f86:	b082      	sub	sp, #8
 8000f88:	af00      	add	r7, sp, #0
 8000f8a:	6078      	str	r0, [r7, #4]
 8000f8c:	6039      	str	r1, [r7, #0]
	errno = EINVAL;
 8000f8e:	f002 fdff 	bl	8003b90 <__errno>
 8000f92:	4603      	mov	r3, r0
 8000f94:	2216      	movs	r2, #22
 8000f96:	601a      	str	r2, [r3, #0]
	return -1;
 8000f98:	f04f 33ff 	mov.w	r3, #4294967295
}
 8000f9c:	4618      	mov	r0, r3
 8000f9e:	3708      	adds	r7, #8
 8000fa0:	46bd      	mov	sp, r7
 8000fa2:	bd80      	pop	{r7, pc}

08000fa4 <_exit>:

void _exit (int status)
{
 8000fa4:	b580      	push	{r7, lr}
 8000fa6:	b082      	sub	sp, #8
 8000fa8:	af00      	add	r7, sp, #0
 8000faa:	6078      	str	r0, [r7, #4]
	_kill(status, -1);
 8000fac:	f04f 31ff 	mov.w	r1, #4294967295
 8000fb0:	6878      	ldr	r0, [r7, #4]
 8000fb2:	f7ff ffe7 	bl	8000f84 <_kill>
	while (1) {}		/* Make sure we hang here */
 8000fb6:	e7fe      	b.n	8000fb6 <_exit+0x12>

08000fb8 <_read>:
}

__attribute__((weak)) int _read(int file, char *ptr, int len)
{
 8000fb8:	b580      	push	{r7, lr}
 8000fba:	b086      	sub	sp, #24
 8000fbc:	af00      	add	r7, sp, #0
 8000fbe:	60f8      	str	r0, [r7, #12]
 8000fc0:	60b9      	str	r1, [r7, #8]
 8000fc2:	607a      	str	r2, [r7, #4]
	int DataIdx;

	for (DataIdx = 0; DataIdx < len; DataIdx++)
 8000fc4:	2300      	movs	r3, #0
 8000fc6:	617b      	str	r3, [r7, #20]
 8000fc8:	e00a      	b.n	8000fe0 <_read+0x28>
	{
		*ptr++ = __io_getchar();
 8000fca:	f3af 8000 	nop.w
 8000fce:	4601      	mov	r1, r0
 8000fd0:	68bb      	ldr	r3, [r7, #8]
 8000fd2:	1c5a      	adds	r2, r3, #1
 8000fd4:	60ba      	str	r2, [r7, #8]
 8000fd6:	b2ca      	uxtb	r2, r1
 8000fd8:	701a      	strb	r2, [r3, #0]
	for (DataIdx = 0; DataIdx < len; DataIdx++)
 8000fda:	697b      	ldr	r3, [r7, #20]
 8000fdc:	3301      	adds	r3, #1
 8000fde:	617b      	str	r3, [r7, #20]
 8000fe0:	697a      	ldr	r2, [r7, #20]
 8000fe2:	687b      	ldr	r3, [r7, #4]
 8000fe4:	429a      	cmp	r2, r3
 8000fe6:	dbf0      	blt.n	8000fca <_read+0x12>
	}

return len;
 8000fe8:	687b      	ldr	r3, [r7, #4]
}
 8000fea:	4618      	mov	r0, r3
 8000fec:	3718      	adds	r7, #24
 8000fee:	46bd      	mov	sp, r7
 8000ff0:	bd80      	pop	{r7, pc}

08000ff2 <_write>:

__attribute__((weak)) int _write(int file, char *ptr, int len)
{
 8000ff2:	b580      	push	{r7, lr}
 8000ff4:	b086      	sub	sp, #24
 8000ff6:	af00      	add	r7, sp, #0
 8000ff8:	60f8      	str	r0, [r7, #12]
 8000ffa:	60b9      	str	r1, [r7, #8]
 8000ffc:	607a      	str	r2, [r7, #4]
	int DataIdx;

	for (DataIdx = 0; DataIdx < len; DataIdx++)
 8000ffe:	2300      	movs	r3, #0
 8001000:	617b      	str	r3, [r7, #20]
 8001002:	e009      	b.n	8001018 <_write+0x26>
	{
		__io_putchar(*ptr++);
 8001004:	68bb      	ldr	r3, [r7, #8]
 8001006:	1c5a      	adds	r2, r3, #1
 8001008:	60ba      	str	r2, [r7, #8]
 800100a:	781b      	ldrb	r3, [r3, #0]
 800100c:	4618      	mov	r0, r3
 800100e:	f3af 8000 	nop.w
	for (DataIdx = 0; DataIdx < len; DataIdx++)
 8001012:	697b      	ldr	r3, [r7, #20]
 8001014:	3301      	adds	r3, #1
 8001016:	617b      	str	r3, [r7, #20]
 8001018:	697a      	ldr	r2, [r7, #20]
 800101a:	687b      	ldr	r3, [r7, #4]
 800101c:	429a      	cmp	r2, r3
 800101e:	dbf1      	blt.n	8001004 <_write+0x12>
	}
	return len;
 8001020:	687b      	ldr	r3, [r7, #4]
}
 8001022:	4618      	mov	r0, r3
 8001024:	3718      	adds	r7, #24
 8001026:	46bd      	mov	sp, r7
 8001028:	bd80      	pop	{r7, pc}

0800102a <_close>:

int _close(int file)
{
 800102a:	b480      	push	{r7}
 800102c:	b083      	sub	sp, #12
 800102e:	af00      	add	r7, sp, #0
 8001030:	6078      	str	r0, [r7, #4]
	return -1;
 8001032:	f04f 33ff 	mov.w	r3, #4294967295
}
 8001036:	4618      	mov	r0, r3
 8001038:	370c      	adds	r7, #12
 800103a:	46bd      	mov	sp, r7
 800103c:	f85d 7b04 	ldr.w	r7, [sp], #4
 8001040:	4770      	bx	lr

08001042 <_fstat>:


int _fstat(int file, struct stat *st)
{
 8001042:	b480      	push	{r7}
 8001044:	b083      	sub	sp, #12
 8001046:	af00      	add	r7, sp, #0
 8001048:	6078      	str	r0, [r7, #4]
 800104a:	6039      	str	r1, [r7, #0]
	st->st_mode = S_IFCHR;
 800104c:	683b      	ldr	r3, [r7, #0]
 800104e:	f44f 5200 	mov.w	r2, #8192	; 0x2000
 8001052:	605a      	str	r2, [r3, #4]
	return 0;
 8001054:	2300      	movs	r3, #0
}
 8001056:	4618      	mov	r0, r3
 8001058:	370c      	adds	r7, #12
 800105a:	46bd      	mov	sp, r7
 800105c:	f85d 7b04 	ldr.w	r7, [sp], #4
 8001060:	4770      	bx	lr

08001062 <_isatty>:

int _isatty(int file)
{
 8001062:	b480      	push	{r7}
 8001064:	b083      	sub	sp, #12
 8001066:	af00      	add	r7, sp, #0
 8001068:	6078      	str	r0, [r7, #4]
	return 1;
 800106a:	2301      	movs	r3, #1
}
 800106c:	4618      	mov	r0, r3
 800106e:	370c      	adds	r7, #12
 8001070:	46bd      	mov	sp, r7
 8001072:	f85d 7b04 	ldr.w	r7, [sp], #4
 8001076:	4770      	bx	lr

08001078 <_lseek>:

int _lseek(int file, int ptr, int dir)
{
 8001078:	b480      	push	{r7}
 800107a:	b085      	sub	sp, #20
 800107c:	af00      	add	r7, sp, #0
 800107e:	60f8      	str	r0, [r7, #12]
 8001080:	60b9      	str	r1, [r7, #8]
 8001082:	607a      	str	r2, [r7, #4]
	return 0;
 8001084:	2300      	movs	r3, #0
}
 8001086:	4618      	mov	r0, r3
 8001088:	3714      	adds	r7, #20
 800108a:	46bd      	mov	sp, r7
 800108c:	f85d 7b04 	ldr.w	r7, [sp], #4
 8001090:	4770      	bx	lr
	...

08001094 <_sbrk>:
 *
 * @param incr Memory size
 * @return Pointer to allocated memory
 */
void *_sbrk(ptrdiff_t incr)
{
 8001094:	b580      	push	{r7, lr}
 8001096:	b086      	sub	sp, #24
 8001098:	af00      	add	r7, sp, #0
 800109a:	6078      	str	r0, [r7, #4]
  extern uint8_t _end; /* Symbol defined in the linker script */
  extern uint8_t _estack; /* Symbol defined in the linker script */
  extern uint32_t _Min_Stack_Size; /* Symbol defined in the linker script */
  const uint32_t stack_limit = (uint32_t)&_estack - (uint32_t)&_Min_Stack_Size;
 800109c:	4a14      	ldr	r2, [pc, #80]	; (80010f0 <_sbrk+0x5c>)
 800109e:	4b15      	ldr	r3, [pc, #84]	; (80010f4 <_sbrk+0x60>)
 80010a0:	1ad3      	subs	r3, r2, r3
 80010a2:	617b      	str	r3, [r7, #20]
  const uint8_t *max_heap = (uint8_t *)stack_limit;
 80010a4:	697b      	ldr	r3, [r7, #20]
 80010a6:	613b      	str	r3, [r7, #16]
  uint8_t *prev_heap_end;

  /* Initialize heap end at first call */
  if (NULL == __sbrk_heap_end)
 80010a8:	4b13      	ldr	r3, [pc, #76]	; (80010f8 <_sbrk+0x64>)
 80010aa:	681b      	ldr	r3, [r3, #0]
 80010ac:	2b00      	cmp	r3, #0
 80010ae:	d102      	bne.n	80010b6 <_sbrk+0x22>
  {
    __sbrk_heap_end = &_end;
 80010b0:	4b11      	ldr	r3, [pc, #68]	; (80010f8 <_sbrk+0x64>)
 80010b2:	4a12      	ldr	r2, [pc, #72]	; (80010fc <_sbrk+0x68>)
 80010b4:	601a      	str	r2, [r3, #0]
  }

  /* Protect heap from growing into the reserved MSP stack */
  if (__sbrk_heap_end + incr > max_heap)
 80010b6:	4b10      	ldr	r3, [pc, #64]	; (80010f8 <_sbrk+0x64>)
 80010b8:	681a      	ldr	r2, [r3, #0]
 80010ba:	687b      	ldr	r3, [r7, #4]
 80010bc:	4413      	add	r3, r2
 80010be:	693a      	ldr	r2, [r7, #16]
 80010c0:	429a      	cmp	r2, r3
 80010c2:	d207      	bcs.n	80010d4 <_sbrk+0x40>
  {
    errno = ENOMEM;
 80010c4:	f002 fd64 	bl	8003b90 <__errno>
 80010c8:	4603      	mov	r3, r0
 80010ca:	220c      	movs	r2, #12
 80010cc:	601a      	str	r2, [r3, #0]
    return (void *)-1;
 80010ce:	f04f 33ff 	mov.w	r3, #4294967295
 80010d2:	e009      	b.n	80010e8 <_sbrk+0x54>
  }

  prev_heap_end = __sbrk_heap_end;
 80010d4:	4b08      	ldr	r3, [pc, #32]	; (80010f8 <_sbrk+0x64>)
 80010d6:	681b      	ldr	r3, [r3, #0]
 80010d8:	60fb      	str	r3, [r7, #12]
  __sbrk_heap_end += incr;
 80010da:	4b07      	ldr	r3, [pc, #28]	; (80010f8 <_sbrk+0x64>)
 80010dc:	681a      	ldr	r2, [r3, #0]
 80010de:	687b      	ldr	r3, [r7, #4]
 80010e0:	4413      	add	r3, r2
 80010e2:	4a05      	ldr	r2, [pc, #20]	; (80010f8 <_sbrk+0x64>)
 80010e4:	6013      	str	r3, [r2, #0]

  return (void *)prev_heap_end;
 80010e6:	68fb      	ldr	r3, [r7, #12]
}
 80010e8:	4618      	mov	r0, r3
 80010ea:	3718      	adds	r7, #24
 80010ec:	46bd      	mov	sp, r7
 80010ee:	bd80      	pop	{r7, pc}
 80010f0:	20080000 	.word	0x20080000
 80010f4:	00000400 	.word	0x00000400
 80010f8:	200002c8 	.word	0x200002c8
 80010fc:	200002e0 	.word	0x200002e0

08001100 <SystemInit>:
  *         SystemFrequency variable.
  * @param  None
  * @retval None
  */
void SystemInit(void)
{
 8001100:	b480      	push	{r7}
 8001102:	af00      	add	r7, sp, #0
  /* FPU settings ------------------------------------------------------------*/
#if (__FPU_PRESENT == 1) && (__FPU_USED == 1)
  SCB->CPACR |= ((3UL << 10*2)|(3UL << 11*2));  /* set CP10 and CP11 Full Access */
 8001104:	4b06      	ldr	r3, [pc, #24]	; (8001120 <SystemInit+0x20>)
 8001106:	f8d3 3088 	ldr.w	r3, [r3, #136]	; 0x88
 800110a:	4a05      	ldr	r2, [pc, #20]	; (8001120 <SystemInit+0x20>)
 800110c:	f443 0370 	orr.w	r3, r3, #15728640	; 0xf00000
 8001110:	f8c2 3088 	str.w	r3, [r2, #136]	; 0x88

  /* Configure the Vector Table location -------------------------------------*/
#if defined(USER_VECT_TAB_ADDRESS)
  SCB->VTOR = VECT_TAB_BASE_ADDRESS | VECT_TAB_OFFSET; /* Vector Table Relocation in Internal SRAM */
#endif /* USER_VECT_TAB_ADDRESS */
}
 8001114:	bf00      	nop
 8001116:	46bd      	mov	sp, r7
 8001118:	f85d 7b04 	ldr.w	r7, [sp], #4
 800111c:	4770      	bx	lr
 800111e:	bf00      	nop
 8001120:	e000ed00 	.word	0xe000ed00

08001124 <Reset_Handler>:

    .section  .text.Reset_Handler
  .weak  Reset_Handler
  .type  Reset_Handler, %function
Reset_Handler:  
  ldr   sp, =_estack      /* set stack pointer */
 8001124:	f8df d034 	ldr.w	sp, [pc, #52]	; 800115c <LoopFillZerobss+0x12>

/* Copy the data segment initializers from flash to SRAM */  
  ldr r0, =_sdata
 8001128:	480d      	ldr	r0, [pc, #52]	; (8001160 <LoopFillZerobss+0x16>)
  ldr r1, =_edata
 800112a:	490e      	ldr	r1, [pc, #56]	; (8001164 <LoopFillZerobss+0x1a>)
  ldr r2, =_sidata
 800112c:	4a0e      	ldr	r2, [pc, #56]	; (8001168 <LoopFillZerobss+0x1e>)
  movs r3, #0
 800112e:	2300      	movs	r3, #0
  b LoopCopyDataInit
 8001130:	e002      	b.n	8001138 <LoopCopyDataInit>

08001132 <CopyDataInit>:

CopyDataInit:
  ldr r4, [r2, r3]
 8001132:	58d4      	ldr	r4, [r2, r3]
  str r4, [r0, r3]
 8001134:	50c4      	str	r4, [r0, r3]
  adds r3, r3, #4
 8001136:	3304      	adds	r3, #4

08001138 <LoopCopyDataInit>:

LoopCopyDataInit:
  adds r4, r0, r3
 8001138:	18c4      	adds	r4, r0, r3
  cmp r4, r1
 800113a:	428c      	cmp	r4, r1
  bcc CopyDataInit
 800113c:	d3f9      	bcc.n	8001132 <CopyDataInit>
  
/* Zero fill the bss segment. */
  ldr r2, =_sbss
 800113e:	4a0b      	ldr	r2, [pc, #44]	; (800116c <LoopFillZerobss+0x22>)
  ldr r4, =_ebss
 8001140:	4c0b      	ldr	r4, [pc, #44]	; (8001170 <LoopFillZerobss+0x26>)
  movs r3, #0
 8001142:	2300      	movs	r3, #0
  b LoopFillZerobss
 8001144:	e001      	b.n	800114a <LoopFillZerobss>

08001146 <FillZerobss>:

FillZerobss:
  str  r3, [r2]
 8001146:	6013      	str	r3, [r2, #0]
  adds r2, r2, #4
 8001148:	3204      	adds	r2, #4

0800114a <LoopFillZerobss>:

LoopFillZerobss:
  cmp r2, r4
 800114a:	42a2      	cmp	r2, r4
  bcc FillZerobss
 800114c:	d3fb      	bcc.n	8001146 <FillZerobss>

/* Call the clock system initialization function.*/
  bl  SystemInit   
 800114e:	f7ff ffd7 	bl	8001100 <SystemInit>
/* Call static constructors */
    bl __libc_init_array
 8001152:	f002 fd23 	bl	8003b9c <__libc_init_array>
/* Call the application's entry point.*/
  bl  main
 8001156:	f7ff fbb5 	bl	80008c4 <main>
  bx  lr    
 800115a:	4770      	bx	lr
  ldr   sp, =_estack      /* set stack pointer */
 800115c:	20080000 	.word	0x20080000
  ldr r0, =_sdata
 8001160:	20000000 	.word	0x20000000
  ldr r1, =_edata
 8001164:	200001dc 	.word	0x200001dc
  ldr r2, =_sidata
 8001168:	08006cf4 	.word	0x08006cf4
  ldr r2, =_sbss
 800116c:	200001dc 	.word	0x200001dc
  ldr r4, =_ebss
 8001170:	200002e0 	.word	0x200002e0

08001174 <ADC_IRQHandler>:
 * @retval None       
*/
    .section  .text.Default_Handler,"ax",%progbits
Default_Handler:
Infinite_Loop:
  b  Infinite_Loop
 8001174:	e7fe      	b.n	8001174 <ADC_IRQHandler>

08001176 <HAL_Init>:
  *         need to ensure that the SysTick time base is always set to 1 millisecond
  *         to have correct HAL operation.
  * @retval HAL status
  */
HAL_StatusTypeDef HAL_Init(void)
{
 8001176:	b580      	push	{r7, lr}
 8001178:	af00      	add	r7, sp, #0
#if (PREFETCH_ENABLE != 0U)
  __HAL_FLASH_PREFETCH_BUFFER_ENABLE();
#endif /* PREFETCH_ENABLE */

  /* Set Interrupt Group Priority */
  HAL_NVIC_SetPriorityGrouping(NVIC_PRIORITYGROUP_4);
 800117a:	2003      	movs	r0, #3
 800117c:	f000 fd28 	bl	8001bd0 <HAL_NVIC_SetPriorityGrouping>

  /* Use systick as time base source and configure 1ms tick (default clock after Reset is HSI) */
  HAL_InitTick(TICK_INT_PRIORITY);
 8001180:	2000      	movs	r0, #0
 8001182:	f000 f805 	bl	8001190 <HAL_InitTick>

  /* Init the low level hardware */
  HAL_MspInit();
 8001186:	f7ff fe07 	bl	8000d98 <HAL_MspInit>

  /* Return function status */
  return HAL_OK;
 800118a:	2300      	movs	r3, #0
}
 800118c:	4618      	mov	r0, r3
 800118e:	bd80      	pop	{r7, pc}

08001190 <HAL_InitTick>:
  *       implementation  in user file.
  * @param TickPriority Tick interrupt priority.
  * @retval HAL status
  */
__weak HAL_StatusTypeDef HAL_InitTick(uint32_t TickPriority)
{
 8001190:	b580      	push	{r7, lr}
 8001192:	b082      	sub	sp, #8
 8001194:	af00      	add	r7, sp, #0
 8001196:	6078      	str	r0, [r7, #4]
  /* Configure the SysTick to have interrupt in 1ms time basis*/
  if (HAL_SYSTICK_Config(SystemCoreClock / (1000U / uwTickFreq)) > 0U)
 8001198:	4b12      	ldr	r3, [pc, #72]	; (80011e4 <HAL_InitTick+0x54>)
 800119a:	681a      	ldr	r2, [r3, #0]
 800119c:	4b12      	ldr	r3, [pc, #72]	; (80011e8 <HAL_InitTick+0x58>)
 800119e:	781b      	ldrb	r3, [r3, #0]
 80011a0:	4619      	mov	r1, r3
 80011a2:	f44f 737a 	mov.w	r3, #1000	; 0x3e8
 80011a6:	fbb3 f3f1 	udiv	r3, r3, r1
 80011aa:	fbb2 f3f3 	udiv	r3, r2, r3
 80011ae:	4618      	mov	r0, r3
 80011b0:	f000 fd35 	bl	8001c1e <HAL_SYSTICK_Config>
 80011b4:	4603      	mov	r3, r0
 80011b6:	2b00      	cmp	r3, #0
 80011b8:	d001      	beq.n	80011be <HAL_InitTick+0x2e>
  {
    return HAL_ERROR;
 80011ba:	2301      	movs	r3, #1
 80011bc:	e00e      	b.n	80011dc <HAL_InitTick+0x4c>
  }

  /* Configure the SysTick IRQ priority */
  if (TickPriority < (1UL << __NVIC_PRIO_BITS))
 80011be:	687b      	ldr	r3, [r7, #4]
 80011c0:	2b0f      	cmp	r3, #15
 80011c2:	d80a      	bhi.n	80011da <HAL_InitTick+0x4a>
  {
    HAL_NVIC_SetPriority(SysTick_IRQn, TickPriority, 0U);
 80011c4:	2200      	movs	r2, #0
 80011c6:	6879      	ldr	r1, [r7, #4]
 80011c8:	f04f 30ff 	mov.w	r0, #4294967295
 80011cc:	f000 fd0b 	bl	8001be6 <HAL_NVIC_SetPriority>
    uwTickPrio = TickPriority;
 80011d0:	4a06      	ldr	r2, [pc, #24]	; (80011ec <HAL_InitTick+0x5c>)
 80011d2:	687b      	ldr	r3, [r7, #4]
 80011d4:	6013      	str	r3, [r2, #0]
  {
    return HAL_ERROR;
  }

  /* Return function status */
  return HAL_OK;
 80011d6:	2300      	movs	r3, #0
 80011d8:	e000      	b.n	80011dc <HAL_InitTick+0x4c>
    return HAL_ERROR;
 80011da:	2301      	movs	r3, #1
}
 80011dc:	4618      	mov	r0, r3
 80011de:	3708      	adds	r7, #8
 80011e0:	46bd      	mov	sp, r7
 80011e2:	bd80      	pop	{r7, pc}
 80011e4:	20000000 	.word	0x20000000
 80011e8:	20000008 	.word	0x20000008
 80011ec:	20000004 	.word	0x20000004

080011f0 <HAL_IncTick>:
 * @note This function is declared as __weak to be overwritten in case of other 
  *      implementations in user file.
  * @retval None
  */
__weak void HAL_IncTick(void)
{
 80011f0:	b480      	push	{r7}
 80011f2:	af00      	add	r7, sp, #0
  uwTick += uwTickFreq;
 80011f4:	4b06      	ldr	r3, [pc, #24]	; (8001210 <HAL_IncTick+0x20>)
 80011f6:	781b      	ldrb	r3, [r3, #0]
 80011f8:	461a      	mov	r2, r3
 80011fa:	4b06      	ldr	r3, [pc, #24]	; (8001214 <HAL_IncTick+0x24>)
 80011fc:	681b      	ldr	r3, [r3, #0]
 80011fe:	4413      	add	r3, r2
 8001200:	4a04      	ldr	r2, [pc, #16]	; (8001214 <HAL_IncTick+0x24>)
 8001202:	6013      	str	r3, [r2, #0]
}
 8001204:	bf00      	nop
 8001206:	46bd      	mov	sp, r7
 8001208:	f85d 7b04 	ldr.w	r7, [sp], #4
 800120c:	4770      	bx	lr
 800120e:	bf00      	nop
 8001210:	20000008 	.word	0x20000008
 8001214:	200002cc 	.word	0x200002cc

08001218 <HAL_GetTick>:
  * @note This function is declared as __weak to be overwritten in case of other 
  *       implementations in user file.
  * @retval tick value
  */
__weak uint32_t HAL_GetTick(void)
{
 8001218:	b480      	push	{r7}
 800121a:	af00      	add	r7, sp, #0
  return uwTick;
 800121c:	4b03      	ldr	r3, [pc, #12]	; (800122c <HAL_GetTick+0x14>)
 800121e:	681b      	ldr	r3, [r3, #0]
}
 8001220:	4618      	mov	r0, r3
 8001222:	46bd      	mov	sp, r7
 8001224:	f85d 7b04 	ldr.w	r7, [sp], #4
 8001228:	4770      	bx	lr
 800122a:	bf00      	nop
 800122c:	200002cc 	.word	0x200002cc

08001230 <HAL_Delay>:
  *       implementations in user file.
  * @param Delay  specifies the delay time length, in milliseconds.
  * @retval None
  */
__weak void HAL_Delay(uint32_t Delay)
{
 8001230:	b580      	push	{r7, lr}
 8001232:	b084      	sub	sp, #16
 8001234:	af00      	add	r7, sp, #0
 8001236:	6078      	str	r0, [r7, #4]
  uint32_t tickstart = HAL_GetTick();
 8001238:	f7ff ffee 	bl	8001218 <HAL_GetTick>
 800123c:	60b8      	str	r0, [r7, #8]
  uint32_t wait = Delay;
 800123e:	687b      	ldr	r3, [r7, #4]
 8001240:	60fb      	str	r3, [r7, #12]

  /* Add a freq to guarantee minimum wait */
  if (wait < HAL_MAX_DELAY)
 8001242:	68fb      	ldr	r3, [r7, #12]
 8001244:	f1b3 3fff 	cmp.w	r3, #4294967295
 8001248:	d005      	beq.n	8001256 <HAL_Delay+0x26>
  {
    wait += (uint32_t)(uwTickFreq);
 800124a:	4b0a      	ldr	r3, [pc, #40]	; (8001274 <HAL_Delay+0x44>)
 800124c:	781b      	ldrb	r3, [r3, #0]
 800124e:	461a      	mov	r2, r3
 8001250:	68fb      	ldr	r3, [r7, #12]
 8001252:	4413      	add	r3, r2
 8001254:	60fb      	str	r3, [r7, #12]
  }

  while ((HAL_GetTick() - tickstart) < wait)
 8001256:	bf00      	nop
 8001258:	f7ff ffde 	bl	8001218 <HAL_GetTick>
 800125c:	4602      	mov	r2, r0
 800125e:	68bb      	ldr	r3, [r7, #8]
 8001260:	1ad3      	subs	r3, r2, r3
 8001262:	68fa      	ldr	r2, [r7, #12]
 8001264:	429a      	cmp	r2, r3
 8001266:	d8f7      	bhi.n	8001258 <HAL_Delay+0x28>
  {
  }
}
 8001268:	bf00      	nop
 800126a:	bf00      	nop
 800126c:	3710      	adds	r7, #16
 800126e:	46bd      	mov	sp, r7
 8001270:	bd80      	pop	{r7, pc}
 8001272:	bf00      	nop
 8001274:	20000008 	.word	0x20000008

08001278 <HAL_ADC_Init>:
  * @param  hadc pointer to a ADC_HandleTypeDef structure that contains
  *         the configuration information for the specified ADC.  
  * @retval HAL status
  */
HAL_StatusTypeDef HAL_ADC_Init(ADC_HandleTypeDef* hadc)
{
 8001278:	b580      	push	{r7, lr}
 800127a:	b084      	sub	sp, #16
 800127c:	af00      	add	r7, sp, #0
 800127e:	6078      	str	r0, [r7, #4]
  HAL_StatusTypeDef tmp_hal_status = HAL_OK;
 8001280:	2300      	movs	r3, #0
 8001282:	73fb      	strb	r3, [r7, #15]
  
  /* Check ADC handle */
  if(hadc == NULL)
 8001284:	687b      	ldr	r3, [r7, #4]
 8001286:	2b00      	cmp	r3, #0
 8001288:	d101      	bne.n	800128e <HAL_ADC_Init+0x16>
  {
    return HAL_ERROR;
 800128a:	2301      	movs	r3, #1
 800128c:	e031      	b.n	80012f2 <HAL_ADC_Init+0x7a>
  if(hadc->Init.ExternalTrigConv != ADC_SOFTWARE_START)
  {
    assert_param(IS_ADC_EXT_TRIG_EDGE(hadc->Init.ExternalTrigConvEdge));
  }

  if(hadc->State == HAL_ADC_STATE_RESET)
 800128e:	687b      	ldr	r3, [r7, #4]
 8001290:	6c1b      	ldr	r3, [r3, #64]	; 0x40
 8001292:	2b00      	cmp	r3, #0
 8001294:	d109      	bne.n	80012aa <HAL_ADC_Init+0x32>

    /* Init the low level hardware */
    hadc->MspInitCallback(hadc);
#else
    /* Init the low level hardware */
    HAL_ADC_MspInit(hadc);
 8001296:	6878      	ldr	r0, [r7, #4]
 8001298:	f7ff fda2 	bl	8000de0 <HAL_ADC_MspInit>
#endif /* USE_HAL_ADC_REGISTER_CALLBACKS */

    /* Initialize ADC error code */
    ADC_CLEAR_ERRORCODE(hadc);
 800129c:	687b      	ldr	r3, [r7, #4]
 800129e:	2200      	movs	r2, #0
 80012a0:	645a      	str	r2, [r3, #68]	; 0x44
    
    /* Allocate lock resource and initialize it */
    hadc->Lock = HAL_UNLOCKED;
 80012a2:	687b      	ldr	r3, [r7, #4]
 80012a4:	2200      	movs	r2, #0
 80012a6:	f883 203c 	strb.w	r2, [r3, #60]	; 0x3c
  }
  
  /* Configuration of ADC parameters if previous preliminary actions are      */ 
  /* correctly completed.                                                     */
  if (HAL_IS_BIT_CLR(hadc->State, HAL_ADC_STATE_ERROR_INTERNAL))
 80012aa:	687b      	ldr	r3, [r7, #4]
 80012ac:	6c1b      	ldr	r3, [r3, #64]	; 0x40
 80012ae:	f003 0310 	and.w	r3, r3, #16
 80012b2:	2b00      	cmp	r3, #0
 80012b4:	d116      	bne.n	80012e4 <HAL_ADC_Init+0x6c>
  {
    /* Set ADC state */
    ADC_STATE_CLR_SET(hadc->State,
 80012b6:	687b      	ldr	r3, [r7, #4]
 80012b8:	6c1a      	ldr	r2, [r3, #64]	; 0x40
 80012ba:	4b10      	ldr	r3, [pc, #64]	; (80012fc <HAL_ADC_Init+0x84>)
 80012bc:	4013      	ands	r3, r2
 80012be:	f043 0202 	orr.w	r2, r3, #2
 80012c2:	687b      	ldr	r3, [r7, #4]
 80012c4:	641a      	str	r2, [r3, #64]	; 0x40
                      HAL_ADC_STATE_REG_BUSY | HAL_ADC_STATE_INJ_BUSY,
                      HAL_ADC_STATE_BUSY_INTERNAL);
    
    /* Set ADC parameters */
    ADC_Init(hadc);
 80012c6:	6878      	ldr	r0, [r7, #4]
 80012c8:	f000 fad6 	bl	8001878 <ADC_Init>
    
    /* Set ADC error code to none */
    ADC_CLEAR_ERRORCODE(hadc);
 80012cc:	687b      	ldr	r3, [r7, #4]
 80012ce:	2200      	movs	r2, #0
 80012d0:	645a      	str	r2, [r3, #68]	; 0x44
    
    /* Set the ADC state */
    ADC_STATE_CLR_SET(hadc->State,
 80012d2:	687b      	ldr	r3, [r7, #4]
 80012d4:	6c1b      	ldr	r3, [r3, #64]	; 0x40
 80012d6:	f023 0303 	bic.w	r3, r3, #3
 80012da:	f043 0201 	orr.w	r2, r3, #1
 80012de:	687b      	ldr	r3, [r7, #4]
 80012e0:	641a      	str	r2, [r3, #64]	; 0x40
 80012e2:	e001      	b.n	80012e8 <HAL_ADC_Init+0x70>
                      HAL_ADC_STATE_BUSY_INTERNAL,
                      HAL_ADC_STATE_READY);
  }
  else
  {
    tmp_hal_status = HAL_ERROR;
 80012e4:	2301      	movs	r3, #1
 80012e6:	73fb      	strb	r3, [r7, #15]
  }
  
  /* Release Lock */
  __HAL_UNLOCK(hadc);
 80012e8:	687b      	ldr	r3, [r7, #4]
 80012ea:	2200      	movs	r2, #0
 80012ec:	f883 203c 	strb.w	r2, [r3, #60]	; 0x3c

  /* Return function status */
  return tmp_hal_status;
 80012f0:	7bfb      	ldrb	r3, [r7, #15]
}
 80012f2:	4618      	mov	r0, r3
 80012f4:	3710      	adds	r7, #16
 80012f6:	46bd      	mov	sp, r7
 80012f8:	bd80      	pop	{r7, pc}
 80012fa:	bf00      	nop
 80012fc:	ffffeefd 	.word	0xffffeefd

08001300 <HAL_ADC_Start>:
  * @param  hadc pointer to a ADC_HandleTypeDef structure that contains
  *         the configuration information for the specified ADC.
  * @retval HAL status
  */
HAL_StatusTypeDef HAL_ADC_Start(ADC_HandleTypeDef* hadc)
{
 8001300:	b480      	push	{r7}
 8001302:	b085      	sub	sp, #20
 8001304:	af00      	add	r7, sp, #0
 8001306:	6078      	str	r0, [r7, #4]
  __IO uint32_t counter = 0;
 8001308:	2300      	movs	r3, #0
 800130a:	60fb      	str	r3, [r7, #12]
  /* Check the parameters */
  assert_param(IS_FUNCTIONAL_STATE(hadc->Init.ContinuousConvMode));
  assert_param(IS_ADC_EXT_TRIG_EDGE(hadc->Init.ExternalTrigConvEdge)); 
  
  /* Process locked */
  __HAL_LOCK(hadc);
 800130c:	687b      	ldr	r3, [r7, #4]
 800130e:	f893 303c 	ldrb.w	r3, [r3, #60]	; 0x3c
 8001312:	2b01      	cmp	r3, #1
 8001314:	d101      	bne.n	800131a <HAL_ADC_Start+0x1a>
 8001316:	2302      	movs	r3, #2
 8001318:	e0ad      	b.n	8001476 <HAL_ADC_Start+0x176>
 800131a:	687b      	ldr	r3, [r7, #4]
 800131c:	2201      	movs	r2, #1
 800131e:	f883 203c 	strb.w	r2, [r3, #60]	; 0x3c
  
  /* Enable the ADC peripheral */
  /* Check if ADC peripheral is disabled in order to enable it and wait during 
  Tstab time the ADC's stabilization */
  if((hadc->Instance->CR2 & ADC_CR2_ADON) != ADC_CR2_ADON)
 8001322:	687b      	ldr	r3, [r7, #4]
 8001324:	681b      	ldr	r3, [r3, #0]
 8001326:	689b      	ldr	r3, [r3, #8]
 8001328:	f003 0301 	and.w	r3, r3, #1
 800132c:	2b01      	cmp	r3, #1
 800132e:	d018      	beq.n	8001362 <HAL_ADC_Start+0x62>
  {  
    /* Enable the Peripheral */
    __HAL_ADC_ENABLE(hadc);
 8001330:	687b      	ldr	r3, [r7, #4]
 8001332:	681b      	ldr	r3, [r3, #0]
 8001334:	689a      	ldr	r2, [r3, #8]
 8001336:	687b      	ldr	r3, [r7, #4]
 8001338:	681b      	ldr	r3, [r3, #0]
 800133a:	f042 0201 	orr.w	r2, r2, #1
 800133e:	609a      	str	r2, [r3, #8]
    
    /* Delay for ADC stabilization time */
    /* Compute number of CPU cycles to wait for */
    counter = (ADC_STAB_DELAY_US * (SystemCoreClock / 1000000));
 8001340:	4b50      	ldr	r3, [pc, #320]	; (8001484 <HAL_ADC_Start+0x184>)
 8001342:	681b      	ldr	r3, [r3, #0]
 8001344:	4a50      	ldr	r2, [pc, #320]	; (8001488 <HAL_ADC_Start+0x188>)
 8001346:	fba2 2303 	umull	r2, r3, r2, r3
 800134a:	0c9a      	lsrs	r2, r3, #18
 800134c:	4613      	mov	r3, r2
 800134e:	005b      	lsls	r3, r3, #1
 8001350:	4413      	add	r3, r2
 8001352:	60fb      	str	r3, [r7, #12]
    while(counter != 0)
 8001354:	e002      	b.n	800135c <HAL_ADC_Start+0x5c>
    {
      counter--;
 8001356:	68fb      	ldr	r3, [r7, #12]
 8001358:	3b01      	subs	r3, #1
 800135a:	60fb      	str	r3, [r7, #12]
    while(counter != 0)
 800135c:	68fb      	ldr	r3, [r7, #12]
 800135e:	2b00      	cmp	r3, #0
 8001360:	d1f9      	bne.n	8001356 <HAL_ADC_Start+0x56>
    }
  }
  
  /* Start conversion if ADC is effectively enabled */
  if(HAL_IS_BIT_SET(hadc->Instance->CR2, ADC_CR2_ADON))
 8001362:	687b      	ldr	r3, [r7, #4]
 8001364:	681b      	ldr	r3, [r3, #0]
 8001366:	689b      	ldr	r3, [r3, #8]
 8001368:	f003 0301 	and.w	r3, r3, #1
 800136c:	2b01      	cmp	r3, #1
 800136e:	d175      	bne.n	800145c <HAL_ADC_Start+0x15c>
  {
    /* Set ADC state                                                          */
    /* - Clear state bitfield related to regular group conversion results     */
    /* - Set state bitfield related to regular group operation                */
    ADC_STATE_CLR_SET(hadc->State,
 8001370:	687b      	ldr	r3, [r7, #4]
 8001372:	6c1a      	ldr	r2, [r3, #64]	; 0x40
 8001374:	4b45      	ldr	r3, [pc, #276]	; (800148c <HAL_ADC_Start+0x18c>)
 8001376:	4013      	ands	r3, r2
 8001378:	f443 7280 	orr.w	r2, r3, #256	; 0x100
 800137c:	687b      	ldr	r3, [r7, #4]
 800137e:	641a      	str	r2, [r3, #64]	; 0x40
                      HAL_ADC_STATE_READY | HAL_ADC_STATE_REG_EOC | HAL_ADC_STATE_REG_OVR,
                      HAL_ADC_STATE_REG_BUSY);
    
    /* If conversions on group regular are also triggering group injected,    */
    /* update ADC state.                                                      */
    if (READ_BIT(hadc->Instance->CR1, ADC_CR1_JAUTO) != RESET)
 8001380:	687b      	ldr	r3, [r7, #4]
 8001382:	681b      	ldr	r3, [r3, #0]
 8001384:	685b      	ldr	r3, [r3, #4]
 8001386:	f403 6380 	and.w	r3, r3, #1024	; 0x400
 800138a:	2b00      	cmp	r3, #0
 800138c:	d007      	beq.n	800139e <HAL_ADC_Start+0x9e>
    {
      ADC_STATE_CLR_SET(hadc->State, HAL_ADC_STATE_INJ_EOC, HAL_ADC_STATE_INJ_BUSY);  
 800138e:	687b      	ldr	r3, [r7, #4]
 8001390:	6c1b      	ldr	r3, [r3, #64]	; 0x40
 8001392:	f423 5340 	bic.w	r3, r3, #12288	; 0x3000
 8001396:	f443 5280 	orr.w	r2, r3, #4096	; 0x1000
 800139a:	687b      	ldr	r3, [r7, #4]
 800139c:	641a      	str	r2, [r3, #64]	; 0x40
    }
    
    /* State machine update: Check if an injected conversion is ongoing */
    if (HAL_IS_BIT_SET(hadc->State, HAL_ADC_STATE_INJ_BUSY))
 800139e:	687b      	ldr	r3, [r7, #4]
 80013a0:	6c1b      	ldr	r3, [r3, #64]	; 0x40
 80013a2:	f403 5380 	and.w	r3, r3, #4096	; 0x1000
 80013a6:	f5b3 5f80 	cmp.w	r3, #4096	; 0x1000
 80013aa:	d106      	bne.n	80013ba <HAL_ADC_Start+0xba>
    {
      /* Reset ADC error code fields related to conversions on group regular */
      CLEAR_BIT(hadc->ErrorCode, (HAL_ADC_ERROR_OVR | HAL_ADC_ERROR_DMA));         
 80013ac:	687b      	ldr	r3, [r7, #4]
 80013ae:	6c5b      	ldr	r3, [r3, #68]	; 0x44
 80013b0:	f023 0206 	bic.w	r2, r3, #6
 80013b4:	687b      	ldr	r3, [r7, #4]
 80013b6:	645a      	str	r2, [r3, #68]	; 0x44
 80013b8:	e002      	b.n	80013c0 <HAL_ADC_Start+0xc0>
    }
    else
    {
      /* Reset ADC all error code fields */
      ADC_CLEAR_ERRORCODE(hadc);
 80013ba:	687b      	ldr	r3, [r7, #4]
 80013bc:	2200      	movs	r2, #0
 80013be:	645a      	str	r2, [r3, #68]	; 0x44
    }
    
    /* Process unlocked */
    /* Unlock before starting ADC conversions: in case of potential           */
    /* interruption, to let the process to ADC IRQ Handler.                   */
    __HAL_UNLOCK(hadc);
 80013c0:	687b      	ldr	r3, [r7, #4]
 80013c2:	2200      	movs	r2, #0
 80013c4:	f883 203c 	strb.w	r2, [r3, #60]	; 0x3c
    
    /* Clear regular group conversion flag and overrun flag */
    /* (To ensure of no unknown state from potential previous ADC operations) */
    __HAL_ADC_CLEAR_FLAG(hadc, ADC_FLAG_EOC | ADC_FLAG_OVR);
 80013c8:	687b      	ldr	r3, [r7, #4]
 80013ca:	681b      	ldr	r3, [r3, #0]
 80013cc:	f06f 0222 	mvn.w	r2, #34	; 0x22
 80013d0:	601a      	str	r2, [r3, #0]
    
    /* Check if Multimode enabled */
    if(HAL_IS_BIT_CLR(ADC->CCR, ADC_CCR_MULTI))
 80013d2:	4b2f      	ldr	r3, [pc, #188]	; (8001490 <HAL_ADC_Start+0x190>)
 80013d4:	685b      	ldr	r3, [r3, #4]
 80013d6:	f003 031f 	and.w	r3, r3, #31
 80013da:	2b00      	cmp	r3, #0
 80013dc:	d10f      	bne.n	80013fe <HAL_ADC_Start+0xfe>
    {
      /* if no external trigger present enable software conversion of regular channels */
      if((hadc->Instance->CR2 & ADC_CR2_EXTEN) == RESET) 
 80013de:	687b      	ldr	r3, [r7, #4]
 80013e0:	681b      	ldr	r3, [r3, #0]
 80013e2:	689b      	ldr	r3, [r3, #8]
 80013e4:	f003 5340 	and.w	r3, r3, #805306368	; 0x30000000
 80013e8:	2b00      	cmp	r3, #0
 80013ea:	d143      	bne.n	8001474 <HAL_ADC_Start+0x174>
      {
        /* Enable the selected ADC software conversion for regular group */
        hadc->Instance->CR2 |= (uint32_t)ADC_CR2_SWSTART;
 80013ec:	687b      	ldr	r3, [r7, #4]
 80013ee:	681b      	ldr	r3, [r3, #0]
 80013f0:	689a      	ldr	r2, [r3, #8]
 80013f2:	687b      	ldr	r3, [r7, #4]
 80013f4:	681b      	ldr	r3, [r3, #0]
 80013f6:	f042 4280 	orr.w	r2, r2, #1073741824	; 0x40000000
 80013fa:	609a      	str	r2, [r3, #8]
 80013fc:	e03a      	b.n	8001474 <HAL_ADC_Start+0x174>
      }
    }
    else
    {
      /* if instance of handle correspond to ADC1 and  no external trigger present enable software conversion of regular channels */
      if((hadc->Instance == ADC1) && ((hadc->Instance->CR2 & ADC_CR2_EXTEN) == RESET))
 80013fe:	687b      	ldr	r3, [r7, #4]
 8001400:	681b      	ldr	r3, [r3, #0]
 8001402:	4a24      	ldr	r2, [pc, #144]	; (8001494 <HAL_ADC_Start+0x194>)
 8001404:	4293      	cmp	r3, r2
 8001406:	d10e      	bne.n	8001426 <HAL_ADC_Start+0x126>
 8001408:	687b      	ldr	r3, [r7, #4]
 800140a:	681b      	ldr	r3, [r3, #0]
 800140c:	689b      	ldr	r3, [r3, #8]
 800140e:	f003 5340 	and.w	r3, r3, #805306368	; 0x30000000
 8001412:	2b00      	cmp	r3, #0
 8001414:	d107      	bne.n	8001426 <HAL_ADC_Start+0x126>
      {
        /* Enable the selected ADC software conversion for regular group */
          hadc->Instance->CR2 |= (uint32_t)ADC_CR2_SWSTART;
 8001416:	687b      	ldr	r3, [r7, #4]
 8001418:	681b      	ldr	r3, [r3, #0]
 800141a:	689a      	ldr	r2, [r3, #8]
 800141c:	687b      	ldr	r3, [r7, #4]
 800141e:	681b      	ldr	r3, [r3, #0]
 8001420:	f042 4280 	orr.w	r2, r2, #1073741824	; 0x40000000
 8001424:	609a      	str	r2, [r3, #8]
      }

      /* if dual mode is selected, ADC3 works independently. */
      /* check if the mode selected is not triple */
      if( HAL_IS_BIT_CLR(ADC->CCR, ADC_CCR_MULTI_4) )
 8001426:	4b1a      	ldr	r3, [pc, #104]	; (8001490 <HAL_ADC_Start+0x190>)
 8001428:	685b      	ldr	r3, [r3, #4]
 800142a:	f003 0310 	and.w	r3, r3, #16
 800142e:	2b00      	cmp	r3, #0
 8001430:	d120      	bne.n	8001474 <HAL_ADC_Start+0x174>
      {
        /* if instance of handle correspond to ADC3 and no external trigger present enable software conversion of regular channels */
        if((hadc->Instance == ADC3) && ((hadc->Instance->CR2 & ADC_CR2_EXTEN) == RESET))
 8001432:	687b      	ldr	r3, [r7, #4]
 8001434:	681b      	ldr	r3, [r3, #0]
 8001436:	4a18      	ldr	r2, [pc, #96]	; (8001498 <HAL_ADC_Start+0x198>)
 8001438:	4293      	cmp	r3, r2
 800143a:	d11b      	bne.n	8001474 <HAL_ADC_Start+0x174>
 800143c:	687b      	ldr	r3, [r7, #4]
 800143e:	681b      	ldr	r3, [r3, #0]
 8001440:	689b      	ldr	r3, [r3, #8]
 8001442:	f003 5340 	and.w	r3, r3, #805306368	; 0x30000000
 8001446:	2b00      	cmp	r3, #0
 8001448:	d114      	bne.n	8001474 <HAL_ADC_Start+0x174>
        {
          /* Enable the selected ADC software conversion for regular group */
          hadc->Instance->CR2 |= (uint32_t)ADC_CR2_SWSTART;
 800144a:	687b      	ldr	r3, [r7, #4]
 800144c:	681b      	ldr	r3, [r3, #0]
 800144e:	689a      	ldr	r2, [r3, #8]
 8001450:	687b      	ldr	r3, [r7, #4]
 8001452:	681b      	ldr	r3, [r3, #0]
 8001454:	f042 4280 	orr.w	r2, r2, #1073741824	; 0x40000000
 8001458:	609a      	str	r2, [r3, #8]
 800145a:	e00b      	b.n	8001474 <HAL_ADC_Start+0x174>
    }
  }
  else
  {
    /* Update ADC state machine to error */
    SET_BIT(hadc->State, HAL_ADC_STATE_ERROR_INTERNAL);
 800145c:	687b      	ldr	r3, [r7, #4]
 800145e:	6c1b      	ldr	r3, [r3, #64]	; 0x40
 8001460:	f043 0210 	orr.w	r2, r3, #16
 8001464:	687b      	ldr	r3, [r7, #4]
 8001466:	641a      	str	r2, [r3, #64]	; 0x40
    
    /* Set ADC error code to ADC IP internal error */
    SET_BIT(hadc->ErrorCode, HAL_ADC_ERROR_INTERNAL);
 8001468:	687b      	ldr	r3, [r7, #4]
 800146a:	6c5b      	ldr	r3, [r3, #68]	; 0x44
 800146c:	f043 0201 	orr.w	r2, r3, #1
 8001470:	687b      	ldr	r3, [r7, #4]
 8001472:	645a      	str	r2, [r3, #68]	; 0x44
  }
  
  /* Return function status */
  return HAL_OK;
 8001474:	2300      	movs	r3, #0
}
 8001476:	4618      	mov	r0, r3
 8001478:	3714      	adds	r7, #20
 800147a:	46bd      	mov	sp, r7
 800147c:	f85d 7b04 	ldr.w	r7, [sp], #4
 8001480:	4770      	bx	lr
 8001482:	bf00      	nop
 8001484:	20000000 	.word	0x20000000
 8001488:	431bde83 	.word	0x431bde83
 800148c:	fffff8fe 	.word	0xfffff8fe
 8001490:	40012300 	.word	0x40012300
 8001494:	40012000 	.word	0x40012000
 8001498:	40012200 	.word	0x40012200

0800149c <HAL_ADC_PollForConversion>:
  *         the configuration information for the specified ADC.
  * @param  Timeout Timeout value in millisecond.  
  * @retval HAL status
  */
HAL_StatusTypeDef HAL_ADC_PollForConversion(ADC_HandleTypeDef* hadc, uint32_t Timeout)
{
 800149c:	b580      	push	{r7, lr}
 800149e:	b084      	sub	sp, #16
 80014a0:	af00      	add	r7, sp, #0
 80014a2:	6078      	str	r0, [r7, #4]
 80014a4:	6039      	str	r1, [r7, #0]
  uint32_t tickstart = 0;
 80014a6:	2300      	movs	r3, #0
 80014a8:	60fb      	str	r3, [r7, #12]
  /* each conversion:                                                       */
  /* Particular case is ADC configured in DMA mode and ADC sequencer with   */
  /* several ranks and polling for end of each conversion.                  */
  /* For code simplicity sake, this particular case is generalized to       */
  /* ADC configured in DMA mode and polling for end of each conversion.     */
  if (HAL_IS_BIT_SET(hadc->Instance->CR2, ADC_CR2_EOCS) &&
 80014aa:	687b      	ldr	r3, [r7, #4]
 80014ac:	681b      	ldr	r3, [r3, #0]
 80014ae:	689b      	ldr	r3, [r3, #8]
 80014b0:	f403 6380 	and.w	r3, r3, #1024	; 0x400
 80014b4:	f5b3 6f80 	cmp.w	r3, #1024	; 0x400
 80014b8:	d113      	bne.n	80014e2 <HAL_ADC_PollForConversion+0x46>
      HAL_IS_BIT_SET(hadc->Instance->CR2, ADC_CR2_DMA)    )
 80014ba:	687b      	ldr	r3, [r7, #4]
 80014bc:	681b      	ldr	r3, [r3, #0]
 80014be:	689b      	ldr	r3, [r3, #8]
 80014c0:	f403 7380 	and.w	r3, r3, #256	; 0x100
  if (HAL_IS_BIT_SET(hadc->Instance->CR2, ADC_CR2_EOCS) &&
 80014c4:	f5b3 7f80 	cmp.w	r3, #256	; 0x100
 80014c8:	d10b      	bne.n	80014e2 <HAL_ADC_PollForConversion+0x46>
  {
    /* Update ADC state machine to error */
    SET_BIT(hadc->State, HAL_ADC_STATE_ERROR_CONFIG);
 80014ca:	687b      	ldr	r3, [r7, #4]
 80014cc:	6c1b      	ldr	r3, [r3, #64]	; 0x40
 80014ce:	f043 0220 	orr.w	r2, r3, #32
 80014d2:	687b      	ldr	r3, [r7, #4]
 80014d4:	641a      	str	r2, [r3, #64]	; 0x40
    
    /* Process unlocked */
    __HAL_UNLOCK(hadc);
 80014d6:	687b      	ldr	r3, [r7, #4]
 80014d8:	2200      	movs	r2, #0
 80014da:	f883 203c 	strb.w	r2, [r3, #60]	; 0x3c
    
    return HAL_ERROR;
 80014de:	2301      	movs	r3, #1
 80014e0:	e063      	b.n	80015aa <HAL_ADC_PollForConversion+0x10e>
  }
 
  /* Get tick */ 
  tickstart = HAL_GetTick();
 80014e2:	f7ff fe99 	bl	8001218 <HAL_GetTick>
 80014e6:	60f8      	str	r0, [r7, #12]

  /* Check End of conversion flag */
  while(!(__HAL_ADC_GET_FLAG(hadc, ADC_FLAG_EOC)))
 80014e8:	e021      	b.n	800152e <HAL_ADC_PollForConversion+0x92>
  {
    /* Check if timeout is disabled (set to infinite wait) */
    if(Timeout != HAL_MAX_DELAY)
 80014ea:	683b      	ldr	r3, [r7, #0]
 80014ec:	f1b3 3fff 	cmp.w	r3, #4294967295
 80014f0:	d01d      	beq.n	800152e <HAL_ADC_PollForConversion+0x92>
    {
      if((Timeout == 0) || ((HAL_GetTick() - tickstart ) > Timeout))
 80014f2:	683b      	ldr	r3, [r7, #0]
 80014f4:	2b00      	cmp	r3, #0
 80014f6:	d007      	beq.n	8001508 <HAL_ADC_PollForConversion+0x6c>
 80014f8:	f7ff fe8e 	bl	8001218 <HAL_GetTick>
 80014fc:	4602      	mov	r2, r0
 80014fe:	68fb      	ldr	r3, [r7, #12]
 8001500:	1ad3      	subs	r3, r2, r3
 8001502:	683a      	ldr	r2, [r7, #0]
 8001504:	429a      	cmp	r2, r3
 8001506:	d212      	bcs.n	800152e <HAL_ADC_PollForConversion+0x92>
      {
        /* New check to avoid false timeout detection in case of preemption */
        if(!(__HAL_ADC_GET_FLAG(hadc, ADC_FLAG_EOC)))
 8001508:	687b      	ldr	r3, [r7, #4]
 800150a:	681b      	ldr	r3, [r3, #0]
 800150c:	681b      	ldr	r3, [r3, #0]
 800150e:	f003 0302 	and.w	r3, r3, #2
 8001512:	2b02      	cmp	r3, #2
 8001514:	d00b      	beq.n	800152e <HAL_ADC_PollForConversion+0x92>
        {
          /* Update ADC state machine to timeout */
          SET_BIT(hadc->State, HAL_ADC_STATE_TIMEOUT);
 8001516:	687b      	ldr	r3, [r7, #4]
 8001518:	6c1b      	ldr	r3, [r3, #64]	; 0x40
 800151a:	f043 0204 	orr.w	r2, r3, #4
 800151e:	687b      	ldr	r3, [r7, #4]
 8001520:	641a      	str	r2, [r3, #64]	; 0x40
          
          /* Process unlocked */
          __HAL_UNLOCK(hadc);
 8001522:	687b      	ldr	r3, [r7, #4]
 8001524:	2200      	movs	r2, #0
 8001526:	f883 203c 	strb.w	r2, [r3, #60]	; 0x3c
          
          return HAL_TIMEOUT;
 800152a:	2303      	movs	r3, #3
 800152c:	e03d      	b.n	80015aa <HAL_ADC_PollForConversion+0x10e>
  while(!(__HAL_ADC_GET_FLAG(hadc, ADC_FLAG_EOC)))
 800152e:	687b      	ldr	r3, [r7, #4]
 8001530:	681b      	ldr	r3, [r3, #0]
 8001532:	681b      	ldr	r3, [r3, #0]
 8001534:	f003 0302 	and.w	r3, r3, #2
 8001538:	2b02      	cmp	r3, #2
 800153a:	d1d6      	bne.n	80014ea <HAL_ADC_PollForConversion+0x4e>
      }
    }
  }
  
  /* Clear regular group conversion flag */
  __HAL_ADC_CLEAR_FLAG(hadc, ADC_FLAG_STRT | ADC_FLAG_EOC);
 800153c:	687b      	ldr	r3, [r7, #4]
 800153e:	681b      	ldr	r3, [r3, #0]
 8001540:	f06f 0212 	mvn.w	r2, #18
 8001544:	601a      	str	r2, [r3, #0]
  
  /* Update ADC state machine */
  SET_BIT(hadc->State, HAL_ADC_STATE_REG_EOC);
 8001546:	687b      	ldr	r3, [r7, #4]
 8001548:	6c1b      	ldr	r3, [r3, #64]	; 0x40
 800154a:	f443 7200 	orr.w	r2, r3, #512	; 0x200
 800154e:	687b      	ldr	r3, [r7, #4]
 8001550:	641a      	str	r2, [r3, #64]	; 0x40
  /* by external trigger, continuous mode or scan sequence on going.          */
  /* Note: On STM32F7, there is no independent flag of end of sequence.       */
  /*       The test of scan sequence on going is done either with scan        */
  /*       sequence disabled or with end of conversion flag set to            */
  /*       of end of sequence.                                                */
  if(ADC_IS_SOFTWARE_START_REGULAR(hadc)                   &&
 8001552:	687b      	ldr	r3, [r7, #4]
 8001554:	681b      	ldr	r3, [r3, #0]
 8001556:	689b      	ldr	r3, [r3, #8]
 8001558:	f003 5340 	and.w	r3, r3, #805306368	; 0x30000000
 800155c:	2b00      	cmp	r3, #0
 800155e:	d123      	bne.n	80015a8 <HAL_ADC_PollForConversion+0x10c>
     (hadc->Init.ContinuousConvMode == DISABLE)            &&
 8001560:	687b      	ldr	r3, [r7, #4]
 8001562:	699b      	ldr	r3, [r3, #24]
  if(ADC_IS_SOFTWARE_START_REGULAR(hadc)                   &&
 8001564:	2b00      	cmp	r3, #0
 8001566:	d11f      	bne.n	80015a8 <HAL_ADC_PollForConversion+0x10c>
     (HAL_IS_BIT_CLR(hadc->Instance->SQR1, ADC_SQR1_L) ||
 8001568:	687b      	ldr	r3, [r7, #4]
 800156a:	681b      	ldr	r3, [r3, #0]
 800156c:	6adb      	ldr	r3, [r3, #44]	; 0x2c
 800156e:	f403 0370 	and.w	r3, r3, #15728640	; 0xf00000
     (hadc->Init.ContinuousConvMode == DISABLE)            &&
 8001572:	2b00      	cmp	r3, #0
 8001574:	d006      	beq.n	8001584 <HAL_ADC_PollForConversion+0xe8>
      HAL_IS_BIT_CLR(hadc->Instance->CR2, ADC_CR2_EOCS)  )   )
 8001576:	687b      	ldr	r3, [r7, #4]
 8001578:	681b      	ldr	r3, [r3, #0]
 800157a:	689b      	ldr	r3, [r3, #8]
 800157c:	f403 6380 	and.w	r3, r3, #1024	; 0x400
     (HAL_IS_BIT_CLR(hadc->Instance->SQR1, ADC_SQR1_L) ||
 8001580:	2b00      	cmp	r3, #0
 8001582:	d111      	bne.n	80015a8 <HAL_ADC_PollForConversion+0x10c>
  {
    /* Set ADC state */
    CLEAR_BIT(hadc->State, HAL_ADC_STATE_REG_BUSY);   
 8001584:	687b      	ldr	r3, [r7, #4]
 8001586:	6c1b      	ldr	r3, [r3, #64]	; 0x40
 8001588:	f423 7280 	bic.w	r2, r3, #256	; 0x100
 800158c:	687b      	ldr	r3, [r7, #4]
 800158e:	641a      	str	r2, [r3, #64]	; 0x40
    
    if (HAL_IS_BIT_CLR(hadc->State, HAL_ADC_STATE_INJ_BUSY))
 8001590:	687b      	ldr	r3, [r7, #4]
 8001592:	6c1b      	ldr	r3, [r3, #64]	; 0x40
 8001594:	f403 5380 	and.w	r3, r3, #4096	; 0x1000
 8001598:	2b00      	cmp	r3, #0
 800159a:	d105      	bne.n	80015a8 <HAL_ADC_PollForConversion+0x10c>
    { 
      SET_BIT(hadc->State, HAL_ADC_STATE_READY);
 800159c:	687b      	ldr	r3, [r7, #4]
 800159e:	6c1b      	ldr	r3, [r3, #64]	; 0x40
 80015a0:	f043 0201 	orr.w	r2, r3, #1
 80015a4:	687b      	ldr	r3, [r7, #4]
 80015a6:	641a      	str	r2, [r3, #64]	; 0x40
    }
  }
  
  /* Return ADC state */
  return HAL_OK;
 80015a8:	2300      	movs	r3, #0
}
 80015aa:	4618      	mov	r0, r3
 80015ac:	3710      	adds	r7, #16
 80015ae:	46bd      	mov	sp, r7
 80015b0:	bd80      	pop	{r7, pc}

080015b2 <HAL_ADC_GetValue>:
  * @param  hadc pointer to a ADC_HandleTypeDef structure that contains
  *         the configuration information for the specified ADC.
  * @retval Converted value
  */
uint32_t HAL_ADC_GetValue(ADC_HandleTypeDef* hadc)
{       
 80015b2:	b480      	push	{r7}
 80015b4:	b083      	sub	sp, #12
 80015b6:	af00      	add	r7, sp, #0
 80015b8:	6078      	str	r0, [r7, #4]
  /* Return the selected ADC converted value */ 
  return hadc->Instance->DR;
 80015ba:	687b      	ldr	r3, [r7, #4]
 80015bc:	681b      	ldr	r3, [r3, #0]
 80015be:	6cdb      	ldr	r3, [r3, #76]	; 0x4c
}
 80015c0:	4618      	mov	r0, r3
 80015c2:	370c      	adds	r7, #12
 80015c4:	46bd      	mov	sp, r7
 80015c6:	f85d 7b04 	ldr.w	r7, [sp], #4
 80015ca:	4770      	bx	lr

080015cc <HAL_ADC_ConfigChannel>:
  *         the configuration information for the specified ADC.
  * @param  sConfig ADC configuration structure. 
  * @retval HAL status
  */
HAL_StatusTypeDef HAL_ADC_ConfigChannel(ADC_HandleTypeDef* hadc, ADC_ChannelConfTypeDef* sConfig)
{
 80015cc:	b480      	push	{r7}
 80015ce:	b085      	sub	sp, #20
 80015d0:	af00      	add	r7, sp, #0
 80015d2:	6078      	str	r0, [r7, #4]
 80015d4:	6039      	str	r1, [r7, #0]
  __IO uint32_t counter = 0;
 80015d6:	2300      	movs	r3, #0
 80015d8:	60fb      	str	r3, [r7, #12]
  assert_param(IS_ADC_CHANNEL(sConfig->Channel));
  assert_param(IS_ADC_REGULAR_RANK(sConfig->Rank));
  assert_param(IS_ADC_SAMPLE_TIME(sConfig->SamplingTime));
  
  /* Process locked */
  __HAL_LOCK(hadc);
 80015da:	687b      	ldr	r3, [r7, #4]
 80015dc:	f893 303c 	ldrb.w	r3, [r3, #60]	; 0x3c
 80015e0:	2b01      	cmp	r3, #1
 80015e2:	d101      	bne.n	80015e8 <HAL_ADC_ConfigChannel+0x1c>
 80015e4:	2302      	movs	r3, #2
 80015e6:	e136      	b.n	8001856 <HAL_ADC_ConfigChannel+0x28a>
 80015e8:	687b      	ldr	r3, [r7, #4]
 80015ea:	2201      	movs	r2, #1
 80015ec:	f883 203c 	strb.w	r2, [r3, #60]	; 0x3c
  
  /* if ADC_Channel_10 ... ADC_Channel_18 is selected */
  if ((sConfig->Channel > ADC_CHANNEL_9) && (sConfig->Channel != ADC_INTERNAL_NONE))
 80015f0:	683b      	ldr	r3, [r7, #0]
 80015f2:	681b      	ldr	r3, [r3, #0]
 80015f4:	2b09      	cmp	r3, #9
 80015f6:	d93a      	bls.n	800166e <HAL_ADC_ConfigChannel+0xa2>
 80015f8:	683b      	ldr	r3, [r7, #0]
 80015fa:	681b      	ldr	r3, [r3, #0]
 80015fc:	f1b3 4f00 	cmp.w	r3, #2147483648	; 0x80000000
 8001600:	d035      	beq.n	800166e <HAL_ADC_ConfigChannel+0xa2>
  {
    /* Clear the old sample time */
    hadc->Instance->SMPR1 &= ~ADC_SMPR1(ADC_SMPR1_SMP10, sConfig->Channel);
 8001602:	687b      	ldr	r3, [r7, #4]
 8001604:	681b      	ldr	r3, [r3, #0]
 8001606:	68d9      	ldr	r1, [r3, #12]
 8001608:	683b      	ldr	r3, [r7, #0]
 800160a:	681b      	ldr	r3, [r3, #0]
 800160c:	b29b      	uxth	r3, r3
 800160e:	461a      	mov	r2, r3
 8001610:	4613      	mov	r3, r2
 8001612:	005b      	lsls	r3, r3, #1
 8001614:	4413      	add	r3, r2
 8001616:	3b1e      	subs	r3, #30
 8001618:	2207      	movs	r2, #7
 800161a:	fa02 f303 	lsl.w	r3, r2, r3
 800161e:	43da      	mvns	r2, r3
 8001620:	687b      	ldr	r3, [r7, #4]
 8001622:	681b      	ldr	r3, [r3, #0]
 8001624:	400a      	ands	r2, r1
 8001626:	60da      	str	r2, [r3, #12]

    if (sConfig->Channel == ADC_CHANNEL_TEMPSENSOR)
 8001628:	683b      	ldr	r3, [r7, #0]
 800162a:	681b      	ldr	r3, [r3, #0]
 800162c:	4a8d      	ldr	r2, [pc, #564]	; (8001864 <HAL_ADC_ConfigChannel+0x298>)
 800162e:	4293      	cmp	r3, r2
 8001630:	d10a      	bne.n	8001648 <HAL_ADC_ConfigChannel+0x7c>
    {
      /* Set the new sample time */
      hadc->Instance->SMPR1 |= ADC_SMPR1(sConfig->SamplingTime, ADC_CHANNEL_18);
 8001632:	687b      	ldr	r3, [r7, #4]
 8001634:	681b      	ldr	r3, [r3, #0]
 8001636:	68d9      	ldr	r1, [r3, #12]
 8001638:	683b      	ldr	r3, [r7, #0]
 800163a:	689b      	ldr	r3, [r3, #8]
 800163c:	061a      	lsls	r2, r3, #24
 800163e:	687b      	ldr	r3, [r7, #4]
 8001640:	681b      	ldr	r3, [r3, #0]
 8001642:	430a      	orrs	r2, r1
 8001644:	60da      	str	r2, [r3, #12]
    if (sConfig->Channel == ADC_CHANNEL_TEMPSENSOR)
 8001646:	e035      	b.n	80016b4 <HAL_ADC_ConfigChannel+0xe8>
    }
    else
    {
      /* Set the new sample time */
      hadc->Instance->SMPR1 |= ADC_SMPR1(sConfig->SamplingTime, sConfig->Channel);
 8001648:	687b      	ldr	r3, [r7, #4]
 800164a:	681b      	ldr	r3, [r3, #0]
 800164c:	68d9      	ldr	r1, [r3, #12]
 800164e:	683b      	ldr	r3, [r7, #0]
 8001650:	689a      	ldr	r2, [r3, #8]
 8001652:	683b      	ldr	r3, [r7, #0]
 8001654:	681b      	ldr	r3, [r3, #0]
 8001656:	b29b      	uxth	r3, r3
 8001658:	4618      	mov	r0, r3
 800165a:	4603      	mov	r3, r0
 800165c:	005b      	lsls	r3, r3, #1
 800165e:	4403      	add	r3, r0
 8001660:	3b1e      	subs	r3, #30
 8001662:	409a      	lsls	r2, r3
 8001664:	687b      	ldr	r3, [r7, #4]
 8001666:	681b      	ldr	r3, [r3, #0]
 8001668:	430a      	orrs	r2, r1
 800166a:	60da      	str	r2, [r3, #12]
    if (sConfig->Channel == ADC_CHANNEL_TEMPSENSOR)
 800166c:	e022      	b.n	80016b4 <HAL_ADC_ConfigChannel+0xe8>
    }
  }
  else /* ADC_Channel include in ADC_Channel_[0..9] */
  {
    /* Clear the old sample time */
    hadc->Instance->SMPR2 &= ~ADC_SMPR2(ADC_SMPR2_SMP0, sConfig->Channel);
 800166e:	687b      	ldr	r3, [r7, #4]
 8001670:	681b      	ldr	r3, [r3, #0]
 8001672:	6919      	ldr	r1, [r3, #16]
 8001674:	683b      	ldr	r3, [r7, #0]
 8001676:	681b      	ldr	r3, [r3, #0]
 8001678:	b29b      	uxth	r3, r3
 800167a:	461a      	mov	r2, r3
 800167c:	4613      	mov	r3, r2
 800167e:	005b      	lsls	r3, r3, #1
 8001680:	4413      	add	r3, r2
 8001682:	2207      	movs	r2, #7
 8001684:	fa02 f303 	lsl.w	r3, r2, r3
 8001688:	43da      	mvns	r2, r3
 800168a:	687b      	ldr	r3, [r7, #4]
 800168c:	681b      	ldr	r3, [r3, #0]
 800168e:	400a      	ands	r2, r1
 8001690:	611a      	str	r2, [r3, #16]
    
    /* Set the new sample time */
    hadc->Instance->SMPR2 |= ADC_SMPR2(sConfig->SamplingTime, sConfig->Channel);
 8001692:	687b      	ldr	r3, [r7, #4]
 8001694:	681b      	ldr	r3, [r3, #0]
 8001696:	6919      	ldr	r1, [r3, #16]
 8001698:	683b      	ldr	r3, [r7, #0]
 800169a:	689a      	ldr	r2, [r3, #8]
 800169c:	683b      	ldr	r3, [r7, #0]
 800169e:	681b      	ldr	r3, [r3, #0]
 80016a0:	b29b      	uxth	r3, r3
 80016a2:	4618      	mov	r0, r3
 80016a4:	4603      	mov	r3, r0
 80016a6:	005b      	lsls	r3, r3, #1
 80016a8:	4403      	add	r3, r0
 80016aa:	409a      	lsls	r2, r3
 80016ac:	687b      	ldr	r3, [r7, #4]
 80016ae:	681b      	ldr	r3, [r3, #0]
 80016b0:	430a      	orrs	r2, r1
 80016b2:	611a      	str	r2, [r3, #16]
  }
  
  /* For Rank 1 to 6 */
  if (sConfig->Rank < 7)
 80016b4:	683b      	ldr	r3, [r7, #0]
 80016b6:	685b      	ldr	r3, [r3, #4]
 80016b8:	2b06      	cmp	r3, #6
 80016ba:	d824      	bhi.n	8001706 <HAL_ADC_ConfigChannel+0x13a>
  {
    /* Clear the old SQx bits for the selected rank */
    hadc->Instance->SQR3 &= ~ADC_SQR3_RK(ADC_SQR3_SQ1, sConfig->Rank);
 80016bc:	687b      	ldr	r3, [r7, #4]
 80016be:	681b      	ldr	r3, [r3, #0]
 80016c0:	6b59      	ldr	r1, [r3, #52]	; 0x34
 80016c2:	683b      	ldr	r3, [r7, #0]
 80016c4:	685a      	ldr	r2, [r3, #4]
 80016c6:	4613      	mov	r3, r2
 80016c8:	009b      	lsls	r3, r3, #2
 80016ca:	4413      	add	r3, r2
 80016cc:	3b05      	subs	r3, #5
 80016ce:	221f      	movs	r2, #31
 80016d0:	fa02 f303 	lsl.w	r3, r2, r3
 80016d4:	43da      	mvns	r2, r3
 80016d6:	687b      	ldr	r3, [r7, #4]
 80016d8:	681b      	ldr	r3, [r3, #0]
 80016da:	400a      	ands	r2, r1
 80016dc:	635a      	str	r2, [r3, #52]	; 0x34
    
    /* Set the SQx bits for the selected rank */
    hadc->Instance->SQR3 |= ADC_SQR3_RK(sConfig->Channel, sConfig->Rank);
 80016de:	687b      	ldr	r3, [r7, #4]
 80016e0:	681b      	ldr	r3, [r3, #0]
 80016e2:	6b59      	ldr	r1, [r3, #52]	; 0x34
 80016e4:	683b      	ldr	r3, [r7, #0]
 80016e6:	681b      	ldr	r3, [r3, #0]
 80016e8:	b29b      	uxth	r3, r3
 80016ea:	4618      	mov	r0, r3
 80016ec:	683b      	ldr	r3, [r7, #0]
 80016ee:	685a      	ldr	r2, [r3, #4]
 80016f0:	4613      	mov	r3, r2
 80016f2:	009b      	lsls	r3, r3, #2
 80016f4:	4413      	add	r3, r2
 80016f6:	3b05      	subs	r3, #5
 80016f8:	fa00 f203 	lsl.w	r2, r0, r3
 80016fc:	687b      	ldr	r3, [r7, #4]
 80016fe:	681b      	ldr	r3, [r3, #0]
 8001700:	430a      	orrs	r2, r1
 8001702:	635a      	str	r2, [r3, #52]	; 0x34
 8001704:	e04c      	b.n	80017a0 <HAL_ADC_ConfigChannel+0x1d4>
  }
  /* For Rank 7 to 12 */
  else if (sConfig->Rank < 13)
 8001706:	683b      	ldr	r3, [r7, #0]
 8001708:	685b      	ldr	r3, [r3, #4]
 800170a:	2b0c      	cmp	r3, #12
 800170c:	d824      	bhi.n	8001758 <HAL_ADC_ConfigChannel+0x18c>
  {
    /* Clear the old SQx bits for the selected rank */
    hadc->Instance->SQR2 &= ~ADC_SQR2_RK(ADC_SQR2_SQ7, sConfig->Rank);
 800170e:	687b      	ldr	r3, [r7, #4]
 8001710:	681b      	ldr	r3, [r3, #0]
 8001712:	6b19      	ldr	r1, [r3, #48]	; 0x30
 8001714:	683b      	ldr	r3, [r7, #0]
 8001716:	685a      	ldr	r2, [r3, #4]
 8001718:	4613      	mov	r3, r2
 800171a:	009b      	lsls	r3, r3, #2
 800171c:	4413      	add	r3, r2
 800171e:	3b23      	subs	r3, #35	; 0x23
 8001720:	221f      	movs	r2, #31
 8001722:	fa02 f303 	lsl.w	r3, r2, r3
 8001726:	43da      	mvns	r2, r3
 8001728:	687b      	ldr	r3, [r7, #4]
 800172a:	681b      	ldr	r3, [r3, #0]
 800172c:	400a      	ands	r2, r1
 800172e:	631a      	str	r2, [r3, #48]	; 0x30
    
    /* Set the SQx bits for the selected rank */
    hadc->Instance->SQR2 |= ADC_SQR2_RK(sConfig->Channel, sConfig->Rank);
 8001730:	687b      	ldr	r3, [r7, #4]
 8001732:	681b      	ldr	r3, [r3, #0]
 8001734:	6b19      	ldr	r1, [r3, #48]	; 0x30
 8001736:	683b      	ldr	r3, [r7, #0]
 8001738:	681b      	ldr	r3, [r3, #0]
 800173a:	b29b      	uxth	r3, r3
 800173c:	4618      	mov	r0, r3
 800173e:	683b      	ldr	r3, [r7, #0]
 8001740:	685a      	ldr	r2, [r3, #4]
 8001742:	4613      	mov	r3, r2
 8001744:	009b      	lsls	r3, r3, #2
 8001746:	4413      	add	r3, r2
 8001748:	3b23      	subs	r3, #35	; 0x23
 800174a:	fa00 f203 	lsl.w	r2, r0, r3
 800174e:	687b      	ldr	r3, [r7, #4]
 8001750:	681b      	ldr	r3, [r3, #0]
 8001752:	430a      	orrs	r2, r1
 8001754:	631a      	str	r2, [r3, #48]	; 0x30
 8001756:	e023      	b.n	80017a0 <HAL_ADC_ConfigChannel+0x1d4>
  }
  /* For Rank 13 to 16 */
  else
  {
    /* Clear the old SQx bits for the selected rank */
    hadc->Instance->SQR1 &= ~ADC_SQR1_RK(ADC_SQR1_SQ13, sConfig->Rank);
 8001758:	687b      	ldr	r3, [r7, #4]
 800175a:	681b      	ldr	r3, [r3, #0]
 800175c:	6ad9      	ldr	r1, [r3, #44]	; 0x2c
 800175e:	683b      	ldr	r3, [r7, #0]
 8001760:	685a      	ldr	r2, [r3, #4]
 8001762:	4613      	mov	r3, r2
 8001764:	009b      	lsls	r3, r3, #2
 8001766:	4413      	add	r3, r2
 8001768:	3b41      	subs	r3, #65	; 0x41
 800176a:	221f      	movs	r2, #31
 800176c:	fa02 f303 	lsl.w	r3, r2, r3
 8001770:	43da      	mvns	r2, r3
 8001772:	687b      	ldr	r3, [r7, #4]
 8001774:	681b      	ldr	r3, [r3, #0]
 8001776:	400a      	ands	r2, r1
 8001778:	62da      	str	r2, [r3, #44]	; 0x2c
    
    /* Set the SQx bits for the selected rank */
    hadc->Instance->SQR1 |= ADC_SQR1_RK(sConfig->Channel, sConfig->Rank);
 800177a:	687b      	ldr	r3, [r7, #4]
 800177c:	681b      	ldr	r3, [r3, #0]
 800177e:	6ad9      	ldr	r1, [r3, #44]	; 0x2c
 8001780:	683b      	ldr	r3, [r7, #0]
 8001782:	681b      	ldr	r3, [r3, #0]
 8001784:	b29b      	uxth	r3, r3
 8001786:	4618      	mov	r0, r3
 8001788:	683b      	ldr	r3, [r7, #0]
 800178a:	685a      	ldr	r2, [r3, #4]
 800178c:	4613      	mov	r3, r2
 800178e:	009b      	lsls	r3, r3, #2
 8001790:	4413      	add	r3, r2
 8001792:	3b41      	subs	r3, #65	; 0x41
 8001794:	fa00 f203 	lsl.w	r2, r0, r3
 8001798:	687b      	ldr	r3, [r7, #4]
 800179a:	681b      	ldr	r3, [r3, #0]
 800179c:	430a      	orrs	r2, r1
 800179e:	62da      	str	r2, [r3, #44]	; 0x2c
  }
  
  /* if no internal channel selected */
  if ((hadc->Instance == ADC1) && (sConfig->Channel == ADC_INTERNAL_NONE))
 80017a0:	687b      	ldr	r3, [r7, #4]
 80017a2:	681b      	ldr	r3, [r3, #0]
 80017a4:	4a30      	ldr	r2, [pc, #192]	; (8001868 <HAL_ADC_ConfigChannel+0x29c>)
 80017a6:	4293      	cmp	r3, r2
 80017a8:	d10a      	bne.n	80017c0 <HAL_ADC_ConfigChannel+0x1f4>
 80017aa:	683b      	ldr	r3, [r7, #0]
 80017ac:	681b      	ldr	r3, [r3, #0]
 80017ae:	f1b3 4f00 	cmp.w	r3, #2147483648	; 0x80000000
 80017b2:	d105      	bne.n	80017c0 <HAL_ADC_ConfigChannel+0x1f4>
  {
    /* Disable the VBAT & TSVREFE channel*/
    ADC->CCR &= ~(ADC_CCR_VBATE | ADC_CCR_TSVREFE);
 80017b4:	4b2d      	ldr	r3, [pc, #180]	; (800186c <HAL_ADC_ConfigChannel+0x2a0>)
 80017b6:	685b      	ldr	r3, [r3, #4]
 80017b8:	4a2c      	ldr	r2, [pc, #176]	; (800186c <HAL_ADC_ConfigChannel+0x2a0>)
 80017ba:	f423 0340 	bic.w	r3, r3, #12582912	; 0xc00000
 80017be:	6053      	str	r3, [r2, #4]
  }

  /* if ADC1 Channel_18 is selected enable VBAT Channel */
  if ((hadc->Instance == ADC1) && (sConfig->Channel == ADC_CHANNEL_VBAT))
 80017c0:	687b      	ldr	r3, [r7, #4]
 80017c2:	681b      	ldr	r3, [r3, #0]
 80017c4:	4a28      	ldr	r2, [pc, #160]	; (8001868 <HAL_ADC_ConfigChannel+0x29c>)
 80017c6:	4293      	cmp	r3, r2
 80017c8:	d10f      	bne.n	80017ea <HAL_ADC_ConfigChannel+0x21e>
 80017ca:	683b      	ldr	r3, [r7, #0]
 80017cc:	681b      	ldr	r3, [r3, #0]
 80017ce:	2b12      	cmp	r3, #18
 80017d0:	d10b      	bne.n	80017ea <HAL_ADC_ConfigChannel+0x21e>
  {
    /* Disable the TEMPSENSOR channel as it is multiplixed with the VBAT channel */
    ADC->CCR &= ~ADC_CCR_TSVREFE;
 80017d2:	4b26      	ldr	r3, [pc, #152]	; (800186c <HAL_ADC_ConfigChannel+0x2a0>)
 80017d4:	685b      	ldr	r3, [r3, #4]
 80017d6:	4a25      	ldr	r2, [pc, #148]	; (800186c <HAL_ADC_ConfigChannel+0x2a0>)
 80017d8:	f423 0300 	bic.w	r3, r3, #8388608	; 0x800000
 80017dc:	6053      	str	r3, [r2, #4]

    /* Enable the VBAT channel*/
    ADC->CCR |= ADC_CCR_VBATE;
 80017de:	4b23      	ldr	r3, [pc, #140]	; (800186c <HAL_ADC_ConfigChannel+0x2a0>)
 80017e0:	685b      	ldr	r3, [r3, #4]
 80017e2:	4a22      	ldr	r2, [pc, #136]	; (800186c <HAL_ADC_ConfigChannel+0x2a0>)
 80017e4:	f443 0380 	orr.w	r3, r3, #4194304	; 0x400000
 80017e8:	6053      	str	r3, [r2, #4]
  }
  
  /* if ADC1 Channel_18 or Channel_17 is selected enable TSVREFE Channel(Temperature sensor and VREFINT) */
  if ((hadc->Instance == ADC1) && ((sConfig->Channel == ADC_CHANNEL_TEMPSENSOR) || (sConfig->Channel == ADC_CHANNEL_VREFINT)))
 80017ea:	687b      	ldr	r3, [r7, #4]
 80017ec:	681b      	ldr	r3, [r3, #0]
 80017ee:	4a1e      	ldr	r2, [pc, #120]	; (8001868 <HAL_ADC_ConfigChannel+0x29c>)
 80017f0:	4293      	cmp	r3, r2
 80017f2:	d12b      	bne.n	800184c <HAL_ADC_ConfigChannel+0x280>
 80017f4:	683b      	ldr	r3, [r7, #0]
 80017f6:	681b      	ldr	r3, [r3, #0]
 80017f8:	4a1a      	ldr	r2, [pc, #104]	; (8001864 <HAL_ADC_ConfigChannel+0x298>)
 80017fa:	4293      	cmp	r3, r2
 80017fc:	d003      	beq.n	8001806 <HAL_ADC_ConfigChannel+0x23a>
 80017fe:	683b      	ldr	r3, [r7, #0]
 8001800:	681b      	ldr	r3, [r3, #0]
 8001802:	2b11      	cmp	r3, #17
 8001804:	d122      	bne.n	800184c <HAL_ADC_ConfigChannel+0x280>
  {
    /* Disable the VBAT channel as it is multiplixed with TEMPSENSOR channel */
    ADC->CCR &= ~ADC_CCR_VBATE;
 8001806:	4b19      	ldr	r3, [pc, #100]	; (800186c <HAL_ADC_ConfigChannel+0x2a0>)
 8001808:	685b      	ldr	r3, [r3, #4]
 800180a:	4a18      	ldr	r2, [pc, #96]	; (800186c <HAL_ADC_ConfigChannel+0x2a0>)
 800180c:	f423 0380 	bic.w	r3, r3, #4194304	; 0x400000
 8001810:	6053      	str	r3, [r2, #4]

    /* Enable the TSVREFE channel*/
    ADC->CCR |= ADC_CCR_TSVREFE;
 8001812:	4b16      	ldr	r3, [pc, #88]	; (800186c <HAL_ADC_ConfigChannel+0x2a0>)
 8001814:	685b      	ldr	r3, [r3, #4]
 8001816:	4a15      	ldr	r2, [pc, #84]	; (800186c <HAL_ADC_ConfigChannel+0x2a0>)
 8001818:	f443 0300 	orr.w	r3, r3, #8388608	; 0x800000
 800181c:	6053      	str	r3, [r2, #4]

    if(sConfig->Channel == ADC_CHANNEL_TEMPSENSOR)
 800181e:	683b      	ldr	r3, [r7, #0]
 8001820:	681b      	ldr	r3, [r3, #0]
 8001822:	4a10      	ldr	r2, [pc, #64]	; (8001864 <HAL_ADC_ConfigChannel+0x298>)
 8001824:	4293      	cmp	r3, r2
 8001826:	d111      	bne.n	800184c <HAL_ADC_ConfigChannel+0x280>
    {
      /* Delay for temperature sensor stabilization time */
      /* Compute number of CPU cycles to wait for */
      counter = (ADC_TEMPSENSOR_DELAY_US * (SystemCoreClock / 1000000));
 8001828:	4b11      	ldr	r3, [pc, #68]	; (8001870 <HAL_ADC_ConfigChannel+0x2a4>)
 800182a:	681b      	ldr	r3, [r3, #0]
 800182c:	4a11      	ldr	r2, [pc, #68]	; (8001874 <HAL_ADC_ConfigChannel+0x2a8>)
 800182e:	fba2 2303 	umull	r2, r3, r2, r3
 8001832:	0c9a      	lsrs	r2, r3, #18
 8001834:	4613      	mov	r3, r2
 8001836:	009b      	lsls	r3, r3, #2
 8001838:	4413      	add	r3, r2
 800183a:	005b      	lsls	r3, r3, #1
 800183c:	60fb      	str	r3, [r7, #12]
      while(counter != 0)
 800183e:	e002      	b.n	8001846 <HAL_ADC_ConfigChannel+0x27a>
      {
        counter--;
 8001840:	68fb      	ldr	r3, [r7, #12]
 8001842:	3b01      	subs	r3, #1
 8001844:	60fb      	str	r3, [r7, #12]
      while(counter != 0)
 8001846:	68fb      	ldr	r3, [r7, #12]
 8001848:	2b00      	cmp	r3, #0
 800184a:	d1f9      	bne.n	8001840 <HAL_ADC_ConfigChannel+0x274>
      }
    }
  }
  
  /* Process unlocked */
  __HAL_UNLOCK(hadc);
 800184c:	687b      	ldr	r3, [r7, #4]
 800184e:	2200      	movs	r2, #0
 8001850:	f883 203c 	strb.w	r2, [r3, #60]	; 0x3c
  
  /* Return function status */
  return HAL_OK;
 8001854:	2300      	movs	r3, #0
}
 8001856:	4618      	mov	r0, r3
 8001858:	3714      	adds	r7, #20
 800185a:	46bd      	mov	sp, r7
 800185c:	f85d 7b04 	ldr.w	r7, [sp], #4
 8001860:	4770      	bx	lr
 8001862:	bf00      	nop
 8001864:	10000012 	.word	0x10000012
 8001868:	40012000 	.word	0x40012000
 800186c:	40012300 	.word	0x40012300
 8001870:	20000000 	.word	0x20000000
 8001874:	431bde83 	.word	0x431bde83

08001878 <ADC_Init>:
  * @param  hadc pointer to a ADC_HandleTypeDef structure that contains
  *         the configuration information for the specified ADC.  
  * @retval None
  */
static void ADC_Init(ADC_HandleTypeDef* hadc)
{
 8001878:	b480      	push	{r7}
 800187a:	b083      	sub	sp, #12
 800187c:	af00      	add	r7, sp, #0
 800187e:	6078      	str	r0, [r7, #4]
  /* Set ADC parameters */
  /* Set the ADC clock prescaler */
  ADC->CCR &= ~(ADC_CCR_ADCPRE);
 8001880:	4b78      	ldr	r3, [pc, #480]	; (8001a64 <ADC_Init+0x1ec>)
 8001882:	685b      	ldr	r3, [r3, #4]
 8001884:	4a77      	ldr	r2, [pc, #476]	; (8001a64 <ADC_Init+0x1ec>)
 8001886:	f423 3340 	bic.w	r3, r3, #196608	; 0x30000
 800188a:	6053      	str	r3, [r2, #4]
  ADC->CCR |=  hadc->Init.ClockPrescaler;
 800188c:	4b75      	ldr	r3, [pc, #468]	; (8001a64 <ADC_Init+0x1ec>)
 800188e:	685a      	ldr	r2, [r3, #4]
 8001890:	687b      	ldr	r3, [r7, #4]
 8001892:	685b      	ldr	r3, [r3, #4]
 8001894:	4973      	ldr	r1, [pc, #460]	; (8001a64 <ADC_Init+0x1ec>)
 8001896:	4313      	orrs	r3, r2
 8001898:	604b      	str	r3, [r1, #4]
  
  /* Set ADC scan mode */
  hadc->Instance->CR1 &= ~(ADC_CR1_SCAN);
 800189a:	687b      	ldr	r3, [r7, #4]
 800189c:	681b      	ldr	r3, [r3, #0]
 800189e:	685a      	ldr	r2, [r3, #4]
 80018a0:	687b      	ldr	r3, [r7, #4]
 80018a2:	681b      	ldr	r3, [r3, #0]
 80018a4:	f422 7280 	bic.w	r2, r2, #256	; 0x100
 80018a8:	605a      	str	r2, [r3, #4]
  hadc->Instance->CR1 |=  ADC_CR1_SCANCONV(hadc->Init.ScanConvMode);
 80018aa:	687b      	ldr	r3, [r7, #4]
 80018ac:	681b      	ldr	r3, [r3, #0]
 80018ae:	6859      	ldr	r1, [r3, #4]
 80018b0:	687b      	ldr	r3, [r7, #4]
 80018b2:	691b      	ldr	r3, [r3, #16]
 80018b4:	021a      	lsls	r2, r3, #8
 80018b6:	687b      	ldr	r3, [r7, #4]
 80018b8:	681b      	ldr	r3, [r3, #0]
 80018ba:	430a      	orrs	r2, r1
 80018bc:	605a      	str	r2, [r3, #4]
  
  /* Set ADC resolution */
  hadc->Instance->CR1 &= ~(ADC_CR1_RES);
 80018be:	687b      	ldr	r3, [r7, #4]
 80018c0:	681b      	ldr	r3, [r3, #0]
 80018c2:	685a      	ldr	r2, [r3, #4]
 80018c4:	687b      	ldr	r3, [r7, #4]
 80018c6:	681b      	ldr	r3, [r3, #0]
 80018c8:	f022 7240 	bic.w	r2, r2, #50331648	; 0x3000000
 80018cc:	605a      	str	r2, [r3, #4]
  hadc->Instance->CR1 |=  hadc->Init.Resolution;
 80018ce:	687b      	ldr	r3, [r7, #4]
 80018d0:	681b      	ldr	r3, [r3, #0]
 80018d2:	6859      	ldr	r1, [r3, #4]
 80018d4:	687b      	ldr	r3, [r7, #4]
 80018d6:	689a      	ldr	r2, [r3, #8]
 80018d8:	687b      	ldr	r3, [r7, #4]
 80018da:	681b      	ldr	r3, [r3, #0]
 80018dc:	430a      	orrs	r2, r1
 80018de:	605a      	str	r2, [r3, #4]
  
  /* Set ADC data alignment */
  hadc->Instance->CR2 &= ~(ADC_CR2_ALIGN);
 80018e0:	687b      	ldr	r3, [r7, #4]
 80018e2:	681b      	ldr	r3, [r3, #0]
 80018e4:	689a      	ldr	r2, [r3, #8]
 80018e6:	687b      	ldr	r3, [r7, #4]
 80018e8:	681b      	ldr	r3, [r3, #0]
 80018ea:	f422 6200 	bic.w	r2, r2, #2048	; 0x800
 80018ee:	609a      	str	r2, [r3, #8]
  hadc->Instance->CR2 |= hadc->Init.DataAlign;
 80018f0:	687b      	ldr	r3, [r7, #4]
 80018f2:	681b      	ldr	r3, [r3, #0]
 80018f4:	6899      	ldr	r1, [r3, #8]
 80018f6:	687b      	ldr	r3, [r7, #4]
 80018f8:	68da      	ldr	r2, [r3, #12]
 80018fa:	687b      	ldr	r3, [r7, #4]
 80018fc:	681b      	ldr	r3, [r3, #0]
 80018fe:	430a      	orrs	r2, r1
 8001900:	609a      	str	r2, [r3, #8]
  /* Enable external trigger if trigger selection is different of software  */
  /* start.                                                                 */
  /* Note: This configuration keeps the hardware feature of parameter       */
  /*       ExternalTrigConvEdge "trigger edge none" equivalent to           */
  /*       software start.                                                  */
  if(hadc->Init.ExternalTrigConv != ADC_SOFTWARE_START)
 8001902:	687b      	ldr	r3, [r7, #4]
 8001904:	6a9b      	ldr	r3, [r3, #40]	; 0x28
 8001906:	4a58      	ldr	r2, [pc, #352]	; (8001a68 <ADC_Init+0x1f0>)
 8001908:	4293      	cmp	r3, r2
 800190a:	d022      	beq.n	8001952 <ADC_Init+0xda>
  {
    /* Select external trigger to start conversion */
    hadc->Instance->CR2 &= ~(ADC_CR2_EXTSEL);
 800190c:	687b      	ldr	r3, [r7, #4]
 800190e:	681b      	ldr	r3, [r3, #0]
 8001910:	689a      	ldr	r2, [r3, #8]
 8001912:	687b      	ldr	r3, [r7, #4]
 8001914:	681b      	ldr	r3, [r3, #0]
 8001916:	f022 6270 	bic.w	r2, r2, #251658240	; 0xf000000
 800191a:	609a      	str	r2, [r3, #8]
    hadc->Instance->CR2 |= hadc->Init.ExternalTrigConv;
 800191c:	687b      	ldr	r3, [r7, #4]
 800191e:	681b      	ldr	r3, [r3, #0]
 8001920:	6899      	ldr	r1, [r3, #8]
 8001922:	687b      	ldr	r3, [r7, #4]
 8001924:	6a9a      	ldr	r2, [r3, #40]	; 0x28
 8001926:	687b      	ldr	r3, [r7, #4]
 8001928:	681b      	ldr	r3, [r3, #0]
 800192a:	430a      	orrs	r2, r1
 800192c:	609a      	str	r2, [r3, #8]
    
    /* Select external trigger polarity */
    hadc->Instance->CR2 &= ~(ADC_CR2_EXTEN);
 800192e:	687b      	ldr	r3, [r7, #4]
 8001930:	681b      	ldr	r3, [r3, #0]
 8001932:	689a      	ldr	r2, [r3, #8]
 8001934:	687b      	ldr	r3, [r7, #4]
 8001936:	681b      	ldr	r3, [r3, #0]
 8001938:	f022 5240 	bic.w	r2, r2, #805306368	; 0x30000000
 800193c:	609a      	str	r2, [r3, #8]
    hadc->Instance->CR2 |= hadc->Init.ExternalTrigConvEdge;
 800193e:	687b      	ldr	r3, [r7, #4]
 8001940:	681b      	ldr	r3, [r3, #0]
 8001942:	6899      	ldr	r1, [r3, #8]
 8001944:	687b      	ldr	r3, [r7, #4]
 8001946:	6ada      	ldr	r2, [r3, #44]	; 0x2c
 8001948:	687b      	ldr	r3, [r7, #4]
 800194a:	681b      	ldr	r3, [r3, #0]
 800194c:	430a      	orrs	r2, r1
 800194e:	609a      	str	r2, [r3, #8]
 8001950:	e00f      	b.n	8001972 <ADC_Init+0xfa>
  }
  else
  {
    /* Reset the external trigger */
    hadc->Instance->CR2 &= ~(ADC_CR2_EXTSEL);
 8001952:	687b      	ldr	r3, [r7, #4]
 8001954:	681b      	ldr	r3, [r3, #0]
 8001956:	689a      	ldr	r2, [r3, #8]
 8001958:	687b      	ldr	r3, [r7, #4]
 800195a:	681b      	ldr	r3, [r3, #0]
 800195c:	f022 6270 	bic.w	r2, r2, #251658240	; 0xf000000
 8001960:	609a      	str	r2, [r3, #8]
    hadc->Instance->CR2 &= ~(ADC_CR2_EXTEN);
 8001962:	687b      	ldr	r3, [r7, #4]
 8001964:	681b      	ldr	r3, [r3, #0]
 8001966:	689a      	ldr	r2, [r3, #8]
 8001968:	687b      	ldr	r3, [r7, #4]
 800196a:	681b      	ldr	r3, [r3, #0]
 800196c:	f022 5240 	bic.w	r2, r2, #805306368	; 0x30000000
 8001970:	609a      	str	r2, [r3, #8]
  }
  
  /* Enable or disable ADC continuous conversion mode */
  hadc->Instance->CR2 &= ~(ADC_CR2_CONT);
 8001972:	687b      	ldr	r3, [r7, #4]
 8001974:	681b      	ldr	r3, [r3, #0]
 8001976:	689a      	ldr	r2, [r3, #8]
 8001978:	687b      	ldr	r3, [r7, #4]
 800197a:	681b      	ldr	r3, [r3, #0]
 800197c:	f022 0202 	bic.w	r2, r2, #2
 8001980:	609a      	str	r2, [r3, #8]
  hadc->Instance->CR2 |= ADC_CR2_CONTINUOUS((uint32_t)hadc->Init.ContinuousConvMode);
 8001982:	687b      	ldr	r3, [r7, #4]
 8001984:	681b      	ldr	r3, [r3, #0]
 8001986:	6899      	ldr	r1, [r3, #8]
 8001988:	687b      	ldr	r3, [r7, #4]
 800198a:	699b      	ldr	r3, [r3, #24]
 800198c:	005a      	lsls	r2, r3, #1
 800198e:	687b      	ldr	r3, [r7, #4]
 8001990:	681b      	ldr	r3, [r3, #0]
 8001992:	430a      	orrs	r2, r1
 8001994:	609a      	str	r2, [r3, #8]
  
  if(hadc->Init.DiscontinuousConvMode != DISABLE)
 8001996:	687b      	ldr	r3, [r7, #4]
 8001998:	f893 3020 	ldrb.w	r3, [r3, #32]
 800199c:	2b00      	cmp	r3, #0
 800199e:	d01b      	beq.n	80019d8 <ADC_Init+0x160>
  {
    assert_param(IS_ADC_REGULAR_DISC_NUMBER(hadc->Init.NbrOfDiscConversion));
  
    /* Enable the selected ADC regular discontinuous mode */
    hadc->Instance->CR1 |= (uint32_t)ADC_CR1_DISCEN;
 80019a0:	687b      	ldr	r3, [r7, #4]
 80019a2:	681b      	ldr	r3, [r3, #0]
 80019a4:	685a      	ldr	r2, [r3, #4]
 80019a6:	687b      	ldr	r3, [r7, #4]
 80019a8:	681b      	ldr	r3, [r3, #0]
 80019aa:	f442 6200 	orr.w	r2, r2, #2048	; 0x800
 80019ae:	605a      	str	r2, [r3, #4]
    
    /* Set the number of channels to be converted in discontinuous mode */
    hadc->Instance->CR1 &= ~(ADC_CR1_DISCNUM);
 80019b0:	687b      	ldr	r3, [r7, #4]
 80019b2:	681b      	ldr	r3, [r3, #0]
 80019b4:	685a      	ldr	r2, [r3, #4]
 80019b6:	687b      	ldr	r3, [r7, #4]
 80019b8:	681b      	ldr	r3, [r3, #0]
 80019ba:	f422 4260 	bic.w	r2, r2, #57344	; 0xe000
 80019be:	605a      	str	r2, [r3, #4]
    hadc->Instance->CR1 |=  ADC_CR1_DISCONTINUOUS(hadc->Init.NbrOfDiscConversion);
 80019c0:	687b      	ldr	r3, [r7, #4]
 80019c2:	681b      	ldr	r3, [r3, #0]
 80019c4:	6859      	ldr	r1, [r3, #4]
 80019c6:	687b      	ldr	r3, [r7, #4]
 80019c8:	6a5b      	ldr	r3, [r3, #36]	; 0x24
 80019ca:	3b01      	subs	r3, #1
 80019cc:	035a      	lsls	r2, r3, #13
 80019ce:	687b      	ldr	r3, [r7, #4]
 80019d0:	681b      	ldr	r3, [r3, #0]
 80019d2:	430a      	orrs	r2, r1
 80019d4:	605a      	str	r2, [r3, #4]
 80019d6:	e007      	b.n	80019e8 <ADC_Init+0x170>
  }
  else
  {
    /* Disable the selected ADC regular discontinuous mode */
    hadc->Instance->CR1 &= ~(ADC_CR1_DISCEN);
 80019d8:	687b      	ldr	r3, [r7, #4]
 80019da:	681b      	ldr	r3, [r3, #0]
 80019dc:	685a      	ldr	r2, [r3, #4]
 80019de:	687b      	ldr	r3, [r7, #4]
 80019e0:	681b      	ldr	r3, [r3, #0]
 80019e2:	f422 6200 	bic.w	r2, r2, #2048	; 0x800
 80019e6:	605a      	str	r2, [r3, #4]
  }
  
  /* Set ADC number of conversion */
  hadc->Instance->SQR1 &= ~(ADC_SQR1_L);
 80019e8:	687b      	ldr	r3, [r7, #4]
 80019ea:	681b      	ldr	r3, [r3, #0]
 80019ec:	6ada      	ldr	r2, [r3, #44]	; 0x2c
 80019ee:	687b      	ldr	r3, [r7, #4]
 80019f0:	681b      	ldr	r3, [r3, #0]
 80019f2:	f422 0270 	bic.w	r2, r2, #15728640	; 0xf00000
 80019f6:	62da      	str	r2, [r3, #44]	; 0x2c
  hadc->Instance->SQR1 |=  ADC_SQR1(hadc->Init.NbrOfConversion);
 80019f8:	687b      	ldr	r3, [r7, #4]
 80019fa:	681b      	ldr	r3, [r3, #0]
 80019fc:	6ad9      	ldr	r1, [r3, #44]	; 0x2c
 80019fe:	687b      	ldr	r3, [r7, #4]
 8001a00:	69db      	ldr	r3, [r3, #28]
 8001a02:	3b01      	subs	r3, #1
 8001a04:	051a      	lsls	r2, r3, #20
 8001a06:	687b      	ldr	r3, [r7, #4]
 8001a08:	681b      	ldr	r3, [r3, #0]
 8001a0a:	430a      	orrs	r2, r1
 8001a0c:	62da      	str	r2, [r3, #44]	; 0x2c
  
  /* Enable or disable ADC DMA continuous request */
  hadc->Instance->CR2 &= ~(ADC_CR2_DDS);
 8001a0e:	687b      	ldr	r3, [r7, #4]
 8001a10:	681b      	ldr	r3, [r3, #0]
 8001a12:	689a      	ldr	r2, [r3, #8]
 8001a14:	687b      	ldr	r3, [r7, #4]
 8001a16:	681b      	ldr	r3, [r3, #0]
 8001a18:	f422 7200 	bic.w	r2, r2, #512	; 0x200
 8001a1c:	609a      	str	r2, [r3, #8]
  hadc->Instance->CR2 |= ADC_CR2_DMAContReq((uint32_t)hadc->Init.DMAContinuousRequests);
 8001a1e:	687b      	ldr	r3, [r7, #4]
 8001a20:	681b      	ldr	r3, [r3, #0]
 8001a22:	6899      	ldr	r1, [r3, #8]
 8001a24:	687b      	ldr	r3, [r7, #4]
 8001a26:	f893 3030 	ldrb.w	r3, [r3, #48]	; 0x30
 8001a2a:	025a      	lsls	r2, r3, #9
 8001a2c:	687b      	ldr	r3, [r7, #4]
 8001a2e:	681b      	ldr	r3, [r3, #0]
 8001a30:	430a      	orrs	r2, r1
 8001a32:	609a      	str	r2, [r3, #8]
  
  /* Enable or disable ADC end of conversion selection */
  hadc->Instance->CR2 &= ~(ADC_CR2_EOCS);
 8001a34:	687b      	ldr	r3, [r7, #4]
 8001a36:	681b      	ldr	r3, [r3, #0]
 8001a38:	689a      	ldr	r2, [r3, #8]
 8001a3a:	687b      	ldr	r3, [r7, #4]
 8001a3c:	681b      	ldr	r3, [r3, #0]
 8001a3e:	f422 6280 	bic.w	r2, r2, #1024	; 0x400
 8001a42:	609a      	str	r2, [r3, #8]
  hadc->Instance->CR2 |= ADC_CR2_EOCSelection(hadc->Init.EOCSelection);
 8001a44:	687b      	ldr	r3, [r7, #4]
 8001a46:	681b      	ldr	r3, [r3, #0]
 8001a48:	6899      	ldr	r1, [r3, #8]
 8001a4a:	687b      	ldr	r3, [r7, #4]
 8001a4c:	695b      	ldr	r3, [r3, #20]
 8001a4e:	029a      	lsls	r2, r3, #10
 8001a50:	687b      	ldr	r3, [r7, #4]
 8001a52:	681b      	ldr	r3, [r3, #0]
 8001a54:	430a      	orrs	r2, r1
 8001a56:	609a      	str	r2, [r3, #8]
}
 8001a58:	bf00      	nop
 8001a5a:	370c      	adds	r7, #12
 8001a5c:	46bd      	mov	sp, r7
 8001a5e:	f85d 7b04 	ldr.w	r7, [sp], #4
 8001a62:	4770      	bx	lr
 8001a64:	40012300 	.word	0x40012300
 8001a68:	0f000001 	.word	0x0f000001

08001a6c <__NVIC_SetPriorityGrouping>:
           In case of a conflict between priority grouping and available
           priority bits (__NVIC_PRIO_BITS), the smallest possible priority group is set.
  \param [in]      PriorityGroup  Priority grouping field.
 */
__STATIC_INLINE void __NVIC_SetPriorityGrouping(uint32_t PriorityGroup)
{
 8001a6c:	b480      	push	{r7}
 8001a6e:	b085      	sub	sp, #20
 8001a70:	af00      	add	r7, sp, #0
 8001a72:	6078      	str	r0, [r7, #4]
  uint32_t reg_value;
  uint32_t PriorityGroupTmp = (PriorityGroup & (uint32_t)0x07UL);             /* only values 0..7 are used          */
 8001a74:	687b      	ldr	r3, [r7, #4]
 8001a76:	f003 0307 	and.w	r3, r3, #7
 8001a7a:	60fb      	str	r3, [r7, #12]

  reg_value  =  SCB->AIRCR;                                                   /* read old register configuration    */
 8001a7c:	4b0b      	ldr	r3, [pc, #44]	; (8001aac <__NVIC_SetPriorityGrouping+0x40>)
 8001a7e:	68db      	ldr	r3, [r3, #12]
 8001a80:	60bb      	str	r3, [r7, #8]
  reg_value &= ~((uint32_t)(SCB_AIRCR_VECTKEY_Msk | SCB_AIRCR_PRIGROUP_Msk)); /* clear bits to change               */
 8001a82:	68ba      	ldr	r2, [r7, #8]
 8001a84:	f64f 03ff 	movw	r3, #63743	; 0xf8ff
 8001a88:	4013      	ands	r3, r2
 8001a8a:	60bb      	str	r3, [r7, #8]
  reg_value  =  (reg_value                                   |
                ((uint32_t)0x5FAUL << SCB_AIRCR_VECTKEY_Pos) |
                (PriorityGroupTmp << SCB_AIRCR_PRIGROUP_Pos)  );              /* Insert write key and priority group */
 8001a8c:	68fb      	ldr	r3, [r7, #12]
 8001a8e:	021a      	lsls	r2, r3, #8
                ((uint32_t)0x5FAUL << SCB_AIRCR_VECTKEY_Pos) |
 8001a90:	68bb      	ldr	r3, [r7, #8]
 8001a92:	431a      	orrs	r2, r3
  reg_value  =  (reg_value                                   |
 8001a94:	4b06      	ldr	r3, [pc, #24]	; (8001ab0 <__NVIC_SetPriorityGrouping+0x44>)
 8001a96:	4313      	orrs	r3, r2
 8001a98:	60bb      	str	r3, [r7, #8]
  SCB->AIRCR =  reg_value;
 8001a9a:	4a04      	ldr	r2, [pc, #16]	; (8001aac <__NVIC_SetPriorityGrouping+0x40>)
 8001a9c:	68bb      	ldr	r3, [r7, #8]
 8001a9e:	60d3      	str	r3, [r2, #12]
}
 8001aa0:	bf00      	nop
 8001aa2:	3714      	adds	r7, #20
 8001aa4:	46bd      	mov	sp, r7
 8001aa6:	f85d 7b04 	ldr.w	r7, [sp], #4
 8001aaa:	4770      	bx	lr
 8001aac:	e000ed00 	.word	0xe000ed00
 8001ab0:	05fa0000 	.word	0x05fa0000

08001ab4 <__NVIC_GetPriorityGrouping>:
  \brief   Get Priority Grouping
  \details Reads the priority grouping field from the NVIC Interrupt Controller.
  \return                Priority grouping field (SCB->AIRCR [10:8] PRIGROUP field).
 */
__STATIC_INLINE uint32_t __NVIC_GetPriorityGrouping(void)
{
 8001ab4:	b480      	push	{r7}
 8001ab6:	af00      	add	r7, sp, #0
  return ((uint32_t)((SCB->AIRCR & SCB_AIRCR_PRIGROUP_Msk) >> SCB_AIRCR_PRIGROUP_Pos));
 8001ab8:	4b04      	ldr	r3, [pc, #16]	; (8001acc <__NVIC_GetPriorityGrouping+0x18>)
 8001aba:	68db      	ldr	r3, [r3, #12]
 8001abc:	0a1b      	lsrs	r3, r3, #8
 8001abe:	f003 0307 	and.w	r3, r3, #7
}
 8001ac2:	4618      	mov	r0, r3
 8001ac4:	46bd      	mov	sp, r7
 8001ac6:	f85d 7b04 	ldr.w	r7, [sp], #4
 8001aca:	4770      	bx	lr
 8001acc:	e000ed00 	.word	0xe000ed00

08001ad0 <__NVIC_SetPriority>:
  \param [in]      IRQn  Interrupt number.
  \param [in]  priority  Priority to set.
  \note    The priority cannot be set for every processor exception.
 */
__STATIC_INLINE void __NVIC_SetPriority(IRQn_Type IRQn, uint32_t priority)
{
 8001ad0:	b480      	push	{r7}
 8001ad2:	b083      	sub	sp, #12
 8001ad4:	af00      	add	r7, sp, #0
 8001ad6:	4603      	mov	r3, r0
 8001ad8:	6039      	str	r1, [r7, #0]
 8001ada:	71fb      	strb	r3, [r7, #7]
  if ((int32_t)(IRQn) >= 0)
 8001adc:	f997 3007 	ldrsb.w	r3, [r7, #7]
 8001ae0:	2b00      	cmp	r3, #0
 8001ae2:	db0a      	blt.n	8001afa <__NVIC_SetPriority+0x2a>
  {
    NVIC->IP[((uint32_t)IRQn)]                = (uint8_t)((priority << (8U - __NVIC_PRIO_BITS)) & (uint32_t)0xFFUL);
 8001ae4:	683b      	ldr	r3, [r7, #0]
 8001ae6:	b2da      	uxtb	r2, r3
 8001ae8:	490c      	ldr	r1, [pc, #48]	; (8001b1c <__NVIC_SetPriority+0x4c>)
 8001aea:	f997 3007 	ldrsb.w	r3, [r7, #7]
 8001aee:	0112      	lsls	r2, r2, #4
 8001af0:	b2d2      	uxtb	r2, r2
 8001af2:	440b      	add	r3, r1
 8001af4:	f883 2300 	strb.w	r2, [r3, #768]	; 0x300
  }
  else
  {
    SCB->SHPR[(((uint32_t)IRQn) & 0xFUL)-4UL] = (uint8_t)((priority << (8U - __NVIC_PRIO_BITS)) & (uint32_t)0xFFUL);
  }
}
 8001af8:	e00a      	b.n	8001b10 <__NVIC_SetPriority+0x40>
    SCB->SHPR[(((uint32_t)IRQn) & 0xFUL)-4UL] = (uint8_t)((priority << (8U - __NVIC_PRIO_BITS)) & (uint32_t)0xFFUL);
 8001afa:	683b      	ldr	r3, [r7, #0]
 8001afc:	b2da      	uxtb	r2, r3
 8001afe:	4908      	ldr	r1, [pc, #32]	; (8001b20 <__NVIC_SetPriority+0x50>)
 8001b00:	79fb      	ldrb	r3, [r7, #7]
 8001b02:	f003 030f 	and.w	r3, r3, #15
 8001b06:	3b04      	subs	r3, #4
 8001b08:	0112      	lsls	r2, r2, #4
 8001b0a:	b2d2      	uxtb	r2, r2
 8001b0c:	440b      	add	r3, r1
 8001b0e:	761a      	strb	r2, [r3, #24]
}
 8001b10:	bf00      	nop
 8001b12:	370c      	adds	r7, #12
 8001b14:	46bd      	mov	sp, r7
 8001b16:	f85d 7b04 	ldr.w	r7, [sp], #4
 8001b1a:	4770      	bx	lr
 8001b1c:	e000e100 	.word	0xe000e100
 8001b20:	e000ed00 	.word	0xe000ed00

08001b24 <NVIC_EncodePriority>:
  \param [in]   PreemptPriority  Preemptive priority value (starting from 0).
  \param [in]       SubPriority  Subpriority value (starting from 0).
  \return                        Encoded priority. Value can be used in the function \ref NVIC_SetPriority().
 */
__STATIC_INLINE uint32_t NVIC_EncodePriority (uint32_t PriorityGroup, uint32_t PreemptPriority, uint32_t SubPriority)
{
 8001b24:	b480      	push	{r7}
 8001b26:	b089      	sub	sp, #36	; 0x24
 8001b28:	af00      	add	r7, sp, #0
 8001b2a:	60f8      	str	r0, [r7, #12]
 8001b2c:	60b9      	str	r1, [r7, #8]
 8001b2e:	607a      	str	r2, [r7, #4]
  uint32_t PriorityGroupTmp = (PriorityGroup & (uint32_t)0x07UL);   /* only values 0..7 are used          */
 8001b30:	68fb      	ldr	r3, [r7, #12]
 8001b32:	f003 0307 	and.w	r3, r3, #7
 8001b36:	61fb      	str	r3, [r7, #28]
  uint32_t PreemptPriorityBits;
  uint32_t SubPriorityBits;

  PreemptPriorityBits = ((7UL - PriorityGroupTmp) > (uint32_t)(__NVIC_PRIO_BITS)) ? (uint32_t)(__NVIC_PRIO_BITS) : (uint32_t)(7UL - PriorityGroupTmp);
 8001b38:	69fb      	ldr	r3, [r7, #28]
 8001b3a:	f1c3 0307 	rsb	r3, r3, #7
 8001b3e:	2b04      	cmp	r3, #4
 8001b40:	bf28      	it	cs
 8001b42:	2304      	movcs	r3, #4
 8001b44:	61bb      	str	r3, [r7, #24]
  SubPriorityBits     = ((PriorityGroupTmp + (uint32_t)(__NVIC_PRIO_BITS)) < (uint32_t)7UL) ? (uint32_t)0UL : (uint32_t)((PriorityGroupTmp - 7UL) + (uint32_t)(__NVIC_PRIO_BITS));
 8001b46:	69fb      	ldr	r3, [r7, #28]
 8001b48:	3304      	adds	r3, #4
 8001b4a:	2b06      	cmp	r3, #6
 8001b4c:	d902      	bls.n	8001b54 <NVIC_EncodePriority+0x30>
 8001b4e:	69fb      	ldr	r3, [r7, #28]
 8001b50:	3b03      	subs	r3, #3
 8001b52:	e000      	b.n	8001b56 <NVIC_EncodePriority+0x32>
 8001b54:	2300      	movs	r3, #0
 8001b56:	617b      	str	r3, [r7, #20]

  return (
           ((PreemptPriority & (uint32_t)((1UL << (PreemptPriorityBits)) - 1UL)) << SubPriorityBits) |
 8001b58:	f04f 32ff 	mov.w	r2, #4294967295
 8001b5c:	69bb      	ldr	r3, [r7, #24]
 8001b5e:	fa02 f303 	lsl.w	r3, r2, r3
 8001b62:	43da      	mvns	r2, r3
 8001b64:	68bb      	ldr	r3, [r7, #8]
 8001b66:	401a      	ands	r2, r3
 8001b68:	697b      	ldr	r3, [r7, #20]
 8001b6a:	409a      	lsls	r2, r3
           ((SubPriority     & (uint32_t)((1UL << (SubPriorityBits    )) - 1UL)))
 8001b6c:	f04f 31ff 	mov.w	r1, #4294967295
 8001b70:	697b      	ldr	r3, [r7, #20]
 8001b72:	fa01 f303 	lsl.w	r3, r1, r3
 8001b76:	43d9      	mvns	r1, r3
 8001b78:	687b      	ldr	r3, [r7, #4]
 8001b7a:	400b      	ands	r3, r1
           ((PreemptPriority & (uint32_t)((1UL << (PreemptPriorityBits)) - 1UL)) << SubPriorityBits) |
 8001b7c:	4313      	orrs	r3, r2
         );
}
 8001b7e:	4618      	mov	r0, r3
 8001b80:	3724      	adds	r7, #36	; 0x24
 8001b82:	46bd      	mov	sp, r7
 8001b84:	f85d 7b04 	ldr.w	r7, [sp], #4
 8001b88:	4770      	bx	lr
	...

08001b8c <SysTick_Config>:
  \note    When the variable <b>__Vendor_SysTickConfig</b> is set to 1, then the
           function <b>SysTick_Config</b> is not included. In this case, the file <b><i>device</i>.h</b>
           must contain a vendor-specific implementation of this function.
 */
__STATIC_INLINE uint32_t SysTick_Config(uint32_t ticks)
{
 8001b8c:	b580      	push	{r7, lr}
 8001b8e:	b082      	sub	sp, #8
 8001b90:	af00      	add	r7, sp, #0
 8001b92:	6078      	str	r0, [r7, #4]
  if ((ticks - 1UL) > SysTick_LOAD_RELOAD_Msk)
 8001b94:	687b      	ldr	r3, [r7, #4]
 8001b96:	3b01      	subs	r3, #1
 8001b98:	f1b3 7f80 	cmp.w	r3, #16777216	; 0x1000000
 8001b9c:	d301      	bcc.n	8001ba2 <SysTick_Config+0x16>
  {
    return (1UL);                                                   /* Reload value impossible */
 8001b9e:	2301      	movs	r3, #1
 8001ba0:	e00f      	b.n	8001bc2 <SysTick_Config+0x36>
  }

  SysTick->LOAD  = (uint32_t)(ticks - 1UL);                         /* set reload register */
 8001ba2:	4a0a      	ldr	r2, [pc, #40]	; (8001bcc <SysTick_Config+0x40>)
 8001ba4:	687b      	ldr	r3, [r7, #4]
 8001ba6:	3b01      	subs	r3, #1
 8001ba8:	6053      	str	r3, [r2, #4]
  NVIC_SetPriority (SysTick_IRQn, (1UL << __NVIC_PRIO_BITS) - 1UL); /* set Priority for Systick Interrupt */
 8001baa:	210f      	movs	r1, #15
 8001bac:	f04f 30ff 	mov.w	r0, #4294967295
 8001bb0:	f7ff ff8e 	bl	8001ad0 <__NVIC_SetPriority>
  SysTick->VAL   = 0UL;                                             /* Load the SysTick Counter Value */
 8001bb4:	4b05      	ldr	r3, [pc, #20]	; (8001bcc <SysTick_Config+0x40>)
 8001bb6:	2200      	movs	r2, #0
 8001bb8:	609a      	str	r2, [r3, #8]
  SysTick->CTRL  = SysTick_CTRL_CLKSOURCE_Msk |
 8001bba:	4b04      	ldr	r3, [pc, #16]	; (8001bcc <SysTick_Config+0x40>)
 8001bbc:	2207      	movs	r2, #7
 8001bbe:	601a      	str	r2, [r3, #0]
                   SysTick_CTRL_TICKINT_Msk   |
                   SysTick_CTRL_ENABLE_Msk;                         /* Enable SysTick IRQ and SysTick Timer */
  return (0UL);                                                     /* Function successful */
 8001bc0:	2300      	movs	r3, #0
}
 8001bc2:	4618      	mov	r0, r3
 8001bc4:	3708      	adds	r7, #8
 8001bc6:	46bd      	mov	sp, r7
 8001bc8:	bd80      	pop	{r7, pc}
 8001bca:	bf00      	nop
 8001bcc:	e000e010 	.word	0xe000e010

08001bd0 <HAL_NVIC_SetPriorityGrouping>:
  * @note   When the NVIC_PriorityGroup_0 is selected, IRQ preemption is no more possible. 
  *         The pending IRQ priority will be managed only by the subpriority. 
  * @retval None
  */
void HAL_NVIC_SetPriorityGrouping(uint32_t PriorityGroup)
{
 8001bd0:	b580      	push	{r7, lr}
 8001bd2:	b082      	sub	sp, #8
 8001bd4:	af00      	add	r7, sp, #0
 8001bd6:	6078      	str	r0, [r7, #4]
  /* Check the parameters */
  assert_param(IS_NVIC_PRIORITY_GROUP(PriorityGroup));
  
  /* Set the PRIGROUP[10:8] bits according to the PriorityGroup parameter value */
  NVIC_SetPriorityGrouping(PriorityGroup);
 8001bd8:	6878      	ldr	r0, [r7, #4]
 8001bda:	f7ff ff47 	bl	8001a6c <__NVIC_SetPriorityGrouping>
}
 8001bde:	bf00      	nop
 8001be0:	3708      	adds	r7, #8
 8001be2:	46bd      	mov	sp, r7
 8001be4:	bd80      	pop	{r7, pc}

08001be6 <HAL_NVIC_SetPriority>:
  *         This parameter can be a value between 0 and 15
  *         A lower priority value indicates a higher priority.          
  * @retval None
  */
void HAL_NVIC_SetPriority(IRQn_Type IRQn, uint32_t PreemptPriority, uint32_t SubPriority)
{ 
 8001be6:	b580      	push	{r7, lr}
 8001be8:	b086      	sub	sp, #24
 8001bea:	af00      	add	r7, sp, #0
 8001bec:	4603      	mov	r3, r0
 8001bee:	60b9      	str	r1, [r7, #8]
 8001bf0:	607a      	str	r2, [r7, #4]
 8001bf2:	73fb      	strb	r3, [r7, #15]
  uint32_t prioritygroup = 0x00;
 8001bf4:	2300      	movs	r3, #0
 8001bf6:	617b      	str	r3, [r7, #20]
  
  /* Check the parameters */
  assert_param(IS_NVIC_SUB_PRIORITY(SubPriority));
  assert_param(IS_NVIC_PREEMPTION_PRIORITY(PreemptPriority));
  
  prioritygroup = NVIC_GetPriorityGrouping();
 8001bf8:	f7ff ff5c 	bl	8001ab4 <__NVIC_GetPriorityGrouping>
 8001bfc:	6178      	str	r0, [r7, #20]
  
  NVIC_SetPriority(IRQn, NVIC_EncodePriority(prioritygroup, PreemptPriority, SubPriority));
 8001bfe:	687a      	ldr	r2, [r7, #4]
 8001c00:	68b9      	ldr	r1, [r7, #8]
 8001c02:	6978      	ldr	r0, [r7, #20]
 8001c04:	f7ff ff8e 	bl	8001b24 <NVIC_EncodePriority>
 8001c08:	4602      	mov	r2, r0
 8001c0a:	f997 300f 	ldrsb.w	r3, [r7, #15]
 8001c0e:	4611      	mov	r1, r2
 8001c10:	4618      	mov	r0, r3
 8001c12:	f7ff ff5d 	bl	8001ad0 <__NVIC_SetPriority>
}
 8001c16:	bf00      	nop
 8001c18:	3718      	adds	r7, #24
 8001c1a:	46bd      	mov	sp, r7
 8001c1c:	bd80      	pop	{r7, pc}

08001c1e <HAL_SYSTICK_Config>:
  * @param  TicksNumb Specifies the ticks Number of ticks between two interrupts.
  * @retval status:  - 0  Function succeeded.
  *                  - 1  Function failed.
  */
uint32_t HAL_SYSTICK_Config(uint32_t TicksNumb)
{
 8001c1e:	b580      	push	{r7, lr}
 8001c20:	b082      	sub	sp, #8
 8001c22:	af00      	add	r7, sp, #0
 8001c24:	6078      	str	r0, [r7, #4]
   return SysTick_Config(TicksNumb);
 8001c26:	6878      	ldr	r0, [r7, #4]
 8001c28:	f7ff ffb0 	bl	8001b8c <SysTick_Config>
 8001c2c:	4603      	mov	r3, r0
}
 8001c2e:	4618      	mov	r0, r3
 8001c30:	3708      	adds	r7, #8
 8001c32:	46bd      	mov	sp, r7
 8001c34:	bd80      	pop	{r7, pc}
	...

08001c38 <HAL_GPIO_Init>:
  * @param  GPIO_Init pointer to a GPIO_InitTypeDef structure that contains
  *         the configuration information for the specified GPIO peripheral.
  * @retval None
  */
void HAL_GPIO_Init(GPIO_TypeDef  *GPIOx, GPIO_InitTypeDef *GPIO_Init)
{
 8001c38:	b480      	push	{r7}
 8001c3a:	b089      	sub	sp, #36	; 0x24
 8001c3c:	af00      	add	r7, sp, #0
 8001c3e:	6078      	str	r0, [r7, #4]
 8001c40:	6039      	str	r1, [r7, #0]
  uint32_t position = 0x00;
 8001c42:	2300      	movs	r3, #0
 8001c44:	61fb      	str	r3, [r7, #28]
  uint32_t ioposition = 0x00;
 8001c46:	2300      	movs	r3, #0
 8001c48:	617b      	str	r3, [r7, #20]
  uint32_t iocurrent = 0x00;
 8001c4a:	2300      	movs	r3, #0
 8001c4c:	613b      	str	r3, [r7, #16]
  uint32_t temp = 0x00;
 8001c4e:	2300      	movs	r3, #0
 8001c50:	61bb      	str	r3, [r7, #24]
  assert_param(IS_GPIO_ALL_INSTANCE(GPIOx));
  assert_param(IS_GPIO_PIN(GPIO_Init->Pin));
  assert_param(IS_GPIO_MODE(GPIO_Init->Mode));

  /* Configure the port pins */
  for(position = 0; position < GPIO_NUMBER; position++)
 8001c52:	2300      	movs	r3, #0
 8001c54:	61fb      	str	r3, [r7, #28]
 8001c56:	e175      	b.n	8001f44 <HAL_GPIO_Init+0x30c>
  {
    /* Get the IO position */
    ioposition = ((uint32_t)0x01) << position;
 8001c58:	2201      	movs	r2, #1
 8001c5a:	69fb      	ldr	r3, [r7, #28]
 8001c5c:	fa02 f303 	lsl.w	r3, r2, r3
 8001c60:	617b      	str	r3, [r7, #20]
    /* Get the current IO position */
    iocurrent = (uint32_t)(GPIO_Init->Pin) & ioposition;
 8001c62:	683b      	ldr	r3, [r7, #0]
 8001c64:	681b      	ldr	r3, [r3, #0]
 8001c66:	697a      	ldr	r2, [r7, #20]
 8001c68:	4013      	ands	r3, r2
 8001c6a:	613b      	str	r3, [r7, #16]

    if(iocurrent == ioposition)
 8001c6c:	693a      	ldr	r2, [r7, #16]
 8001c6e:	697b      	ldr	r3, [r7, #20]
 8001c70:	429a      	cmp	r2, r3
 8001c72:	f040 8164 	bne.w	8001f3e <HAL_GPIO_Init+0x306>
    {
      /*--------------------- GPIO Mode Configuration ------------------------*/
      /* In case of Output or Alternate function mode selection */
      if(((GPIO_Init->Mode & GPIO_MODE) == MODE_OUTPUT) || ((GPIO_Init->Mode & GPIO_MODE) == MODE_AF))
 8001c76:	683b      	ldr	r3, [r7, #0]
 8001c78:	685b      	ldr	r3, [r3, #4]
 8001c7a:	f003 0303 	and.w	r3, r3, #3
 8001c7e:	2b01      	cmp	r3, #1
 8001c80:	d005      	beq.n	8001c8e <HAL_GPIO_Init+0x56>
 8001c82:	683b      	ldr	r3, [r7, #0]
 8001c84:	685b      	ldr	r3, [r3, #4]
 8001c86:	f003 0303 	and.w	r3, r3, #3
 8001c8a:	2b02      	cmp	r3, #2
 8001c8c:	d130      	bne.n	8001cf0 <HAL_GPIO_Init+0xb8>
      {
        /* Check the Speed parameter */
        assert_param(IS_GPIO_SPEED(GPIO_Init->Speed));
        /* Configure the IO Speed */
        temp = GPIOx->OSPEEDR; 
 8001c8e:	687b      	ldr	r3, [r7, #4]
 8001c90:	689b      	ldr	r3, [r3, #8]
 8001c92:	61bb      	str	r3, [r7, #24]
        temp &= ~(GPIO_OSPEEDER_OSPEEDR0 << (position * 2));
 8001c94:	69fb      	ldr	r3, [r7, #28]
 8001c96:	005b      	lsls	r3, r3, #1
 8001c98:	2203      	movs	r2, #3
 8001c9a:	fa02 f303 	lsl.w	r3, r2, r3
 8001c9e:	43db      	mvns	r3, r3
 8001ca0:	69ba      	ldr	r2, [r7, #24]
 8001ca2:	4013      	ands	r3, r2
 8001ca4:	61bb      	str	r3, [r7, #24]
        temp |= (GPIO_Init->Speed << (position * 2));
 8001ca6:	683b      	ldr	r3, [r7, #0]
 8001ca8:	68da      	ldr	r2, [r3, #12]
 8001caa:	69fb      	ldr	r3, [r7, #28]
 8001cac:	005b      	lsls	r3, r3, #1
 8001cae:	fa02 f303 	lsl.w	r3, r2, r3
 8001cb2:	69ba      	ldr	r2, [r7, #24]
 8001cb4:	4313      	orrs	r3, r2
 8001cb6:	61bb      	str	r3, [r7, #24]
        GPIOx->OSPEEDR = temp;
 8001cb8:	687b      	ldr	r3, [r7, #4]
 8001cba:	69ba      	ldr	r2, [r7, #24]
 8001cbc:	609a      	str	r2, [r3, #8]

        /* Configure the IO Output Type */
        temp = GPIOx->OTYPER;
 8001cbe:	687b      	ldr	r3, [r7, #4]
 8001cc0:	685b      	ldr	r3, [r3, #4]
 8001cc2:	61bb      	str	r3, [r7, #24]
        temp &= ~(GPIO_OTYPER_OT_0 << position) ;
 8001cc4:	2201      	movs	r2, #1
 8001cc6:	69fb      	ldr	r3, [r7, #28]
 8001cc8:	fa02 f303 	lsl.w	r3, r2, r3
 8001ccc:	43db      	mvns	r3, r3
 8001cce:	69ba      	ldr	r2, [r7, #24]
 8001cd0:	4013      	ands	r3, r2
 8001cd2:	61bb      	str	r3, [r7, #24]
        temp |= (((GPIO_Init->Mode & OUTPUT_TYPE) >> OUTPUT_TYPE_Pos) << position);
 8001cd4:	683b      	ldr	r3, [r7, #0]
 8001cd6:	685b      	ldr	r3, [r3, #4]
 8001cd8:	091b      	lsrs	r3, r3, #4
 8001cda:	f003 0201 	and.w	r2, r3, #1
 8001cde:	69fb      	ldr	r3, [r7, #28]
 8001ce0:	fa02 f303 	lsl.w	r3, r2, r3
 8001ce4:	69ba      	ldr	r2, [r7, #24]
 8001ce6:	4313      	orrs	r3, r2
 8001ce8:	61bb      	str	r3, [r7, #24]
        GPIOx->OTYPER = temp;
 8001cea:	687b      	ldr	r3, [r7, #4]
 8001cec:	69ba      	ldr	r2, [r7, #24]
 8001cee:	605a      	str	r2, [r3, #4]
      }
      
      if((GPIO_Init->Mode & GPIO_MODE) != MODE_ANALOG)
 8001cf0:	683b      	ldr	r3, [r7, #0]
 8001cf2:	685b      	ldr	r3, [r3, #4]
 8001cf4:	f003 0303 	and.w	r3, r3, #3
 8001cf8:	2b03      	cmp	r3, #3
 8001cfa:	d017      	beq.n	8001d2c <HAL_GPIO_Init+0xf4>
      {
        /* Check the Pull parameter */
        assert_param(IS_GPIO_PULL(GPIO_Init->Pull));

        /* Activate the Pull-up or Pull down resistor for the current IO */
        temp = GPIOx->PUPDR;
 8001cfc:	687b      	ldr	r3, [r7, #4]
 8001cfe:	68db      	ldr	r3, [r3, #12]
 8001d00:	61bb      	str	r3, [r7, #24]
        temp &= ~(GPIO_PUPDR_PUPDR0 << (position * 2));
 8001d02:	69fb      	ldr	r3, [r7, #28]
 8001d04:	005b      	lsls	r3, r3, #1
 8001d06:	2203      	movs	r2, #3
 8001d08:	fa02 f303 	lsl.w	r3, r2, r3
 8001d0c:	43db      	mvns	r3, r3
 8001d0e:	69ba      	ldr	r2, [r7, #24]
 8001d10:	4013      	ands	r3, r2
 8001d12:	61bb      	str	r3, [r7, #24]
        temp |= ((GPIO_Init->Pull) << (position * 2));
 8001d14:	683b      	ldr	r3, [r7, #0]
 8001d16:	689a      	ldr	r2, [r3, #8]
 8001d18:	69fb      	ldr	r3, [r7, #28]
 8001d1a:	005b      	lsls	r3, r3, #1
 8001d1c:	fa02 f303 	lsl.w	r3, r2, r3
 8001d20:	69ba      	ldr	r2, [r7, #24]
 8001d22:	4313      	orrs	r3, r2
 8001d24:	61bb      	str	r3, [r7, #24]
        GPIOx->PUPDR = temp;
 8001d26:	687b      	ldr	r3, [r7, #4]
 8001d28:	69ba      	ldr	r2, [r7, #24]
 8001d2a:	60da      	str	r2, [r3, #12]
      }

      /* In case of Alternate function mode selection */
      if((GPIO_Init->Mode & GPIO_MODE) == MODE_AF)
 8001d2c:	683b      	ldr	r3, [r7, #0]
 8001d2e:	685b      	ldr	r3, [r3, #4]
 8001d30:	f003 0303 	and.w	r3, r3, #3
 8001d34:	2b02      	cmp	r3, #2
 8001d36:	d123      	bne.n	8001d80 <HAL_GPIO_Init+0x148>
      {
        /* Check the Alternate function parameter */
        assert_param(IS_GPIO_AF(GPIO_Init->Alternate));

        /* Configure Alternate function mapped with the current IO */
        temp = GPIOx->AFR[position >> 3];
 8001d38:	69fb      	ldr	r3, [r7, #28]
 8001d3a:	08da      	lsrs	r2, r3, #3
 8001d3c:	687b      	ldr	r3, [r7, #4]
 8001d3e:	3208      	adds	r2, #8
 8001d40:	f853 3022 	ldr.w	r3, [r3, r2, lsl #2]
 8001d44:	61bb      	str	r3, [r7, #24]
        temp &= ~((uint32_t)0xF << ((uint32_t)(position & (uint32_t)0x07) * 4)) ;
 8001d46:	69fb      	ldr	r3, [r7, #28]
 8001d48:	f003 0307 	and.w	r3, r3, #7
 8001d4c:	009b      	lsls	r3, r3, #2
 8001d4e:	220f      	movs	r2, #15
 8001d50:	fa02 f303 	lsl.w	r3, r2, r3
 8001d54:	43db      	mvns	r3, r3
 8001d56:	69ba      	ldr	r2, [r7, #24]
 8001d58:	4013      	ands	r3, r2
 8001d5a:	61bb      	str	r3, [r7, #24]
        temp |= ((uint32_t)(GPIO_Init->Alternate) << (((uint32_t)position & (uint32_t)0x07) * 4));
 8001d5c:	683b      	ldr	r3, [r7, #0]
 8001d5e:	691a      	ldr	r2, [r3, #16]
 8001d60:	69fb      	ldr	r3, [r7, #28]
 8001d62:	f003 0307 	and.w	r3, r3, #7
 8001d66:	009b      	lsls	r3, r3, #2
 8001d68:	fa02 f303 	lsl.w	r3, r2, r3
 8001d6c:	69ba      	ldr	r2, [r7, #24]
 8001d6e:	4313      	orrs	r3, r2
 8001d70:	61bb      	str	r3, [r7, #24]
        GPIOx->AFR[position >> 3] = temp;
 8001d72:	69fb      	ldr	r3, [r7, #28]
 8001d74:	08da      	lsrs	r2, r3, #3
 8001d76:	687b      	ldr	r3, [r7, #4]
 8001d78:	3208      	adds	r2, #8
 8001d7a:	69b9      	ldr	r1, [r7, #24]
 8001d7c:	f843 1022 	str.w	r1, [r3, r2, lsl #2]
      }
      
      /* Configure IO Direction mode (Input, Output, Alternate or Analog) */
      temp = GPIOx->MODER;
 8001d80:	687b      	ldr	r3, [r7, #4]
 8001d82:	681b      	ldr	r3, [r3, #0]
 8001d84:	61bb      	str	r3, [r7, #24]
      temp &= ~(GPIO_MODER_MODER0 << (position * 2));
 8001d86:	69fb      	ldr	r3, [r7, #28]
 8001d88:	005b      	lsls	r3, r3, #1
 8001d8a:	2203      	movs	r2, #3
 8001d8c:	fa02 f303 	lsl.w	r3, r2, r3
 8001d90:	43db      	mvns	r3, r3
 8001d92:	69ba      	ldr	r2, [r7, #24]
 8001d94:	4013      	ands	r3, r2
 8001d96:	61bb      	str	r3, [r7, #24]
      temp |= ((GPIO_Init->Mode & GPIO_MODE) << (position * 2));
 8001d98:	683b      	ldr	r3, [r7, #0]
 8001d9a:	685b      	ldr	r3, [r3, #4]
 8001d9c:	f003 0203 	and.w	r2, r3, #3
 8001da0:	69fb      	ldr	r3, [r7, #28]
 8001da2:	005b      	lsls	r3, r3, #1
 8001da4:	fa02 f303 	lsl.w	r3, r2, r3
 8001da8:	69ba      	ldr	r2, [r7, #24]
 8001daa:	4313      	orrs	r3, r2
 8001dac:	61bb      	str	r3, [r7, #24]
      GPIOx->MODER = temp;
 8001dae:	687b      	ldr	r3, [r7, #4]
 8001db0:	69ba      	ldr	r2, [r7, #24]
 8001db2:	601a      	str	r2, [r3, #0]

      /*--------------------- EXTI Mode Configuration ------------------------*/
      /* Configure the External Interrupt or event for the current IO */
      if((GPIO_Init->Mode & EXTI_MODE) != 0x00u)
 8001db4:	683b      	ldr	r3, [r7, #0]
 8001db6:	685b      	ldr	r3, [r3, #4]
 8001db8:	f403 3340 	and.w	r3, r3, #196608	; 0x30000
 8001dbc:	2b00      	cmp	r3, #0
 8001dbe:	f000 80be 	beq.w	8001f3e <HAL_GPIO_Init+0x306>
      {
        /* Enable SYSCFG Clock */
        __HAL_RCC_SYSCFG_CLK_ENABLE();
 8001dc2:	4b66      	ldr	r3, [pc, #408]	; (8001f5c <HAL_GPIO_Init+0x324>)
 8001dc4:	6c5b      	ldr	r3, [r3, #68]	; 0x44
 8001dc6:	4a65      	ldr	r2, [pc, #404]	; (8001f5c <HAL_GPIO_Init+0x324>)
 8001dc8:	f443 4380 	orr.w	r3, r3, #16384	; 0x4000
 8001dcc:	6453      	str	r3, [r2, #68]	; 0x44
 8001dce:	4b63      	ldr	r3, [pc, #396]	; (8001f5c <HAL_GPIO_Init+0x324>)
 8001dd0:	6c5b      	ldr	r3, [r3, #68]	; 0x44
 8001dd2:	f403 4380 	and.w	r3, r3, #16384	; 0x4000
 8001dd6:	60fb      	str	r3, [r7, #12]
 8001dd8:	68fb      	ldr	r3, [r7, #12]

        temp = SYSCFG->EXTICR[position >> 2];
 8001dda:	4a61      	ldr	r2, [pc, #388]	; (8001f60 <HAL_GPIO_Init+0x328>)
 8001ddc:	69fb      	ldr	r3, [r7, #28]
 8001dde:	089b      	lsrs	r3, r3, #2
 8001de0:	3302      	adds	r3, #2
 8001de2:	f852 3023 	ldr.w	r3, [r2, r3, lsl #2]
 8001de6:	61bb      	str	r3, [r7, #24]
        temp &= ~(((uint32_t)0x0F) << (4 * (position & 0x03)));
 8001de8:	69fb      	ldr	r3, [r7, #28]
 8001dea:	f003 0303 	and.w	r3, r3, #3
 8001dee:	009b      	lsls	r3, r3, #2
 8001df0:	220f      	movs	r2, #15
 8001df2:	fa02 f303 	lsl.w	r3, r2, r3
 8001df6:	43db      	mvns	r3, r3
 8001df8:	69ba      	ldr	r2, [r7, #24]
 8001dfa:	4013      	ands	r3, r2
 8001dfc:	61bb      	str	r3, [r7, #24]
        temp |= ((uint32_t)(GPIO_GET_INDEX(GPIOx)) << (4 * (position & 0x03)));
 8001dfe:	687b      	ldr	r3, [r7, #4]
 8001e00:	4a58      	ldr	r2, [pc, #352]	; (8001f64 <HAL_GPIO_Init+0x32c>)
 8001e02:	4293      	cmp	r3, r2
 8001e04:	d037      	beq.n	8001e76 <HAL_GPIO_Init+0x23e>
 8001e06:	687b      	ldr	r3, [r7, #4]
 8001e08:	4a57      	ldr	r2, [pc, #348]	; (8001f68 <HAL_GPIO_Init+0x330>)
 8001e0a:	4293      	cmp	r3, r2
 8001e0c:	d031      	beq.n	8001e72 <HAL_GPIO_Init+0x23a>
 8001e0e:	687b      	ldr	r3, [r7, #4]
 8001e10:	4a56      	ldr	r2, [pc, #344]	; (8001f6c <HAL_GPIO_Init+0x334>)
 8001e12:	4293      	cmp	r3, r2
 8001e14:	d02b      	beq.n	8001e6e <HAL_GPIO_Init+0x236>
 8001e16:	687b      	ldr	r3, [r7, #4]
 8001e18:	4a55      	ldr	r2, [pc, #340]	; (8001f70 <HAL_GPIO_Init+0x338>)
 8001e1a:	4293      	cmp	r3, r2
 8001e1c:	d025      	beq.n	8001e6a <HAL_GPIO_Init+0x232>
 8001e1e:	687b      	ldr	r3, [r7, #4]
 8001e20:	4a54      	ldr	r2, [pc, #336]	; (8001f74 <HAL_GPIO_Init+0x33c>)
 8001e22:	4293      	cmp	r3, r2
 8001e24:	d01f      	beq.n	8001e66 <HAL_GPIO_Init+0x22e>
 8001e26:	687b      	ldr	r3, [r7, #4]
 8001e28:	4a53      	ldr	r2, [pc, #332]	; (8001f78 <HAL_GPIO_Init+0x340>)
 8001e2a:	4293      	cmp	r3, r2
 8001e2c:	d019      	beq.n	8001e62 <HAL_GPIO_Init+0x22a>
 8001e2e:	687b      	ldr	r3, [r7, #4]
 8001e30:	4a52      	ldr	r2, [pc, #328]	; (8001f7c <HAL_GPIO_Init+0x344>)
 8001e32:	4293      	cmp	r3, r2
 8001e34:	d013      	beq.n	8001e5e <HAL_GPIO_Init+0x226>
 8001e36:	687b      	ldr	r3, [r7, #4]
 8001e38:	4a51      	ldr	r2, [pc, #324]	; (8001f80 <HAL_GPIO_Init+0x348>)
 8001e3a:	4293      	cmp	r3, r2
 8001e3c:	d00d      	beq.n	8001e5a <HAL_GPIO_Init+0x222>
 8001e3e:	687b      	ldr	r3, [r7, #4]
 8001e40:	4a50      	ldr	r2, [pc, #320]	; (8001f84 <HAL_GPIO_Init+0x34c>)
 8001e42:	4293      	cmp	r3, r2
 8001e44:	d007      	beq.n	8001e56 <HAL_GPIO_Init+0x21e>
 8001e46:	687b      	ldr	r3, [r7, #4]
 8001e48:	4a4f      	ldr	r2, [pc, #316]	; (8001f88 <HAL_GPIO_Init+0x350>)
 8001e4a:	4293      	cmp	r3, r2
 8001e4c:	d101      	bne.n	8001e52 <HAL_GPIO_Init+0x21a>
 8001e4e:	2309      	movs	r3, #9
 8001e50:	e012      	b.n	8001e78 <HAL_GPIO_Init+0x240>
 8001e52:	230a      	movs	r3, #10
 8001e54:	e010      	b.n	8001e78 <HAL_GPIO_Init+0x240>
 8001e56:	2308      	movs	r3, #8
 8001e58:	e00e      	b.n	8001e78 <HAL_GPIO_Init+0x240>
 8001e5a:	2307      	movs	r3, #7
 8001e5c:	e00c      	b.n	8001e78 <HAL_GPIO_Init+0x240>
 8001e5e:	2306      	movs	r3, #6
 8001e60:	e00a      	b.n	8001e78 <HAL_GPIO_Init+0x240>
 8001e62:	2305      	movs	r3, #5
 8001e64:	e008      	b.n	8001e78 <HAL_GPIO_Init+0x240>
 8001e66:	2304      	movs	r3, #4
 8001e68:	e006      	b.n	8001e78 <HAL_GPIO_Init+0x240>
 8001e6a:	2303      	movs	r3, #3
 8001e6c:	e004      	b.n	8001e78 <HAL_GPIO_Init+0x240>
 8001e6e:	2302      	movs	r3, #2
 8001e70:	e002      	b.n	8001e78 <HAL_GPIO_Init+0x240>
 8001e72:	2301      	movs	r3, #1
 8001e74:	e000      	b.n	8001e78 <HAL_GPIO_Init+0x240>
 8001e76:	2300      	movs	r3, #0
 8001e78:	69fa      	ldr	r2, [r7, #28]
 8001e7a:	f002 0203 	and.w	r2, r2, #3
 8001e7e:	0092      	lsls	r2, r2, #2
 8001e80:	4093      	lsls	r3, r2
 8001e82:	69ba      	ldr	r2, [r7, #24]
 8001e84:	4313      	orrs	r3, r2
 8001e86:	61bb      	str	r3, [r7, #24]
        SYSCFG->EXTICR[position >> 2] = temp;
 8001e88:	4935      	ldr	r1, [pc, #212]	; (8001f60 <HAL_GPIO_Init+0x328>)
 8001e8a:	69fb      	ldr	r3, [r7, #28]
 8001e8c:	089b      	lsrs	r3, r3, #2
 8001e8e:	3302      	adds	r3, #2
 8001e90:	69ba      	ldr	r2, [r7, #24]
 8001e92:	f841 2023 	str.w	r2, [r1, r3, lsl #2]

        /* Clear Rising Falling edge configuration */
        temp = EXTI->RTSR;
 8001e96:	4b3d      	ldr	r3, [pc, #244]	; (8001f8c <HAL_GPIO_Init+0x354>)
 8001e98:	689b      	ldr	r3, [r3, #8]
 8001e9a:	61bb      	str	r3, [r7, #24]
        temp &= ~((uint32_t)iocurrent);
 8001e9c:	693b      	ldr	r3, [r7, #16]
 8001e9e:	43db      	mvns	r3, r3
 8001ea0:	69ba      	ldr	r2, [r7, #24]
 8001ea2:	4013      	ands	r3, r2
 8001ea4:	61bb      	str	r3, [r7, #24]
        if((GPIO_Init->Mode & TRIGGER_RISING) != 0x00u)
 8001ea6:	683b      	ldr	r3, [r7, #0]
 8001ea8:	685b      	ldr	r3, [r3, #4]
 8001eaa:	f403 1380 	and.w	r3, r3, #1048576	; 0x100000
 8001eae:	2b00      	cmp	r3, #0
 8001eb0:	d003      	beq.n	8001eba <HAL_GPIO_Init+0x282>
        {
          temp |= iocurrent;
 8001eb2:	69ba      	ldr	r2, [r7, #24]
 8001eb4:	693b      	ldr	r3, [r7, #16]
 8001eb6:	4313      	orrs	r3, r2
 8001eb8:	61bb      	str	r3, [r7, #24]
        }
        EXTI->RTSR = temp;
 8001eba:	4a34      	ldr	r2, [pc, #208]	; (8001f8c <HAL_GPIO_Init+0x354>)
 8001ebc:	69bb      	ldr	r3, [r7, #24]
 8001ebe:	6093      	str	r3, [r2, #8]

        temp = EXTI->FTSR;
 8001ec0:	4b32      	ldr	r3, [pc, #200]	; (8001f8c <HAL_GPIO_Init+0x354>)
 8001ec2:	68db      	ldr	r3, [r3, #12]
 8001ec4:	61bb      	str	r3, [r7, #24]
        temp &= ~((uint32_t)iocurrent);
 8001ec6:	693b      	ldr	r3, [r7, #16]
 8001ec8:	43db      	mvns	r3, r3
 8001eca:	69ba      	ldr	r2, [r7, #24]
 8001ecc:	4013      	ands	r3, r2
 8001ece:	61bb      	str	r3, [r7, #24]
        if((GPIO_Init->Mode & TRIGGER_FALLING) != 0x00u)
 8001ed0:	683b      	ldr	r3, [r7, #0]
 8001ed2:	685b      	ldr	r3, [r3, #4]
 8001ed4:	f403 1300 	and.w	r3, r3, #2097152	; 0x200000
 8001ed8:	2b00      	cmp	r3, #0
 8001eda:	d003      	beq.n	8001ee4 <HAL_GPIO_Init+0x2ac>
        {
          temp |= iocurrent;
 8001edc:	69ba      	ldr	r2, [r7, #24]
 8001ede:	693b      	ldr	r3, [r7, #16]
 8001ee0:	4313      	orrs	r3, r2
 8001ee2:	61bb      	str	r3, [r7, #24]
        }
        EXTI->FTSR = temp;
 8001ee4:	4a29      	ldr	r2, [pc, #164]	; (8001f8c <HAL_GPIO_Init+0x354>)
 8001ee6:	69bb      	ldr	r3, [r7, #24]
 8001ee8:	60d3      	str	r3, [r2, #12]

        temp = EXTI->EMR;
 8001eea:	4b28      	ldr	r3, [pc, #160]	; (8001f8c <HAL_GPIO_Init+0x354>)
 8001eec:	685b      	ldr	r3, [r3, #4]
 8001eee:	61bb      	str	r3, [r7, #24]
        temp &= ~((uint32_t)iocurrent);
 8001ef0:	693b      	ldr	r3, [r7, #16]
 8001ef2:	43db      	mvns	r3, r3
 8001ef4:	69ba      	ldr	r2, [r7, #24]
 8001ef6:	4013      	ands	r3, r2
 8001ef8:	61bb      	str	r3, [r7, #24]
        if((GPIO_Init->Mode & EXTI_EVT) != 0x00u)
 8001efa:	683b      	ldr	r3, [r7, #0]
 8001efc:	685b      	ldr	r3, [r3, #4]
 8001efe:	f403 3300 	and.w	r3, r3, #131072	; 0x20000
 8001f02:	2b00      	cmp	r3, #0
 8001f04:	d003      	beq.n	8001f0e <HAL_GPIO_Init+0x2d6>
        {
          temp |= iocurrent;
 8001f06:	69ba      	ldr	r2, [r7, #24]
 8001f08:	693b      	ldr	r3, [r7, #16]
 8001f0a:	4313      	orrs	r3, r2
 8001f0c:	61bb      	str	r3, [r7, #24]
        }
        EXTI->EMR = temp;
 8001f0e:	4a1f      	ldr	r2, [pc, #124]	; (8001f8c <HAL_GPIO_Init+0x354>)
 8001f10:	69bb      	ldr	r3, [r7, #24]
 8001f12:	6053      	str	r3, [r2, #4]

        /* Clear EXTI line configuration */
        temp = EXTI->IMR;
 8001f14:	4b1d      	ldr	r3, [pc, #116]	; (8001f8c <HAL_GPIO_Init+0x354>)
 8001f16:	681b      	ldr	r3, [r3, #0]
 8001f18:	61bb      	str	r3, [r7, #24]
        temp &= ~((uint32_t)iocurrent);
 8001f1a:	693b      	ldr	r3, [r7, #16]
 8001f1c:	43db      	mvns	r3, r3
 8001f1e:	69ba      	ldr	r2, [r7, #24]
 8001f20:	4013      	ands	r3, r2
 8001f22:	61bb      	str	r3, [r7, #24]
        if((GPIO_Init->Mode & EXTI_IT) != 0x00u)
 8001f24:	683b      	ldr	r3, [r7, #0]
 8001f26:	685b      	ldr	r3, [r3, #4]
 8001f28:	f403 3380 	and.w	r3, r3, #65536	; 0x10000
 8001f2c:	2b00      	cmp	r3, #0
 8001f2e:	d003      	beq.n	8001f38 <HAL_GPIO_Init+0x300>
        {
          temp |= iocurrent;
 8001f30:	69ba      	ldr	r2, [r7, #24]
 8001f32:	693b      	ldr	r3, [r7, #16]
 8001f34:	4313      	orrs	r3, r2
 8001f36:	61bb      	str	r3, [r7, #24]
        }
        EXTI->IMR = temp;
 8001f38:	4a14      	ldr	r2, [pc, #80]	; (8001f8c <HAL_GPIO_Init+0x354>)
 8001f3a:	69bb      	ldr	r3, [r7, #24]
 8001f3c:	6013      	str	r3, [r2, #0]
  for(position = 0; position < GPIO_NUMBER; position++)
 8001f3e:	69fb      	ldr	r3, [r7, #28]
 8001f40:	3301      	adds	r3, #1
 8001f42:	61fb      	str	r3, [r7, #28]
 8001f44:	69fb      	ldr	r3, [r7, #28]
 8001f46:	2b0f      	cmp	r3, #15
 8001f48:	f67f ae86 	bls.w	8001c58 <HAL_GPIO_Init+0x20>
      }
    }
  }
}
 8001f4c:	bf00      	nop
 8001f4e:	bf00      	nop
 8001f50:	3724      	adds	r7, #36	; 0x24
 8001f52:	46bd      	mov	sp, r7
 8001f54:	f85d 7b04 	ldr.w	r7, [sp], #4
 8001f58:	4770      	bx	lr
 8001f5a:	bf00      	nop
 8001f5c:	40023800 	.word	0x40023800
 8001f60:	40013800 	.word	0x40013800
 8001f64:	40020000 	.word	0x40020000
 8001f68:	40020400 	.word	0x40020400
 8001f6c:	40020800 	.word	0x40020800
 8001f70:	40020c00 	.word	0x40020c00
 8001f74:	40021000 	.word	0x40021000
 8001f78:	40021400 	.word	0x40021400
 8001f7c:	40021800 	.word	0x40021800
 8001f80:	40021c00 	.word	0x40021c00
 8001f84:	40022000 	.word	0x40022000
 8001f88:	40022400 	.word	0x40022400
 8001f8c:	40013c00 	.word	0x40013c00

08001f90 <HAL_GPIO_WritePin>:
  *            @arg GPIO_PIN_RESET: to clear the port pin
  *            @arg GPIO_PIN_SET: to set the port pin
  * @retval None
  */
void HAL_GPIO_WritePin(GPIO_TypeDef* GPIOx, uint16_t GPIO_Pin, GPIO_PinState PinState)
{
 8001f90:	b480      	push	{r7}
 8001f92:	b083      	sub	sp, #12
 8001f94:	af00      	add	r7, sp, #0
 8001f96:	6078      	str	r0, [r7, #4]
 8001f98:	460b      	mov	r3, r1
 8001f9a:	807b      	strh	r3, [r7, #2]
 8001f9c:	4613      	mov	r3, r2
 8001f9e:	707b      	strb	r3, [r7, #1]
  /* Check the parameters */
  assert_param(IS_GPIO_PIN(GPIO_Pin));
  assert_param(IS_GPIO_PIN_ACTION(PinState));

  if(PinState != GPIO_PIN_RESET)
 8001fa0:	787b      	ldrb	r3, [r7, #1]
 8001fa2:	2b00      	cmp	r3, #0
 8001fa4:	d003      	beq.n	8001fae <HAL_GPIO_WritePin+0x1e>
  {
    GPIOx->BSRR = GPIO_Pin;
 8001fa6:	887a      	ldrh	r2, [r7, #2]
 8001fa8:	687b      	ldr	r3, [r7, #4]
 8001faa:	619a      	str	r2, [r3, #24]
  }
  else
  {
    GPIOx->BSRR = (uint32_t)GPIO_Pin << 16;
  }
}
 8001fac:	e003      	b.n	8001fb6 <HAL_GPIO_WritePin+0x26>
    GPIOx->BSRR = (uint32_t)GPIO_Pin << 16;
 8001fae:	887b      	ldrh	r3, [r7, #2]
 8001fb0:	041a      	lsls	r2, r3, #16
 8001fb2:	687b      	ldr	r3, [r7, #4]
 8001fb4:	619a      	str	r2, [r3, #24]
}
 8001fb6:	bf00      	nop
 8001fb8:	370c      	adds	r7, #12
 8001fba:	46bd      	mov	sp, r7
 8001fbc:	f85d 7b04 	ldr.w	r7, [sp], #4
 8001fc0:	4770      	bx	lr
	...

08001fc4 <HAL_RCC_OscConfig>:
  *         supported by this function. User should request a transition to HSE Off
  *         first and then HSE On or HSE Bypass.
  * @retval HAL status
  */
HAL_StatusTypeDef HAL_RCC_OscConfig(RCC_OscInitTypeDef  *RCC_OscInitStruct)
{
 8001fc4:	b580      	push	{r7, lr}
 8001fc6:	b086      	sub	sp, #24
 8001fc8:	af00      	add	r7, sp, #0
 8001fca:	6078      	str	r0, [r7, #4]
  uint32_t tickstart;
  uint32_t pll_config;
  FlagStatus pwrclkchanged = RESET;
 8001fcc:	2300      	movs	r3, #0
 8001fce:	75fb      	strb	r3, [r7, #23]

  /* Check Null pointer */
  if (RCC_OscInitStruct == NULL)
 8001fd0:	687b      	ldr	r3, [r7, #4]
 8001fd2:	2b00      	cmp	r3, #0
 8001fd4:	d101      	bne.n	8001fda <HAL_RCC_OscConfig+0x16>
  {
    return HAL_ERROR;
 8001fd6:	2301      	movs	r3, #1
 8001fd8:	e29b      	b.n	8002512 <HAL_RCC_OscConfig+0x54e>

  /* Check the parameters */
  assert_param(IS_RCC_OSCILLATORTYPE(RCC_OscInitStruct->OscillatorType));

  /*------------------------------- HSE Configuration ------------------------*/
  if (((RCC_OscInitStruct->OscillatorType) & RCC_OSCILLATORTYPE_HSE) == RCC_OSCILLATORTYPE_HSE)
 8001fda:	687b      	ldr	r3, [r7, #4]
 8001fdc:	681b      	ldr	r3, [r3, #0]
 8001fde:	f003 0301 	and.w	r3, r3, #1
 8001fe2:	2b00      	cmp	r3, #0
 8001fe4:	f000 8087 	beq.w	80020f6 <HAL_RCC_OscConfig+0x132>
  {
    /* Check the parameters */
    assert_param(IS_RCC_HSE(RCC_OscInitStruct->HSEState));
    /* When the HSE is used as system clock or clock source for PLL, It can not be disabled */
    if ((__HAL_RCC_GET_SYSCLK_SOURCE() == RCC_SYSCLKSOURCE_STATUS_HSE)
 8001fe8:	4b96      	ldr	r3, [pc, #600]	; (8002244 <HAL_RCC_OscConfig+0x280>)
 8001fea:	689b      	ldr	r3, [r3, #8]
 8001fec:	f003 030c 	and.w	r3, r3, #12
 8001ff0:	2b04      	cmp	r3, #4
 8001ff2:	d00c      	beq.n	800200e <HAL_RCC_OscConfig+0x4a>
        || ((__HAL_RCC_GET_SYSCLK_SOURCE() == RCC_SYSCLKSOURCE_STATUS_PLLCLK) && ((RCC->PLLCFGR & RCC_PLLCFGR_PLLSRC) == RCC_PLLCFGR_PLLSRC_HSE)))
 8001ff4:	4b93      	ldr	r3, [pc, #588]	; (8002244 <HAL_RCC_OscConfig+0x280>)
 8001ff6:	689b      	ldr	r3, [r3, #8]
 8001ff8:	f003 030c 	and.w	r3, r3, #12
 8001ffc:	2b08      	cmp	r3, #8
 8001ffe:	d112      	bne.n	8002026 <HAL_RCC_OscConfig+0x62>
 8002000:	4b90      	ldr	r3, [pc, #576]	; (8002244 <HAL_RCC_OscConfig+0x280>)
 8002002:	685b      	ldr	r3, [r3, #4]
 8002004:	f403 0380 	and.w	r3, r3, #4194304	; 0x400000
 8002008:	f5b3 0f80 	cmp.w	r3, #4194304	; 0x400000
 800200c:	d10b      	bne.n	8002026 <HAL_RCC_OscConfig+0x62>
    {
      if ((__HAL_RCC_GET_FLAG(RCC_FLAG_HSERDY) != RESET) && (RCC_OscInitStruct->HSEState == RCC_HSE_OFF))
 800200e:	4b8d      	ldr	r3, [pc, #564]	; (8002244 <HAL_RCC_OscConfig+0x280>)
 8002010:	681b      	ldr	r3, [r3, #0]
 8002012:	f403 3300 	and.w	r3, r3, #131072	; 0x20000
 8002016:	2b00      	cmp	r3, #0
 8002018:	d06c      	beq.n	80020f4 <HAL_RCC_OscConfig+0x130>
 800201a:	687b      	ldr	r3, [r7, #4]
 800201c:	685b      	ldr	r3, [r3, #4]
 800201e:	2b00      	cmp	r3, #0
 8002020:	d168      	bne.n	80020f4 <HAL_RCC_OscConfig+0x130>
      {
        return HAL_ERROR;
 8002022:	2301      	movs	r3, #1
 8002024:	e275      	b.n	8002512 <HAL_RCC_OscConfig+0x54e>
      }
    }
    else
    {
      /* Set the new HSE configuration ---------------------------------------*/
      __HAL_RCC_HSE_CONFIG(RCC_OscInitStruct->HSEState);
 8002026:	687b      	ldr	r3, [r7, #4]
 8002028:	685b      	ldr	r3, [r3, #4]
 800202a:	f5b3 3f80 	cmp.w	r3, #65536	; 0x10000
 800202e:	d106      	bne.n	800203e <HAL_RCC_OscConfig+0x7a>
 8002030:	4b84      	ldr	r3, [pc, #528]	; (8002244 <HAL_RCC_OscConfig+0x280>)
 8002032:	681b      	ldr	r3, [r3, #0]
 8002034:	4a83      	ldr	r2, [pc, #524]	; (8002244 <HAL_RCC_OscConfig+0x280>)
 8002036:	f443 3380 	orr.w	r3, r3, #65536	; 0x10000
 800203a:	6013      	str	r3, [r2, #0]
 800203c:	e02e      	b.n	800209c <HAL_RCC_OscConfig+0xd8>
 800203e:	687b      	ldr	r3, [r7, #4]
 8002040:	685b      	ldr	r3, [r3, #4]
 8002042:	2b00      	cmp	r3, #0
 8002044:	d10c      	bne.n	8002060 <HAL_RCC_OscConfig+0x9c>
 8002046:	4b7f      	ldr	r3, [pc, #508]	; (8002244 <HAL_RCC_OscConfig+0x280>)
 8002048:	681b      	ldr	r3, [r3, #0]
 800204a:	4a7e      	ldr	r2, [pc, #504]	; (8002244 <HAL_RCC_OscConfig+0x280>)
 800204c:	f423 3380 	bic.w	r3, r3, #65536	; 0x10000
 8002050:	6013      	str	r3, [r2, #0]
 8002052:	4b7c      	ldr	r3, [pc, #496]	; (8002244 <HAL_RCC_OscConfig+0x280>)
 8002054:	681b      	ldr	r3, [r3, #0]
 8002056:	4a7b      	ldr	r2, [pc, #492]	; (8002244 <HAL_RCC_OscConfig+0x280>)
 8002058:	f423 2380 	bic.w	r3, r3, #262144	; 0x40000
 800205c:	6013      	str	r3, [r2, #0]
 800205e:	e01d      	b.n	800209c <HAL_RCC_OscConfig+0xd8>
 8002060:	687b      	ldr	r3, [r7, #4]
 8002062:	685b      	ldr	r3, [r3, #4]
 8002064:	f5b3 2fa0 	cmp.w	r3, #327680	; 0x50000
 8002068:	d10c      	bne.n	8002084 <HAL_RCC_OscConfig+0xc0>
 800206a:	4b76      	ldr	r3, [pc, #472]	; (8002244 <HAL_RCC_OscConfig+0x280>)
 800206c:	681b      	ldr	r3, [r3, #0]
 800206e:	4a75      	ldr	r2, [pc, #468]	; (8002244 <HAL_RCC_OscConfig+0x280>)
 8002070:	f443 2380 	orr.w	r3, r3, #262144	; 0x40000
 8002074:	6013      	str	r3, [r2, #0]
 8002076:	4b73      	ldr	r3, [pc, #460]	; (8002244 <HAL_RCC_OscConfig+0x280>)
 8002078:	681b      	ldr	r3, [r3, #0]
 800207a:	4a72      	ldr	r2, [pc, #456]	; (8002244 <HAL_RCC_OscConfig+0x280>)
 800207c:	f443 3380 	orr.w	r3, r3, #65536	; 0x10000
 8002080:	6013      	str	r3, [r2, #0]
 8002082:	e00b      	b.n	800209c <HAL_RCC_OscConfig+0xd8>
 8002084:	4b6f      	ldr	r3, [pc, #444]	; (8002244 <HAL_RCC_OscConfig+0x280>)
 8002086:	681b      	ldr	r3, [r3, #0]
 8002088:	4a6e      	ldr	r2, [pc, #440]	; (8002244 <HAL_RCC_OscConfig+0x280>)
 800208a:	f423 3380 	bic.w	r3, r3, #65536	; 0x10000
 800208e:	6013      	str	r3, [r2, #0]
 8002090:	4b6c      	ldr	r3, [pc, #432]	; (8002244 <HAL_RCC_OscConfig+0x280>)
 8002092:	681b      	ldr	r3, [r3, #0]
 8002094:	4a6b      	ldr	r2, [pc, #428]	; (8002244 <HAL_RCC_OscConfig+0x280>)
 8002096:	f423 2380 	bic.w	r3, r3, #262144	; 0x40000
 800209a:	6013      	str	r3, [r2, #0]

      /* Check the HSE State */
      if (RCC_OscInitStruct->HSEState != RCC_HSE_OFF)
 800209c:	687b      	ldr	r3, [r7, #4]
 800209e:	685b      	ldr	r3, [r3, #4]
 80020a0:	2b00      	cmp	r3, #0
 80020a2:	d013      	beq.n	80020cc <HAL_RCC_OscConfig+0x108>
      {
        /* Get Start Tick*/
        tickstart = HAL_GetTick();
 80020a4:	f7ff f8b8 	bl	8001218 <HAL_GetTick>
 80020a8:	6138      	str	r0, [r7, #16]

        /* Wait till HSE is ready */
        while (__HAL_RCC_GET_FLAG(RCC_FLAG_HSERDY) == RESET)
 80020aa:	e008      	b.n	80020be <HAL_RCC_OscConfig+0xfa>
        {
          if ((HAL_GetTick() - tickstart) > HSE_TIMEOUT_VALUE)
 80020ac:	f7ff f8b4 	bl	8001218 <HAL_GetTick>
 80020b0:	4602      	mov	r2, r0
 80020b2:	693b      	ldr	r3, [r7, #16]
 80020b4:	1ad3      	subs	r3, r2, r3
 80020b6:	2b64      	cmp	r3, #100	; 0x64
 80020b8:	d901      	bls.n	80020be <HAL_RCC_OscConfig+0xfa>
          {
            return HAL_TIMEOUT;
 80020ba:	2303      	movs	r3, #3
 80020bc:	e229      	b.n	8002512 <HAL_RCC_OscConfig+0x54e>
        while (__HAL_RCC_GET_FLAG(RCC_FLAG_HSERDY) == RESET)
 80020be:	4b61      	ldr	r3, [pc, #388]	; (8002244 <HAL_RCC_OscConfig+0x280>)
 80020c0:	681b      	ldr	r3, [r3, #0]
 80020c2:	f403 3300 	and.w	r3, r3, #131072	; 0x20000
 80020c6:	2b00      	cmp	r3, #0
 80020c8:	d0f0      	beq.n	80020ac <HAL_RCC_OscConfig+0xe8>
 80020ca:	e014      	b.n	80020f6 <HAL_RCC_OscConfig+0x132>
        }
      }
      else
      {
        /* Get Start Tick*/
        tickstart = HAL_GetTick();
 80020cc:	f7ff f8a4 	bl	8001218 <HAL_GetTick>
 80020d0:	6138      	str	r0, [r7, #16]

        /* Wait till HSE is bypassed or disabled */
        while (__HAL_RCC_GET_FLAG(RCC_FLAG_HSERDY) != RESET)
 80020d2:	e008      	b.n	80020e6 <HAL_RCC_OscConfig+0x122>
        {
          if ((HAL_GetTick() - tickstart) > HSE_TIMEOUT_VALUE)
 80020d4:	f7ff f8a0 	bl	8001218 <HAL_GetTick>
 80020d8:	4602      	mov	r2, r0
 80020da:	693b      	ldr	r3, [r7, #16]
 80020dc:	1ad3      	subs	r3, r2, r3
 80020de:	2b64      	cmp	r3, #100	; 0x64
 80020e0:	d901      	bls.n	80020e6 <HAL_RCC_OscConfig+0x122>
          {
            return HAL_TIMEOUT;
 80020e2:	2303      	movs	r3, #3
 80020e4:	e215      	b.n	8002512 <HAL_RCC_OscConfig+0x54e>
        while (__HAL_RCC_GET_FLAG(RCC_FLAG_HSERDY) != RESET)
 80020e6:	4b57      	ldr	r3, [pc, #348]	; (8002244 <HAL_RCC_OscConfig+0x280>)
 80020e8:	681b      	ldr	r3, [r3, #0]
 80020ea:	f403 3300 	and.w	r3, r3, #131072	; 0x20000
 80020ee:	2b00      	cmp	r3, #0
 80020f0:	d1f0      	bne.n	80020d4 <HAL_RCC_OscConfig+0x110>
 80020f2:	e000      	b.n	80020f6 <HAL_RCC_OscConfig+0x132>
      if ((__HAL_RCC_GET_FLAG(RCC_FLAG_HSERDY) != RESET) && (RCC_OscInitStruct->HSEState == RCC_HSE_OFF))
 80020f4:	bf00      	nop
        }
      }
    }
  }
  /*----------------------------- HSI Configuration --------------------------*/
  if (((RCC_OscInitStruct->OscillatorType) & RCC_OSCILLATORTYPE_HSI) == RCC_OSCILLATORTYPE_HSI)
 80020f6:	687b      	ldr	r3, [r7, #4]
 80020f8:	681b      	ldr	r3, [r3, #0]
 80020fa:	f003 0302 	and.w	r3, r3, #2
 80020fe:	2b00      	cmp	r3, #0
 8002100:	d069      	beq.n	80021d6 <HAL_RCC_OscConfig+0x212>
    /* Check the parameters */
    assert_param(IS_RCC_HSI(RCC_OscInitStruct->HSIState));
    assert_param(IS_RCC_CALIBRATION_VALUE(RCC_OscInitStruct->HSICalibrationValue));

    /* Check if HSI is used as system clock or as PLL source when PLL is selected as system clock */
    if ((__HAL_RCC_GET_SYSCLK_SOURCE() == RCC_SYSCLKSOURCE_STATUS_HSI)
 8002102:	4b50      	ldr	r3, [pc, #320]	; (8002244 <HAL_RCC_OscConfig+0x280>)
 8002104:	689b      	ldr	r3, [r3, #8]
 8002106:	f003 030c 	and.w	r3, r3, #12
 800210a:	2b00      	cmp	r3, #0
 800210c:	d00b      	beq.n	8002126 <HAL_RCC_OscConfig+0x162>
        || ((__HAL_RCC_GET_SYSCLK_SOURCE() == RCC_SYSCLKSOURCE_STATUS_PLLCLK) && ((RCC->PLLCFGR & RCC_PLLCFGR_PLLSRC) == RCC_PLLCFGR_PLLSRC_HSI)))
 800210e:	4b4d      	ldr	r3, [pc, #308]	; (8002244 <HAL_RCC_OscConfig+0x280>)
 8002110:	689b      	ldr	r3, [r3, #8]
 8002112:	f003 030c 	and.w	r3, r3, #12
 8002116:	2b08      	cmp	r3, #8
 8002118:	d11c      	bne.n	8002154 <HAL_RCC_OscConfig+0x190>
 800211a:	4b4a      	ldr	r3, [pc, #296]	; (8002244 <HAL_RCC_OscConfig+0x280>)
 800211c:	685b      	ldr	r3, [r3, #4]
 800211e:	f403 0380 	and.w	r3, r3, #4194304	; 0x400000
 8002122:	2b00      	cmp	r3, #0
 8002124:	d116      	bne.n	8002154 <HAL_RCC_OscConfig+0x190>
    {
      /* When HSI is used as system clock it will not disabled */
      if ((__HAL_RCC_GET_FLAG(RCC_FLAG_HSIRDY) != RESET) && (RCC_OscInitStruct->HSIState != RCC_HSI_ON))
 8002126:	4b47      	ldr	r3, [pc, #284]	; (8002244 <HAL_RCC_OscConfig+0x280>)
 8002128:	681b      	ldr	r3, [r3, #0]
 800212a:	f003 0302 	and.w	r3, r3, #2
 800212e:	2b00      	cmp	r3, #0
 8002130:	d005      	beq.n	800213e <HAL_RCC_OscConfig+0x17a>
 8002132:	687b      	ldr	r3, [r7, #4]
 8002134:	68db      	ldr	r3, [r3, #12]
 8002136:	2b01      	cmp	r3, #1
 8002138:	d001      	beq.n	800213e <HAL_RCC_OscConfig+0x17a>
      {
        return HAL_ERROR;
 800213a:	2301      	movs	r3, #1
 800213c:	e1e9      	b.n	8002512 <HAL_RCC_OscConfig+0x54e>
      }
      /* Otherwise, just the calibration is allowed */
      else
      {
        /* Adjusts the Internal High Speed oscillator (HSI) calibration value.*/
        __HAL_RCC_HSI_CALIBRATIONVALUE_ADJUST(RCC_OscInitStruct->HSICalibrationValue);
 800213e:	4b41      	ldr	r3, [pc, #260]	; (8002244 <HAL_RCC_OscConfig+0x280>)
 8002140:	681b      	ldr	r3, [r3, #0]
 8002142:	f023 02f8 	bic.w	r2, r3, #248	; 0xf8
 8002146:	687b      	ldr	r3, [r7, #4]
 8002148:	691b      	ldr	r3, [r3, #16]
 800214a:	00db      	lsls	r3, r3, #3
 800214c:	493d      	ldr	r1, [pc, #244]	; (8002244 <HAL_RCC_OscConfig+0x280>)
 800214e:	4313      	orrs	r3, r2
 8002150:	600b      	str	r3, [r1, #0]
      if ((__HAL_RCC_GET_FLAG(RCC_FLAG_HSIRDY) != RESET) && (RCC_OscInitStruct->HSIState != RCC_HSI_ON))
 8002152:	e040      	b.n	80021d6 <HAL_RCC_OscConfig+0x212>
      }
    }
    else
    {
      /* Check the HSI State */
      if ((RCC_OscInitStruct->HSIState) != RCC_HSI_OFF)
 8002154:	687b      	ldr	r3, [r7, #4]
 8002156:	68db      	ldr	r3, [r3, #12]
 8002158:	2b00      	cmp	r3, #0
 800215a:	d023      	beq.n	80021a4 <HAL_RCC_OscConfig+0x1e0>
      {
        /* Enable the Internal High Speed oscillator (HSI). */
        __HAL_RCC_HSI_ENABLE();
 800215c:	4b39      	ldr	r3, [pc, #228]	; (8002244 <HAL_RCC_OscConfig+0x280>)
 800215e:	681b      	ldr	r3, [r3, #0]
 8002160:	4a38      	ldr	r2, [pc, #224]	; (8002244 <HAL_RCC_OscConfig+0x280>)
 8002162:	f043 0301 	orr.w	r3, r3, #1
 8002166:	6013      	str	r3, [r2, #0]

        /* Get Start Tick*/
        tickstart = HAL_GetTick();
 8002168:	f7ff f856 	bl	8001218 <HAL_GetTick>
 800216c:	6138      	str	r0, [r7, #16]

        /* Wait till HSI is ready */
        while (__HAL_RCC_GET_FLAG(RCC_FLAG_HSIRDY) == RESET)
 800216e:	e008      	b.n	8002182 <HAL_RCC_OscConfig+0x1be>
        {
          if ((HAL_GetTick() - tickstart) > HSI_TIMEOUT_VALUE)
 8002170:	f7ff f852 	bl	8001218 <HAL_GetTick>
 8002174:	4602      	mov	r2, r0
 8002176:	693b      	ldr	r3, [r7, #16]
 8002178:	1ad3      	subs	r3, r2, r3
 800217a:	2b02      	cmp	r3, #2
 800217c:	d901      	bls.n	8002182 <HAL_RCC_OscConfig+0x1be>
          {
            return HAL_TIMEOUT;
 800217e:	2303      	movs	r3, #3
 8002180:	e1c7      	b.n	8002512 <HAL_RCC_OscConfig+0x54e>
        while (__HAL_RCC_GET_FLAG(RCC_FLAG_HSIRDY) == RESET)
 8002182:	4b30      	ldr	r3, [pc, #192]	; (8002244 <HAL_RCC_OscConfig+0x280>)
 8002184:	681b      	ldr	r3, [r3, #0]
 8002186:	f003 0302 	and.w	r3, r3, #2
 800218a:	2b00      	cmp	r3, #0
 800218c:	d0f0      	beq.n	8002170 <HAL_RCC_OscConfig+0x1ac>
          }
        }

        /* Adjusts the Internal High Speed oscillator (HSI) calibration value.*/
        __HAL_RCC_HSI_CALIBRATIONVALUE_ADJUST(RCC_OscInitStruct->HSICalibrationValue);
 800218e:	4b2d      	ldr	r3, [pc, #180]	; (8002244 <HAL_RCC_OscConfig+0x280>)
 8002190:	681b      	ldr	r3, [r3, #0]
 8002192:	f023 02f8 	bic.w	r2, r3, #248	; 0xf8
 8002196:	687b      	ldr	r3, [r7, #4]
 8002198:	691b      	ldr	r3, [r3, #16]
 800219a:	00db      	lsls	r3, r3, #3
 800219c:	4929      	ldr	r1, [pc, #164]	; (8002244 <HAL_RCC_OscConfig+0x280>)
 800219e:	4313      	orrs	r3, r2
 80021a0:	600b      	str	r3, [r1, #0]
 80021a2:	e018      	b.n	80021d6 <HAL_RCC_OscConfig+0x212>
      }
      else
      {
        /* Disable the Internal High Speed oscillator (HSI). */
        __HAL_RCC_HSI_DISABLE();
 80021a4:	4b27      	ldr	r3, [pc, #156]	; (8002244 <HAL_RCC_OscConfig+0x280>)
 80021a6:	681b      	ldr	r3, [r3, #0]
 80021a8:	4a26      	ldr	r2, [pc, #152]	; (8002244 <HAL_RCC_OscConfig+0x280>)
 80021aa:	f023 0301 	bic.w	r3, r3, #1
 80021ae:	6013      	str	r3, [r2, #0]

        /* Get Start Tick*/
        tickstart = HAL_GetTick();
 80021b0:	f7ff f832 	bl	8001218 <HAL_GetTick>
 80021b4:	6138      	str	r0, [r7, #16]

        /* Wait till HSI is ready */
        while (__HAL_RCC_GET_FLAG(RCC_FLAG_HSIRDY) != RESET)
 80021b6:	e008      	b.n	80021ca <HAL_RCC_OscConfig+0x206>
        {
          if ((HAL_GetTick() - tickstart) > HSI_TIMEOUT_VALUE)
 80021b8:	f7ff f82e 	bl	8001218 <HAL_GetTick>
 80021bc:	4602      	mov	r2, r0
 80021be:	693b      	ldr	r3, [r7, #16]
 80021c0:	1ad3      	subs	r3, r2, r3
 80021c2:	2b02      	cmp	r3, #2
 80021c4:	d901      	bls.n	80021ca <HAL_RCC_OscConfig+0x206>
          {
            return HAL_TIMEOUT;
 80021c6:	2303      	movs	r3, #3
 80021c8:	e1a3      	b.n	8002512 <HAL_RCC_OscConfig+0x54e>
        while (__HAL_RCC_GET_FLAG(RCC_FLAG_HSIRDY) != RESET)
 80021ca:	4b1e      	ldr	r3, [pc, #120]	; (8002244 <HAL_RCC_OscConfig+0x280>)
 80021cc:	681b      	ldr	r3, [r3, #0]
 80021ce:	f003 0302 	and.w	r3, r3, #2
 80021d2:	2b00      	cmp	r3, #0
 80021d4:	d1f0      	bne.n	80021b8 <HAL_RCC_OscConfig+0x1f4>
        }
      }
    }
  }
  /*------------------------------ LSI Configuration -------------------------*/
  if (((RCC_OscInitStruct->OscillatorType) & RCC_OSCILLATORTYPE_LSI) == RCC_OSCILLATORTYPE_LSI)
 80021d6:	687b      	ldr	r3, [r7, #4]
 80021d8:	681b      	ldr	r3, [r3, #0]
 80021da:	f003 0308 	and.w	r3, r3, #8
 80021de:	2b00      	cmp	r3, #0
 80021e0:	d038      	beq.n	8002254 <HAL_RCC_OscConfig+0x290>
  {
    /* Check the parameters */
    assert_param(IS_RCC_LSI(RCC_OscInitStruct->LSIState));

    /* Check the LSI State */
    if ((RCC_OscInitStruct->LSIState) != RCC_LSI_OFF)
 80021e2:	687b      	ldr	r3, [r7, #4]
 80021e4:	695b      	ldr	r3, [r3, #20]
 80021e6:	2b00      	cmp	r3, #0
 80021e8:	d019      	beq.n	800221e <HAL_RCC_OscConfig+0x25a>
    {
      /* Enable the Internal Low Speed oscillator (LSI). */
      __HAL_RCC_LSI_ENABLE();
 80021ea:	4b16      	ldr	r3, [pc, #88]	; (8002244 <HAL_RCC_OscConfig+0x280>)
 80021ec:	6f5b      	ldr	r3, [r3, #116]	; 0x74
 80021ee:	4a15      	ldr	r2, [pc, #84]	; (8002244 <HAL_RCC_OscConfig+0x280>)
 80021f0:	f043 0301 	orr.w	r3, r3, #1
 80021f4:	6753      	str	r3, [r2, #116]	; 0x74

      /* Get Start Tick*/
      tickstart = HAL_GetTick();
 80021f6:	f7ff f80f 	bl	8001218 <HAL_GetTick>
 80021fa:	6138      	str	r0, [r7, #16]

      /* Wait till LSI is ready */
      while (__HAL_RCC_GET_FLAG(RCC_FLAG_LSIRDY) == RESET)
 80021fc:	e008      	b.n	8002210 <HAL_RCC_OscConfig+0x24c>
      {
        if ((HAL_GetTick() - tickstart) > LSI_TIMEOUT_VALUE)
 80021fe:	f7ff f80b 	bl	8001218 <HAL_GetTick>
 8002202:	4602      	mov	r2, r0
 8002204:	693b      	ldr	r3, [r7, #16]
 8002206:	1ad3      	subs	r3, r2, r3
 8002208:	2b02      	cmp	r3, #2
 800220a:	d901      	bls.n	8002210 <HAL_RCC_OscConfig+0x24c>
        {
